:10000000882B001039A3000095A3000095A30000E1
:1000100095A3000095A3000095A300000000000038
:1000200000000000000000000000000095A3000098
:1000300095A300000000000095A3000095A3000018
:1000400095A3000095A3000095A30000790100008E
:1000500095A3000095A3000095A3000095A30000C0
:1000600095A3000095A3000095A3000095A30000B0
:1000700095A3000095A3000095A3000095A30000A0
:1000800095A3000095A3000095A3000075A20000B1
:1000900095A3000059A1000095A3000095A30000BE
:1000A00095A3000095A300005995000095A30000BA
:1000B00095A30000E501000095A3000095A30000B2
:1000C00095A3000095A3000095A3000080B500AFA4
:1000D00000F006F800F05CF800F02CF880BD00BFDE
:1000E00080B586B000AF01233B7464237B6100239D
:1000F0003B7100237B710123FB710023BB71002343
:100100003B720A4BFB6007F11003094800211A46B5
:1001100002F034FE3B1D0648194602F025FF044854
:10012000012102F0EBFE1837BD4680BD0054EA2ADB
:100130000040094080B588B000AF0223BB760023A1
:100140003B770023FB7603233B7619237B7607F16D
:10015000180318460AF0DEF901233B7401237B6182
:1001600007F110034FF0402000211A4602F006FE6E
:100170002037BD4680BD00BF80B500AF03480021D9
:1001800002F0B8FD07F002FA80BD00BF0000094090
:1001900080B586B000AF01233B7401237B6100234F
:1001A0003B7100237B710123FB710023BB71002392
:1001B0003B720A4BFB6007F11003094800211A4605
:1001C00002F0DCFD3B1D0648194602F0CDFE044856
:1001D000012102F093FE1837BD4680BD002D31018C
:1001E0000000094080B500AF034803F081FB034BDA
:1001F00001221A7080BD00BF00000B40A90400104E
:10020000B0B400AF0D4B9B681C464FF00005224672
:100210002B46921843EB0303121943EB05035901D4
:1002200041EAD2615001121843EB0103121943EB6A
:10023000050310461946BD46B0BC70470040094052
:1002400080B400AF034B9B681846BD465DF8047B45
:10025000704700BF0040094098B500AFFFF7F0FFBE
:100260000246464B1A60454B1B68454AA2FB0323D6
:10027000DB08444A1360434B1B68A3F57A72424B78
:100280001B689A4206D9414B01221A703D4B1B68EC
:100290003D4A13603B4B1B68A3F10A023C4B1B68B1
:1002A0009A4206D93B4B01221A70364B1B68384ADA
:1002B0001360344B1B68A3F11402374B1B689A423E
:1002C00006D9364B01221A702E4B1B68324A136036
:1002D0002C4B1B68A3F16402314B1B689A4206D970
:1002E000304B01221A70274B1B682D4A1360254B97
:1002F0001B68A3F132022C4B1B689A4206D92B4B88
:1003000001221A701F4B1B68274A13601D4B1B6884
:10031000A3F1C802264B1B689A4206D9254B01223D
:100320001A70184B1B68224A1360144B1B6818463E
:1003300011F0B0FE0446204B1B681B681F4819468D
:1003400011F0B4FF03462046194611F0F1FD0346B3
:100350001C461B4B1B68184611F09CFE03462046AA
:10036000194612F0ABF80346002B06D0154B0122BC
:100370001A70024B1B68124A136098BD04000010EB
:10038000CDCCCCCCB0040010B8040010A9040010EF
:10039000B4040010AA040010BC040010AB04001048
:1003A000C0040010AC040010C4040010AD04001020
:1003B000C8040010AE040010101D001000401C46C0
:1003C000CC040010AF040010B0B500AF7C4B5A88CD
:1003D0007C4B1A807A4B9A887A4B5A80784B1A89D0
:1003E000784B9A80764BDA88764BDA80764B1B789E
:1003F000012B27D1754B1B78002B23D0734B002288
:100400001A70734B00221A70724B00221A606E4BE6
:1004100000221A706D4B00225A706C4B00229A70A9
:100420006A4B0022DA706C4B1B681B6818466B49DC
:1004300011F07EFD0346184612F04AF803469AB2C0
:10044000604BDA80624B00221A705E4BDB881BB275
:1004500040F22D42934266DC5A4BDB881BB2B3F567
:10046000617F60DD584B00221A70564B9B881BB28F
:10047000B3F5E16F10DD534B9B881BB240F60102D0
:10048000934209DC514B1B78002B05D1514B1B6863
:100490000133504A136015E04A4B9B881BB2B3F5F9
:1004A000966F0FDA474B9B881BB240F2B6329342ED
:1004B00008DD464B1B78002B04D0464B1B68013BE4
:1004C000444A1360434B1B68312B1BDD3F4B1B78A9
:1004D000002B17D13D4B01221A703D4B00221A70A0
:1004E0003F4B9A683F4B1B681046194611F022FD9E
:1004F00003461A463B4B1A60364B32221A6003F011
:1005000073F810E0334B1B68002B0CDC2F4B1B786F
:10051000002B08D02D4B00221A702D4B00221A7090
:100520002C4B00221A60304B1B681B68184611F0D8
:10053000CFFF02462D4B1A602C4B1B68002B78DD39
:100540002A4B1B680B2B74DC294B1B681C681C4B4B
:10055000DB891BB2A3F57A73184611F09FFD05469F
:10056000244B1B681A68224B1B681B6810461946EF
:1005700011F0DEFC03462846194611F0E3FD034660
:1005800018461D4911F092FE03462046194611F007
:10059000D1FC03461A46194B1A60164B1B681A68A1
:1005A000164B1B681046194611F06AFF0346002BD4
:1005B00026D0104B1B681B68104A136031E000BF47
:1005C000C8260010AC1B0010E8040010041C00102A
:1005D000D0040010EC0400100C220010000048426F
:1005E000E41B0010D4040010C8210010F404001013
:1005F000002200109821001000007A44F804001036
:100600008C4B1B681A688C4B1B681046194611F0FE
:1006100055FF0346002B04D0864B1B681B68864A97
:100620001360864B1B68013B834A1268844941F87A
:100630002320844B1B681B68184611F049FF0246B3
:100640007E4B1A607D4B1B68002B57DD7B4B1B6874
:100650000C2B53DC7C4B1B681C687C4B9B891BB2AE
:10066000A3F57A73184611F019FD0546784B1B68FF
:100670001A68754B1B681B681046194611F058FC28
:1006800003462846194611F05DFD03461846714998
:1006900011F00CFE03462046194611F04BFC0346B0
:1006A0001A46654B1A606A4B1B681A68624B1B68D6
:1006B0001046194611F0E4FE0346002B05D0644BAA
:1006C0001B681B685C4A136010E05F4B1B681A686C
:1006D000594B1B681046194611F0F0FE0346002BDB
:1006E00004D0594B1B681B68534A1360534B1B685B
:1006F000013B514A1268524941F82320564B9B88CE
:100700001BB2A3F2DC53002BB8BF5B421E2B56DD9D
:10071000514BDB881BB2184611F0C0FC02464F4B10
:100720001B681B681046194611F0C8FE0346002BD3
:1007300045D04B4B9C684B4B1B681D68464B9B88B8
:100740001BB2A3F2DC53184611F0A8FC034628465E
:10075000194611F0F7FC034618463E4911F0A6FD74
:1007600003462046194611F0E5FB03461A463C4B6A
:100770009A603B4B9B6818463B4911F09FFE03462D
:10078000002B09D0364B9B681846384911F0D0FB36
:1007900003461A46324B9A60314B9B6818463449DF
:1007A00011F078FE0346002B09D02D4B9B681846AC
:1007B0002E4911F0BFFB03461A46294B9A602D4B78
:1007C0005B78002B00F08680234BDB881AB22A4B23
:1007D0001B68D31A294A1360264B5B78012B02D081
:1007E000022B53D074E0254B1B68002BB8BF5B4233
:1007F000502B1DDD224B9C68224B1B681D681F4B34
:100800001B68184611F04AFC03462846194611F0A9
:1008100099FC034618461C4911F048FD0346204642
:10082000194611F087FB03461A46154B9A6050E0B3
:100830004FE000BF00220010F8040010F404001084
:10084000441D0010C0210010AC210010C82600106B
:10085000CC21001000007A44AC1B00100C220010C8
:10086000681C0010941B0010000034430000B443C7
:10087000000034C3041C001010000010FC04001021
:10088000B41B0010A01B001000409C46144B1B68BA
:10089000002BB8BF5B42502B16DD124B1B681C6847
:1008A0000F4B1B68184611F0F9FB0346204619460A
:1008B00011F048FC034618460B4911F0F7FC0346BB
:1008C0001A460A4B1A6003E0084B4FF000021A6008
:1008D00000BF04E0064BDB881BB2064A1360B0BDC4
:1008E000FC040010A01B001000004843E0040010AE
:1008F000AC1B00101000001080B400AF0C4B0022A5
:100900005A700B4B00221A70094B00229A70084B48
:100910000022DA70074B02225A70064B01229A70AD
:10092000044B0122DA70BD465DF8047B704700BFBE
:10093000041C0010281C001080B500AF814B5B899F
:100940001BB240F2E24293425DDD7E4B5B891BB2FB
:1009500040F2D562934256DC7B4B02225A707A4BAE
:1009600000229A70794B1B881BB2A3F2DC53184605
:1009700011F094FB0246764B1B681B681046194623
:1009800011F094FC03461A46724B1A606F4B5B8859
:100990001BB2C3F5BB630433184611F07FFB02465C
:1009A0006B4B1B681B681046194611F07FFC034611
:1009B0001A46684B5A60674B1B6818466649674A77
:1009C0000BF0DEFF0246634B1A60624B5B68184611
:1009D0006149624A0BF0D4FF02465E4B5A60604B9D
:1009E00002225A705E4B01229A705D4B0122DA702E
:1009F000554B1B78DB01DBB243F00803DBB2DAB204
:100A0000584B1A719CE04F4B5B891BB240F2D56288
:100A100093423CDD4B4B5B891BB240F697029342FD
:100A200035DC494B02225A70474B01229A704E4BDB
:100A30001B68484A13604D4B1B68464A5360454B40
:100A40001B6818464A494B4A0BF09AFF0246414B35
:100A50001A60404B5B6818464549464A0BF090FFC8
:100A600002463C4B5A603E4B02225A703C4B0122DC
:100A70009A703B4B0122DA70334B1B78DB01DBB2FF
:100A800043F00403DBB2DAB2364B1A7158E02E4B56
:100A900000225A702C4B00229A702B4B0022DA70E5
:100AA0002A4B1B881BB2A3F2DC53184611F0F6FA4E
:100AB0000246274B1B681B681046194611F0F6FBCF
:100AC00003461A46234B1A60204B5B881BB2C3F5C2
:100AD000BB630433184611F0E1FA02461C4B1B6855
:100AE0001B681046194611F0E1FB03461A46194BE4
:100AF0005A60184B1B6818461749184A0BF040FFFC
:100B00000246144B1A60134B5B6818461249134A8D
:100B10000BF036FF02460F4B5A60114B02225A70FF
:100B20000F4B01229A700E4B0122DA70064B1B7894
:100B3000DB01DBB243F01003DBB2DAB2094B1A710E
:100B400080BD00BFC8260010041C0010AC1B0010A4
:100B5000A41B0010681C0010000034C200003442C6
:100B6000281C0010981B0010840D0010880D001028
:100B700000000CC200000C42B0B500AF5C4B9B689B
:100B80005C4A13605B4B1A685B4B1B689A421CD231
:100B9000584B1A68584B1B68D21A584B13441846C6
:100BA00010F03AFE02460B46104619464EA3D3E912
:100BB000002310F0D1FF02460B461046194611F0F3
:100BC00063F902464E4B1A6019E04A4B1A684A4BC9
:100BD0001B68D31A184610F01FFE02460B4610463B
:100BE000194641A3D3E9002310F0B6FF02460B4695
:100BF0001046194611F048F90246414B1A603D4B28
:100C00001B683D4A13603F4BDB881BB2184611F04E
:100C100045FA02463C4B1B681B681046194611F00A
:100C20002FFC0346002B00F08D80384B5B78002BA7
:100C300040F08880364B1B78012B1BD1324B1B6850
:100C40001B681846334911F073F90346184611F032
:100C50003FFC03469AB2304BDA802F4BDA882E4B9A
:100C60009A802D4B9A882C4B5A802B4B5A882A4BB2
:100C70001A800FE0234BDA88274BDA80264BDA887C
:100C8000254B9A80244B9A88234B5A80224B5A88B2
:100C9000214B1A801B4BDB881BB2184611F0FEF962
:100CA00002461E4BDA601E4B9B681E4A93601E4B29
:100CB0004FF000021A601C4B1B681C4A13601B4B50
:100CC0001B681B4A13601A4B1B681A4A13600D4BB2
:100CD000DB881BB2184A1360184B9B68184A936054
:100CE000ECE300BFAFF300800000000080842E41E1
:100CF000000009400005001004050010002D31011E
:100D000014000010AC1B00100C220010041C00107A
:100D1000D004001000007041BC260010D41B00104D
:100D2000341C0010681C0010D804001008050010C6
:100D30000C050010100500100C000010E41B001042
:100D4000B41B0010A04B9A68A04B9B681046194634
:100D500011F0EEF803461A469D4B1A609C4B1B6837
:100D600018469C4911F0AAFB0346002B09D0984B6A
:100D70001B681846984911F0DBF803461A46944B55
:100D80001A60934B1B681846944911F083FB034685
:100D9000002B09D08E4B1B6818468F4911F0CAF8FA
:100DA00003461A468A4B1A608D4B1B681C68864B9B
:100DB0001A68864B1B681046194611F0B9F80346AD
:100DC0002046194611F0BEF903461A46854B1A60B3
:100DD000834B1B681C687C4B5A687C4B5B681046D5
:100DE000194611F0A5F803462046194611F0AAF954
:100DF00003461A467C4B1A607C4B1B681A68744B7E
:100E00001B681046194611F09DF903461A46784BA7
:100E10001A60744B1B6818467649774A00F090FBBD
:100E20000246704B1A60704B1B6818467149724A33
:100E300000F086FB02466C4B1A606D4B1B6818462F
:100E40006E496F4A00F07CFB0246694B1A605F4BAB
:100E50005B68184610F002FD02460B461046194624
:100E600057A3D3E9002310F04DFD02460B46104670
:100E700019460DF0CDFC02460B461046194611F0FE
:100E800003F802465F4B1A60504B1B68184610F07F
:100E9000E5FC02460B461046194649A3D3E9002358
:100EA00010F030FD02460B46104619460DF0B0FC1E
:100EB00002460B461046194610F0E6FF0246524B1A
:100EC0001A60424B5B68184610F0C8FC02460B469D
:100ED000104619463AA3D3E9002310F013FD024649
:100EE0000B46104619460DF047FC02460B461046CD
:100EF000194610F0C9FF0246444B1A60334B1B6879
:100F0000184610F0ABFC02460B46104619462CA3BF
:100F1000D3E9002310F0F6FC02460B4610461946B2
:100F20000DF02AFC02460B461046194610F0ACFFA5
:100F30000246374B1A602B4B1C68324B1A682C4BFD
:100F40001B681046194611F0FDF803462046194665
:100F500010F0EEFF03461A462E4B1A602C4B1A680F
:100F6000214B1B681046194611F0ECF803461C464D
:100F7000254B1A68254B1B681046194611F0E2F8FC
:100F800003461A461A4B1B681046194611F0DAF848
:100F900003462046194610F0CDFF03461A461E4B65
:100FA0001A60194B1B6883F000420F4B1B681046F8
:100FB000194611F0C7F803461C46144B1A682DE079
:100FC00011E7FAA146DF913F681C0010341C0010A5
:100FD00014050010000034430000B443000034C383
:100FE000F8210010180500101C0500103C1D001011
:100FF00020050010000096C300009643000048C37F
:101000000000484324050010280500102C0500109E
:10101000300500103405001038050010774B1B68B0
:101020001046194611F08EF803461A46744B1B6899
:101030001046194611F086F803462046194610F06E
:1010400079FF03461A466F4B1A606F4B1A686F4B55
:10105000DB681046194610F06BFF03461A466C4BCE
:101060001A606C4B1A68694B1B691046194610F0E0
:101070005FFF03461A46684B1A60624B1A68634B5F
:101080005B691046194610F053FF03461A46634B3E
:101090001A60634B1B681A685D4B1B681046194643
:1010A00011F050F803461A465E4B1B68104619466D
:1010B00011F048F803461A465B4B1B681046194668
:1010C00010F038FF03461A46574B1A60574B1B68FF
:1010D0005548194600F008FA514B1B681A684E4BE8
:1010E0001B681046194611F02DF803461A464D4B61
:1010F0001B681046194611F025F803461A464C4B5A
:101100001B681046194610F015FF03461A46484B57
:101110001A60464B1B684648194600F0E5F9454BF6
:101120001B681A683D4B1B681046194611F00AF8F7
:1011300003461A463B4B1B681046194611F002F84D
:1011400003461A463C4B1B681046194610F0F2FE47
:1011500003461A46384B1A60384B1B683648194606
:1011600000F0C2F9364B1B681A68294B1B68104601
:10117000194610F0E7FF03461A462B4B1B68104632
:10118000194610F0D7FE03461A462E4B1A602C4B18
:101190001B681A68204B1B681046194610F0D2FFD6
:1011A00003461A46224B1B681046194610F0C2FE31
:1011B00003461A46234B5A60234B1B681A68174B89
:1011C0001B681046194610F0BDFF03461A461A4B1D
:1011D0001B681046194610F0ADFE03461A46194B1F
:1011E0009A601A4B5B78002B34D0194B1B68184659
:1011F00010F054FF0246134BDA6041E03005001056
:10120000200500103C05001034050010341C0010AF
:1012100040050010380500104405001014050010AA
:10122000181D00101400001010050010301D0010D3
:101230000C050010201D001008050010E01C001017
:10124000D8210010D41B0010BC210010041C001079
:10125000080000109B4BDB881BB2184610F01EFFE5
:101260000246994BDA60994B4FF000021A60954B99
:10127000DB881BB2964A1360964B9B68964A936034
:1012800000F07CF9904BDA688F4B5B68104619468A
:1012900010F050FE0346184610F0E0FA04460D46E2
:1012A000894B1B68184610F0D9FA02460B461046C7
:1012B00019464FF00002894B10F024FB02460B4602
:1012C0002046294610F06CF902460B4614461D468E
:1012D0007D4B9B68184610F0C1FA02460B4620462B
:1012E000294610F05BF902460B461046194610F0ED
:1012F000A3FD03469AB27A4B9A80734BDA68724B1D
:101300005B681046194610F015FE0346184610F0AB
:10131000A5FA04460D466C4B1B68184610F09EFA61
:1013200002460B46104619464FF000026B4B10F078
:10133000E9FA02460B462046294610F02FF90246EC
:101340000B4614461D46604B9B68184610F086FA03
:1013500002460B462046294610F022F902460B466B
:101360001046194610F068FD03469AB25C4B5A814C
:10137000554BDA68544B5B681046194610F0D8FD9F
:101380000346184610F06AFA04460D464E4B1B6899
:10139000184610F063FA02460B46104619464FF005
:1013A00000024E4B10F0AEFA02460B46204629468C
:1013B00010F0F6F802460B4614461D46424B9B6859
:1013C000184610F04BFA02460B462046294610F00C
:1013D000E5F802460B461046194610F02DFD03466F
:1013E0009AB23F4B1A81384BDA68374B5B6810462C
:1013F000194610F09DFD0346184610F02FFA0446DA
:101400000D46314B1B68184610F028FA02460B4671
:10141000104619464FF00002304B10F073FA0246A6
:101420000B462046294610F0B9F802460B461446F2
:101430001D46254B9B68184610F010FA02460B46D5
:101440002046294610F0ACF802460B4610461946D5
:1014500010F0F2FC03469AB2214B1A801A4BDA685C
:10146000194B1B681046194610F064FD03461A46D6
:10147000154B9B681046194610F05CFD0346184654
:1014800011F026F803469AB2154B5A800E4BDA68D3
:101490000D4B1B681046194610F04AFD03461A46CC
:1014A000094B9B681046194610F042FD034618464A
:1014B00011F00EF803469AB2094BDA8000F0D4F826
:1014C000B0BD00BFAC1B0010D41B0010D80400102E
:1014D0000C000010E41B0010B41B00100000E03FE3
:1014E000BC260010AFF3008080B582B000AF7860FA
:1014F00039607B681A683B681B681046194610F013
:10150000DDFF0346002B04D03B681A687B681A6035
:1015100012E07B681A683B681B6883F00043104642
:10152000194610F0ADFF0346002B05D03B681B6841
:1015300083F000427B681A600837BD4680BD00BF5B
:1015400080B584B000AFF860B9607A60F868B968B7
:1015500010F096FF0346002B01D0BB68FB60F868D3
:10156000796810F0ABFF0346002B01D07B68FB606D
:10157000FB6818461037BD4680BD00BF80B500AF80
:10158000344B1B681846344910F098FF0346002B73
:1015900003D0304B304A1A600BE02E4B1B681846C4
:1015A0002E4910F06DFF0346002B02D0294B2B4A29
:1015B0001A60284B5B681846274910F07FFF0346E6
:1015C000002B03D0234B244A5A600BE0214B5B686D
:1015D0001846224910F054FF0346002B02D01D4B41
:1015E0001E4A5A601B4B9B6818461B4910F066FF49
:1015F0000346002B03D0174B174A9A600BE0154B9C
:101600009B681846154910F03BFF0346002B02D09B
:10161000104B124A9A600F4BDB681846104910F0C5
:101620004DFF0346002B03D00A4B0D4ADA6010E051
:10163000084BDA680B4B1B681B681046194610F004
:101640001FFF0346002B04D0064B1B681B68014A92
:10165000D36080BDD41B00100000E1430000E1C353
:101660000080ED440C22001080B500AF904BDB8869
:101670001BB2184610F012FD02468E4B1B681B6809
:101680001046194610F0FCFE0346002B4FD08A4B43
:101690005B78002B4BD1894B1B78012B2ED1854BCE
:1016A0001B681B681846864910F042FC0346184622
:1016B00010F00EFF03469AB2824BDA80814BDA8833
:1016C000804B9A807F4B9A887E4B5A807D4B5A88FC
:1016D0007C4B1A80774B1B681B681846784910F0C2
:1016E00027FC0346184610F0F3FE03469AB2754BEA
:1016F0005A81744B5A89734B1A8170E16C4BDA88AA
:10170000704BDA806F4BDA886E4B9A806D4B9A88FB
:101710006C4B5A806B4B5A886A4B1A80644BDA8840
:10172000684B5A81674B5A89664B1A8157E1654B62
:101730001B881BB2184610F0B1FC02465D4B1B68BB
:101740001B681046194610F09BFE0346002B0AD07A
:10175000584B1B681B68184610F0BAFE03469AB235
:10176000584B1A801AE0574B1B881BB2184610F0D2
:1017700095FC0246544B1B681B681046194610F036
:101780009DFE0346002B09D04F4B1B681B68184673
:1017900010F09EFE03469AB24A4B1A80494B5B8872
:1017A0001BB2184610F07AFC0246424B1B681B68BD
:1017B0001046194610F064FE0346002B0AD03D4B3C
:1017C0001B681B68184610F083FE03469AB23D4B17
:1017D0005A801AE03B4B5B881BB2184610F05EFC47
:1017E0000246394B1B681B681046194610F066FE0E
:1017F0000346002B09D0344B1B681B68184610F0B9
:1018000067FE03469AB22F4B5A802E4B9B881BB221
:10181000184610F043FC0246264B1B681B68104616
:10182000194610F02DFE0346002B0AD0214B1B68F1
:101830001B68184610F04CFE03469AB2214B9A8062
:101840001AE0204B9B881BB2184610F027FC02467A
:101850001D4B1B681B681046194610F02FFE0346EF
:10186000002B09D0184B1B681B68184610F030FE7F
:1018700003469AB2134B9A80124BDB881BB2184670
:1018800010F00CFC02460B4B1B681B6810461946F7
:1018900010F0F6FD0346002B18D0064B1B681B68A2
:1018A000184610F015FE03469AB2064BDA8028E07F
:1018B000AC1B00100C220010041C0010D0040010FF
:1018C00000007041BC260010E81C0010444BDB886F
:1018D0001BB2184610F0E2FB0246424B1B681B6825
:1018E0001046194610F0EAFD0346002B09D03D4B87
:1018F0001B681B68184610F0EBFD03469AB2384B84
:10190000DA80374B1B891BB2184610F0C7FB024622
:10191000354B1B681B681046194610F0B1FD034695
:10192000002B0AD0304B1B681B68184610F0D0FD06
:1019300003469AB22A4B1A811AE0294B1B891BB223
:10194000184610F0ABFB0246264B1B681B6810467E
:10195000194610F0B3FD0346002B09D0214B1B683C
:101960001B68184610F0B4FD03469AB21C4B1A814E
:101970001B4B5B891BB2184610F090FB02461A4BBA
:101980001B681B681046194610F07AFD0346002BB1
:101990000AD0154B1B681B68184610F099FD0346CA
:1019A0009AB20F4B5A811AE00D4B5B891BB2184655
:1019B00010F074FB02460B4B1B681B68104619465F
:1019C00010F07CFD0346002B09D0064B1B681B68FA
:1019D000184610F07DFD03469AB2014B5A8180BD36
:1019E000BC260010E81C00100C22001000000000B3
:1019F000B0B584B000AF4FF07E53BB604FF0000332
:101A0000FB604FF000037B609F4B9B689F4A136015
:101A10009E4B1A689E4B1B689A421CD29B4B1A68BD
:101A20009B4B1B68D21A9B4B134418460FF0F4FED5
:101A300002460B46104619468FA3D3E9002310F047
:101A40008BF802460B461046194610F01DFA024666
:101A5000914B1A6019E08D4B1A688D4B1B68D31A95
:101A600018460FF0D9FE02460B461046194682A3CF
:101A7000D3E9002310F070F802460B4610461946D1
:101A800010F002FA0246844B1A60804B1B68804AB1
:101A90001360824B9A68824B9B681046194610F07F
:101AA00047FA03461A467F4B1A607F4B1B681A6839
:101AB0007C4B1B681046194610F044FB0346184641
:101AC0007A4910F0F3FB0346FB60794B5B78042BFB
:101AD00000F2BC8001A252F823F000BF4D1C0000B0
:101AE000F11A0000111C00000B1B00009F1B0000DE
:101AF000704B5B79DBB203F00F03DBB243F01003F2
:101B0000DBB2DAB26B4B5A71A1E0654B9B681846A9
:101B10004FF07F5110F0B4FC0346002B01D0664B10
:101B2000FB60664B40F2F6421A60654B1B681B680F
:101B300018464FF07E5110F0FDF903461A46574BF8
:101B40009A60574B9B6818460FF088FE04460D4676
:101B5000524B9B6818460FF081FE02460B4610461A
:101B600019464FF00002574B0FF018FD02460B4686
:101B70002046294610F056F90346002B02D04C4B64
:101B800001225A704B4B5B79DBB203F00F03DBB2DF
:101B900043F02003DBB2DAB2464B5A7157E0404BB8
:101BA0009B681846444910F06BFC0346002B1ED07E
:101BB000454BFB603A4B9B6818460FF04FFE0246C0
:101BC0000B46104619464FF03332404B10F00CF9DB
:101BD0000346002B00D10EE0354B01225A70304BEA
:101BE0009B682E4A93603A4B01221A7003E02B4BFC
:101BF0004FF000029A602F4B5B79DBB203F00F03CA
:101C0000DBB243F04003DBB2DAB22A4B5A711EE07A
:101C1000304B1B6818464FF0000110F027FC0346BC
:101C2000002B06D11E4B9B681C4A9360294B1B68F6
:101C3000FB60204B5B79DBB203F00F03DBB263F098
:101C40007F03DBB2DAB21B4B5A7100E000BFF868C9
:101C50000FF004FE02460B461046194608A3D3E9CE
:101C6000002310F0DFF80346002B37D01A4BFB603F
:101C700045E000BFAFF300800000000080842E41EB
:101C80009A9999999999E93F0000094048050010EF
:101C90004C050010002D310118000010B41B00107D
:101CA000E41B001050050010082200100000C8427C
:101CB000041C0010981B0010000040400C00001095
:101CC000E82100100000D03F000080BE3333B33F56
:101CD000E8040010E0040010CDCC4C3FF8680FF091
:101CE000BDFD02460B46104619462FA3D3E900233B
:101CF00010F07AF80346002B01D02D4BFB602D4BE2
:101D00001B681C682C4B5B69F868194610F010F9C9
:101D100003462046194610F015FA03461A46274B8B
:101D20001B681046194610F00DFA03461A46244B5C
:101D30001B681046194610F0FDF803461A46204B62
:101D40001A60204B1B681E481946FFF7CDFB1E4B3F
:101D50001B68184610F0A2F905461C4B1B681C684E
:101D6000154B5B69F868194610F0E2F80346204607
:101D7000194610F0E7F903462846194610F0DAF83C
:101D800003461A460E4B1B681046194610F0D2F84F
:101D90000346184610F09CFB02460D4B1A601037A4
:101DA000BD46B0BDAFF300809A9999999999E9BF62
:101DB000CDCC4CBFB8210010E41B0010180000105F
:101DC000D8040010EC2100100C000010A421001019
:101DD00008000010AFF3008080B500AF0B4B1B680C
:101DE0001B6818460A4910F0A5F80346184610F07B
:101DF00095FB03469BB21A461346DB0013449B0037
:101E000013440448194609F071FC80BDF02100100C
:101E10000000A040C41300102DE9B04390B000AF03
:101E200078600023FB630023BB6300237B630123F3
:101E30003B630123FB62864B1B681B681846854980
:101E400010F014FB0346002B03D0834B01221A70C1
:101E500002E0814B00221A707D4B1B684FF000029C
:101E60001A60786810F034FB0346013B042B00F243
:101E7000988601A252F823F08D1E00001F24000056
:101E8000A9240000292A0000292A0000734B1C689D
:101E9000734B1B681B68184610F040FB03469BB24F
:101EA000184610F0FBF802466E4B1B681B68104684
:101EB000194610F047F9034618464FF07E5110F0CE
:101EC00039F803462360684B1B681846674910F0D1
:101ED000EDF903461A46664B1A61634B5B68184678
:101EE000624910F0E3F903461A46614B5A61614BAF
:101EF0001B681B685E4A93615F4B1B681B685C4AEA
:101F000053605B4B4FF080421A605C4B9B68584AB1
:101F1000D360574B00229A83554B1022DA83544BDF
:101F20000D2283F82020524BBE2283F82120504BF3
:101F3000002283F822204E4B002283F823204C4BB2
:101F4000012283F824204D4B9B68BB62B86A0FF0D6
:101F500085FC02460B46104619463BA3D3E90023F5
:101F60000FF0D0FC02460B46104619460CF004FC5C
:101F700002460B46104619460FF086FF03467B6269
:101F8000B86A0FF06BFC02460B46104619462EA3AA
:101F9000D3E900230FF0B6FC02460B461046194663
:101FA0000CF036FC02460B46104619460FF06CFF4B
:101FB00003463B620023BB6321E2314B1B681A6876
:101FC000274B1B681B681046194610F06FF9034633
:101FD00018460FF043FC04460D46B86B10F05EF84F
:101FE000034618460FF03AFC02460B4610461946C7
:101FF0004FF00002234B0FF0D3FA02460B469046F7
:102000009946174B1B681B6818464FF0804110F02B
:102010004DF9034618460FF021FC02460B46404698
:1020200049460FF0BBFA02460B46204629460FF000
:1020300069FC02460B46104619460FF025FF034681
:10204000FB610023FB63BFE111E7FAA146DF913F8B
:10205000C42100100000A04060050010F021001015
:10206000A0210010D0210010081C00108096184BF1
:10207000C4130010DC210010E4210010341C0010F7
:10208000E41C00100000E03FC14B1B681A68C14B04
:102090001B681B681046194610F008F903461846DD
:1020A0000FF0DCFB04460D46786B0FF0F7FF03469C
:1020B00018460FF0D3FB80468946386B0FF0BCFB07
:1020C00002460B46104619464FF00002B24B0FF085
:1020D00019FC02460B46404649460FF061FA02469B
:1020E0000B46204629460FF00DFC02460B461046D3
:1020F00019460FF0C9FE0346BB617A6B3B6B134474
:102100007B63F869796A10F01DF803461C46B869CC
:10211000396A10F017F80346204619460FF00AFFF7
:1021200003467B61FB6983F000431846396A10F06F
:1021300009F803461C46B869796A10F003F80346AB
:10214000204619460FF0F6FE03463B613869934975
:1021500010F0ACF8034618460FF080FB02460B4621
:102160001046194682A3D3E900230FF0CBFB0246A9
:102170000B4614461D468A4B1B681846894910F0C9
:1021800095F8034618460FF069FB02460B462046B9
:1021900029460FF005FA02460B46104619460FF085
:1021A00073FE8149FA6A13469B001344DB000B441B
:1021B0001033186078690FF051FB04460D46784BD8
:1021C0001B6818460FF04AFB02460B46104619469C
:1021D00069A3D3E900230FF095FB02460B46104696
:1021E000194667A3D3E900230FF0B6FC02460B465D
:1021F000104619460CF0C0FA02460B461046194626
:1022000061A3D3E900230FF07DFB02460B46204675
:1022100029460FF0A1FC02460B461046194654A36E
:10222000D3E900230FF06EFB02460B4614461D4611
:102230005B4B5B6818465B4910F038F8034618465C
:102240000FF00CFB02460B46204629460FF0A8F97A
:1022500002460B46104619460FF016FE5249FA6A1E
:1022600013469B001344DB000B44103358604F4B64
:102270001B6819684C48FA6A13469B001344DB003C
:102280000344183319604A4B1B6819684648FA6AB8
:1022900013469B001344DB0003445960454B1B6805
:1022A00019684148FA6A13469B001344DB00034453
:1022B00019603D49FA6A13469B001344DB000B4446
:1022C00008334FF000021A603B4B99683648FA6AAF
:1022D00013469B001344DB00034408335960FB6A38
:1022E00098B23149FA6A13469B001344DB000B4451
:1022F000183302469A802C49FA6A13469B0013440D
:10230000DB000B4418331022DA802749FA6A13469F
:102310009B001344DB000B4420330D221A7022492A
:10232000FA6A13469B001344DB000B442033BE22A1
:102330005A701D49FA6A13469B001344DB000B4494
:10234000203300229A701849FA6A13469B001344FE
:10235000DB000B4420330022DA701349FA6A13467B
:102360009B001344DB000B44203301221A7125E04B
:10237000E3A9471ADCA54C404DC9077746DF913FDA
:1023800000000000D01263410000000001555841D8
:10239000D81C0010D02100100000E03F08A8C24A5D
:1023A000081C00108096184BC4130010DC2100108C
:1023B000E4210010D4210010341C0010FB6A01330A
:1023C000FB62FB6B0133FB63F86B0FF067FE0246A9
:1023D0009D4B1B681B681046194610F051F80346C8
:1023E000002B7FF451AE3B6B012B03D14FF0FF3339
:1023F0003B6301E001233B63BB6B0133BB63B86B01
:102400000FF04CFE0246914B1B681B6810461946A4
:1024100010F036F80346002B7FF4CFADC2E38C4BAF
:102420001B684FF07E521A608A4B1B6818468A4917
:102430000FF03CFF03461A46884B1A61854B5B68D8
:10244000184685490FF032FF03461A46834B5A61FE
:10245000834B1B681B68814A9361824B1B681B6816
:102460007E4A53607D4B804A1A60804B9B687B4A52
:10247000D3607A4B00229A83784B1022DA83774B11
:102480000D2283F82020754BBE2283F82120734B48
:10249000002283F82220714B002283F823206F4B07
:1024A000012283F824207DE3694B1B68704A1A607F
:1024B000684B1B68184668490FF0F8FE03461A4639
:1024C000664B1A61634B5B68184663490FF0EEFE7A
:1024D00003461A46614B5A61664B1B681B685F4A8C
:1024E00093615E4B624A5A605C4B634A1A605F4B71
:1024F0009B685A4AD360574B1B68184656490FF0E1
:10250000D5FE03461A46554BC3F8D820514B5B689D
:10251000184651490FF0CAFE03461A464F4BC3F8FE
:10252000DC20544B1B681B684C4AC2F8E0304B4B14
:102530004F4AC3F8CC20494B4F4AC3F8C8204B4BF5
:102540009B68464AC2F8D430444B0522A3F8E420E5
:10255000424B00229A83414B1022DA833F4BDA8BA5
:102560003E4BA3F8E6203D4B0D2283F820203B4B49
:1025700093F82020394B83F8E820384BBE2283F8AB
:102580002120364B93F82120344B83F8E920334B3C
:10259000002283F82220314B93F822202F4B83F81E
:1025A000EA202E4B002283F823202C4B93F8232083
:1025B0002A4B83F8EB20294B012283F82420274B58
:1025C00093F82420254B83F8EC20284B9B68BB62B2
:1025D000B86A0FF043F902460B461046194618A395
:1025E000D3E900230FF08EF902460B461046194638
:1025F0000CF0C2F802460B46104619460FF044FC98
:1026000003467B62B86A0FF029F902460B46104672
:1026100019460BA3D3E900230FF074F902460B46C9
:10262000104619460CF0F4F802460B4610461946BF
:102630000FF02AFC03463B620023BB63CAE100BFE4
:1026400011E7FAA146DF913FD0210010A021001030
:10265000F0210010081C00108096184BC4130010C5
:10266000E0210010E42100100000A040341C001004
:102670000000C040E8210010CDCCCC3DB86B0FF07D
:102680000DFD034618460FF0E9F802460B461046CA
:1026900019464FF00002104B0EF082FF02460B4627
:1026A000104619464FF000020C4B0EF077FF024621
:1026B0000B46104619464FF00002094B0FF022F965
:1026C00002460B46104619460FF0DEFB0346FB613F
:1026D0000023FB636EE100BF0000E03F0000F03F1D
:1026E00000001C40786B0FF0D9FC034618460FF031
:1026F000B5F804460D46386B0FF09EF802460B46BF
:10270000104619464FF00002BD4B0FF0FBF8024691
:102710000B46204629460EF043FF02460B46104664
:1027200019464FF00002B74B0FF0ECF802460B468B
:10273000104619460FF0A8FB0346BB617A6B3B6B52
:1027400013447B63F869796A0FF0FCFC03461C466E
:10275000B869396A0FF0F6FC0346204619460FF0B7
:10276000E9FB03467B61FB6983F000431846396A45
:102770000FF0E8FC03461C46B869796A0FF0E2FCEA
:102780000346204619460FF0D5FB03463B613869E6
:102790009D490FF08BFD034618460FF05FF8024687
:1027A0000B46104619468EA3D3E900230FF0AAF872
:1027B00002460B4614461D46944B1B681846944926
:1027C0000FF074FD034618460FF048F802460B461A
:1027D000204629460EF0E4FE02460B4610461946F6
:1027E0000FF052FB8B49FA6A13469B001344DB003F
:1027F0000B441033186078690FF030F804460D462A
:10280000824B1B6818460FF029F802460B4610460B
:10281000194675A3D3E900230FF074F802460B465E
:102820001046194672A3D3E900230FF095F902462A
:102830000B46104619460BF09FFF02460B4610460A
:1028400019466DA3D3E900230FF05CF802460B464E
:10285000204629460FF080F902460B4610461946DD
:102860005FA3D3E900230FF04DF802460B46144650
:102870001D46664B5B68184665490FF017FD034619
:1028800018460EF0EBFF02460B46204629460EF096
:1028900087FE02460B46104619460FF0F5FA5D49D1
:1028A000FA6A13469B001344DB000B441033586054
:1028B000594B1B6819685748FA6A13469B00134422
:1028C000DB000344183319605249FA6A13469B002F
:1028D0001344DB000B44514A5A604E49FA6A1346CE
:1028E0009B001344DB000B444D4A1A604949FA6AC5
:1028F00013469B001344DB000B4408334FF00002E7
:102900001A60484B99684348FA6A13469B0013447F
:10291000DB00034408335960FB6A98B23D49FA6A08
:1029200013469B001344DB000B44183302469A8085
:102930003849FA6A13469B001344DB000B441833F2
:102940001022DA803349FA6A13469B001344DB00F5
:102950000B4420330D221A702E49FA6A13469B004D
:102960001344DB000B442033BE225A702949FA6A13
:1029700013469B001344DB000B44203300229A7063
:102980002449FA6A13469B001344DB000B442033AE
:102990000022DA701F49FA6A13469B001344DB00D9
:1029A0000B44203301221A71FB6A0133FB62FB6B7B
:1029B0000133FB63FB6B012B7FF794AE3B6B012B69
:1029C00003D14FF0FF333B6301E001233B63BB6B5B
:1029D0000133BB63BB6B012B7FF750AEE2E000BF5E
:1029E000E3A9471ADCA54C404DC9077746DF913F64
:1029F00000000000D0126341000000000155584162
:102A00000000E03F00001C4008A8C24A081C00105B
:102A10008096184BC4130010E82100100000C0403D
:102A2000CDCCCC3D341C0010634B1B68634A1A604C
:102A3000634B9B68FB60634B1B68184662490FF051
:102A400035FC03461A46614B1A615E4B5B681846BB
:102A50005D490FF02BFC03461A465C4B5A615C4BF8
:102A60001B681B68594A93615A4B1B681B68574A7D
:102A70005360564B584A1A60544AFB68D360534B14
:102A800000229A83514B1022DA83504B0D2283F897
:102A900020204E4BBE2283F821204C4B002283F88D
:102AA00022204A4B002283F82320484B012283F83E
:102AB00024204A4B1B681B68444A9363484B1B689D
:102AC0001B68424AD363424B1B681B683F4A13642E
:102AD000404B1B681B683D4AD3623C4B3E4A9A629E
:102AE0003A4AFB685363394B0122A3F84420374B21
:102AF0001022A3F84620354B0D2283F84820334B93
:102B0000BE2283F84920314B002283F84A202F4B04
:102B1000002283F84B202D4B012283F84C202F4BB1
:102B20001B681B68294A13662D4B1B681B68274AC4
:102B30005366274B1B681B68244A9366254B1B680A
:102B40001B68224A53651E4B9B68204AD365254B60
:102B50001B78002B05D0244B1B681B681B4A136590
:102B600002E01A4B214A1A65184B0222A3F86C2086
:102B7000164B1022A3F86E20144B0D2283F8702000
:102B8000124BBE2283F87120104B002283F8722072
:102B90000E4B002283F873200C4B012283F8742023
:102BA00000E000BFFFF718F91148DC2108F08EFDA6
:102BB0004037BD46BDE8B083F02100100000404022
:102BC000341C0010081C00108096184BC413001011
:102BD000E0210010E42100100AD7233CE41C00107F
:102BE000D81C001060050010D42100100000A04087
:102BF000441D0010AFF3008080B584B000AF786052
:102C00007B68032B1ED801A252F823F01D2C000074
:102C1000272C0000312C00003B2C0000022000F08B
:102C200009FEF8600EE0042000F004FEF86009E000
:102C30002C2000F0FFFDF86004E02E2000F0FAFDEB
:102C4000F86000BFFB6818461037BD4680BD00BF66
:102C500080B584B000AF786039607868FFF7CCFF4A
:102C600003461A464FF00003C7E90223BB683A68DF
:102C700002FB03F3064AA2FB03239B0C1A464FF008
:102C80000003C7E90223BB6818461037BD4680BD64
:102C900083DE1B4380B485B000AF78604FF0FF3314
:102CA000FB607B68B3F1402F02D10023FB6013E08F
:102CB0007B680D4A934202D10123FB600CE07B68E4
:102CC0000A4A934202D10223FB6005E07B68084A6E
:102CD000934201D10323FB60FB6818461437BD46BD
:102CE0005DF8047B704700BF008000400000094091
:102CF0000040094080B582B000AF78600B46FB70A1
:102D00007B68B3F1402F0FD07B68184A93420BD0F9
:102D10007B68174A934207D07B68164A934203D0D8
:102D20001548D62107F03AFBFB78002B12D0FB7830
:102D3000012B0FD0FB78022B0CD0FB78032B09D092
:102D4000FB78042B06D0FB78052B03D00A48D7214B
:102D500007F024FB7B681B68FA78012101FA02F274
:102D60001A437B681A600837BD4680BD008000406A
:102D700000000940004009404828010080B586B0A5
:102D800000AFF8600B467A60FB72FB68B3F1402F2E
:102D900010D0FB68554A93420CD0FB68544A9342CA
:102DA00008D0FB68534A934204D053484FF49271C1
:102DB00007F0F4FAFB7A002B0DD0FB7A012B0AD036
:102DC000FB7A012B07D0FB7A012B04D04A4840F252
:102DD000251107F0E3FAFB68B3F1402F08D1022078
:102DE000012100F059FD0220002100F0B7FC27E08E
:102DF000FB683E4A934208D10420012100F04CFDBB
:102E00000420002100F0AAFC1AE0FB68384A934233
:102E100009D14FF48000012100F03EFD2C2000215B
:102E200000F09CFC0CE0FB68324A934208D14FF45E
:102E30000000012100F030FD2E20002100F08EFC6A
:102E4000FB689B6A23F00302FB689A62FB689A6A3C
:102E5000FB689A62FB6800229A60FB6800221A6194
:102E6000FB680022DA60FB685B6843F00202FB68E3
:102E70005A60FB685B6823F00202FB685A60FB7AC9
:102E8000002B1AD17B687B617B691B78002B05D1F5
:102E90007B695B685A1EFB68DA6020E0F868FFF720
:102EA000F9FE02467B695B6810461946FFF7D0FEC3
:102EB00003465A1EFB68DA6011E07B683B61FB68E1
:102EC0009B6A23F00C02FB689A623B695B78012BDA
:102ED00005D1FB689B6A43F00402FB689A62FB68B9
:102EE0004FF0FF321A601837BD4680BD00800040A9
:102EF00000000940004009404828010080B582B028
:102F000000AF78600B46FB707B68B3F1402F10D0A8
:102F10007B68114A93420CD07B68104A934208D0D8
:102F20007B680F4A934204D00E484FF4C77107F0F4
:102F300035FAFB78012B06D17B685B6843F0010210
:102F40007B685A6005E07B685B6823F001027B6860
:102F50005A600837BD4680BD00800040000009402F
:102F6000004009404828010080B582B000AF786079
:102F700039607B68B3F1402F10D07B68574A934289
:102F80000CD07B68564A934208D07B68554A9342DE
:102F900004D0554840F2C51107F000FA3B681B7990
:102FA000002B10D03B681B79012B0CD03B681B79A0
:102FB000022B08D03B681B79032B04D04A484FF4FE
:102FC000E37107F0EBF93B681B78032B1ED801A2D5
:102FD00052F823F0E52F0000EF2F0000F92F00003A
:102FE000033000003B689A687B689A610FE03B6899
:102FF0009A687B68DA610AE03B689A687B681A62C3
:1030000005E03B689A687B685A6200E0FEE77B68EF
:103010005A693B681B7819460B465B000B44072135
:1030200001FA03F3DB431A407B685A613B685B7823
:10303000002B0DD07B685A693B681B7819460B46FC
:103040005B000B44012101FA03F31A437B685A61C8
:103050003B68DB78002B0ED07B685A693B681B7895
:1030600019460B465B000B440133012101FA03F3BF
:103070001A437B685A613B689B78002B0ED07B68B3
:103080005A693B681B7819460B465B000B440233B8
:10309000012101FA03F31A437B685A617B68DB6BF9
:1030A0003A68127852000432032101FA02F2D24344
:1030B0001A407B68DA637B68DB6B3A68127902F04E
:1030C00003013A6812785200043201FA02F21A43FC
:1030D0007B68DA630837BD4680BD00BF00800040D2
:1030E00000000940004009404828010080B582B036
:1030F00000AF0023FB7104F049FA0AF0FBFF06F071
:103100004DFE642004F072FA0AF002FF642004F01D
:103110006DFA214B1B681B68204A1360204B1B680B
:103120001B681E4A53601F4B1B681B681B4A936039
:103130001D4B1B681B6818460FF0CAF903469AB26C
:103140001A4B1A801A4B1B681B6818460FF0C0F9FF
:1031500003469AB2154B5A80164B1B681B681846DB
:103160000FF0B6F903469AB2104B9A80124B1B68C7
:103170001B68124A1360124B1B681B680F4A53608E
:10318000104B1B681B680D4A936000F0E1F809F0D2
:10319000E3F90837BD4680BD2C1D00104C1C001003
:1031A00004220010341D0010FC2100102C1C001003
:1031B000281D0010A82100109C210010AC1C00103C
:1031C000B42100100C1D001080B500AF564B9B6859
:1031D000564A1360554B1A68554B1B689A421CD2CD
:1031E000524B1A68524B1B68D21A524B1344184662
:1031F0000EF012FB02460B461046194646A3D3E9D1
:1032000000230EF0A9FC02460B46104619460EF0AC
:103210003BFE0246484B1A6019E0444B1A68444B87
:103220001B68D31A18460EF0F7FA02460B461046F2
:10323000194639A3D3E900230EF08EFC02460B4653
:10324000104619460EF020FE02463B4B1A60374BE3
:103250001B68374A136000F07BF8374B1B68184631
:10326000012109F0E5FC3548354909F0A9FB0AF0D0
:1032700057F9324B1B68334A1360304B5B68314A55
:1032800053602E4B9B682F4A93602F4B1B68184648
:103290000EF0E4FA02460B461046194620A3D3E985
:1032A00000230EF02FFB02460B46104619460EF087
:1032B000EBFD0246234BDA60234B5B6818460EF0A9
:1032C000CDFA02460B461046194615A3D3E9002352
:1032D0000EF018FB02460B46104619460EF0D4FDC0
:1032E0000246184B1A61184B9B6818460EF0B6FA46
:1032F00002460B461046194609A3D3E900230EF0F7
:1033000001FB02460B46104619460EF0BDFD024673
:103310000C4B5A6180BD00BF0000000080842E412C
:10332000E3A9471ADCA54C400000094064050010E1
:1033300068050010002D31011C000010EC26001063
:1033400068270010341C001010270010AFF3008015
:1033500090B583B000AF00237B608F488F49904ABF
:103360000AF046FF38608C4B1A888E4B1A808A4BC5
:103370005A888D4B1A80884B9A888C4B1A803B68F0
:10338000002B02D10BF04EF8F7E000237B603BE00E
:10339000814A7B6832F813301BB218460EF07EFE6D
:1033A0000146834A7B6852F82330084619460EF0DE
:1033B000BFFD034619467F4A7B6842F82310774ACF
:1033C0007B6832F813309AB27B497B6831F813304E
:1033D0009BB2D31A9BB299B2704A7B6822F8131041
:1033E0006F4A7B6832F813309AB274497B6831F8BF
:1033F00013309BB2D31A9BB299B2694A7B6822F808
:1034000013107B6801337B607B68022BC0DD694B46
:103410001B6883F00043674A1360664B5B6883F068
:103420000043644A53605D4B1B889BB25B429BB276
:103430009AB25A4B1A80594B9B889BB25B429BB203
:103440009AB2564B9A80564B1B889BB25B429BB2FA
:103450009AB2534B1A80524B5A88514B5A80504B58
:103460009B889BB25B429BB29AB24D4B9A800023E1
:103470007B607EE0524A7B6852F82340514B1B68C8
:103480001B684FF07E5019460EF052FD0346204651
:1034900019460EF057FE03461C46464A7B6852F812
:1034A0002310494A7B6852F82330084619460EF02B
:1034B00049FE03461A46434B1B681B6810461946D3
:1034C0000EF040FE0346204619460EF033FD03463B
:1034D00019463E4A7B6842F823103C4A7B6852F802
:1034E000232037497B6841F823202C4A7B6832F837
:1034F00013301BB218460EF09FF902460B461046D9
:1035000019461FA3D3E900230EF0FCF902460B462F
:10351000104619461CA3D3E900230EF01DFB0246FA
:103520000B46104619460EF0AFFC0146284A7B6850
:1035300042F823101A4A7B6832F813301BB218463F
:103540000EF07AF902460B461046194610A3D3E94D
:1035500000230EF0D7F902460B46104619460EF02E
:1035600093FC01461B4A7B6842F823107B680133B9
:103570007B607B68022B7FF77DAF0C37BD4690BD2B
:1035800011E7FAA146DF913F6666666666663040DF
:10359000713D0AD7A370ED3F8C1C0010581C001021
:1035A000601C0010A61C0010A81C0010D61C0010E7
:1035B0004C1C0010941C00102C1C0010A01C0010AF
:1035C000801C00101C1D0010AC1C0010DC2600101C
:1035D000102700107827001080B500AF02F0EEFE33
:1035E00008F0BAFF80BD00BF90B587B000AF0023E0
:1035F0007B6100233B6100237B6109E006F0CEFB89
:10360000322003F0F3FF03F0C1FF7B6901337B61DC
:103610007B690B2BF2DD00237B610AE07B699B0059
:1036200007F118021344002243F8142C7B6901337C
:103630007B617B69022BF1DD00233B6129E01420D3
:1036400003F0D4FF03F0A2FF06F0A8FB39480AF00C
:103650007DFE00237B6116E07B699B0007F1180269
:10366000134453F8142C33497B6931F813301BB2DF
:103670001A447B699B0007F118010B4443F8142C92
:103680007B6901337B617B69022BE5DD3B6901339B
:103690003B613B69132BD2DD00237B6122E07B6918
:1036A0009B0007F11802134453F8143C224A82FB92
:1036B0000312D210DB17D21A7B699B0007F11801A5
:1036C0000B4443F8142C7B699B0007F11802134448
:1036D00053F8143C99B2194A7B6922F813107B699C
:1036E00001337B617B69022BD9DD154B1C68134BC1
:1036F0001B881BB218460EF0D1FC03462360114B09
:103700001C680E4B5B881BB218460EF0C7FC0346C4
:1037100023600D4B1C68094B9B881BB218460EF0AA
:10372000BDFC034623600948DC2107F0CFFF1C37AE
:10373000BD4690BD581C0010676666662C1C0010C4
:10374000FC210010281D0010A8210010441D0010AD
:1037500080B400AFBD465DF8047B704780B485B08F
:1037600000AF786039607B681F2B02D97B68203BF3
:1037700000E07B68FB607B681F2B17D81949194B49
:10378000D3F8A831FA68032000FA02F2D2431340BA
:10379000C1F8A8311348134BD3F8A821FB68396846
:1037A00001FA03F31343C0F8A83116E00D490D4B9D
:1037B000D3F8AC31FA68032000FA02F2D243134086
:1037C000C1F8AC310748074BD3F8AC21FB68396826
:1037D00001FA03F31343C0F8AC311437BD465DF86A
:1037E000047B704700C00F4080B485B000AF7860A4
:1037F0007B681F2B06D87B68FB600D4BD3F8A83184
:10380000BB6006E07B68203BFB60094BD3F8AC3122
:10381000BB60FB68BA6822FA03F303F00303BB60E2
:10382000BB6818461437BD465DF8047B704700BF7F
:1038300000C00F4080B584B000AF7860154B1B68A6
:10384000BB607868FFF7D0FFF860FB68032B17D8E0
:1038500001A252F823F000BF693800006F38000061
:10386000753800007B3800000423FB6008E001236A
:10387000FB6005E00223FB6002E00823FB6000BF61
:10388000BA68FB68B2FBF3F3BB60BB68184610373D
:10389000BD4680BD2000001080B483B000AF7860CA
:1038A0000B46FB70FB78012B0AD10F480E4BD3F867
:1038B000C42079680D4B0B401343C0F8C4300DE0B1
:1038C000FB78002B0AD10849074BD3F8C4207B684A
:1038D000DB431A40054B1340C1F8C4300C37BD46DA
:1038E0005DF8047B704700BF00C00F40DEF7EFEFCC
:1038F00080B584B000AF78607B680F4A934203D0F4
:103900000E48A92106F04AFD7B681B7ADBB203F062
:103910000103002B0BD00123FB737B681B7ADBB206
:1039200043F00103DAB27B681A72FB7B00E00023EC
:1039300018461037BD4680BD00000B40BC28010072
:1039400080B400AF4E4B2022C3F8A0214C4BD3F8DB
:10395000A03103F02003002B07D000BF484BD3F861
:10396000A03103F04003002BF8D0454B0322C3F8ED
:103970000421434B0022C3F8A821414B0022C3F885
:10398000AC213F4B0122C3F80C213D4B3D4AC3F80B
:1039900084203B4BAA22C3F88C20394B5522C3F814
:1039A0008C20374B0122C3F88020354BAA22C3F864
:1039B0008C20334B5522C3F88C2000BF304BD3F8FA
:1039C000883003F08063002BF8D02D4B0322C3F81E
:1039D00080202B4BAA22C3F88C20294B5522C3F8F8
:1039E0008C2000BF264BD3F8883003F04073002BA7
:1039F000F8D0234B2322C3F8A420214BAA22C3F8DA
:103A0000AC201F4B5522C3F8AC201D4B0122C3F83C
:103A1000A0201B4BAA22C3F8AC20194B5522C3F897
:103A2000AC2000BF164BD3F8A83003F48063002B02
:103A3000F8D0134B0322C3F8A020114BAA22C3F8DD
:103A4000AC200F4B5522C3F8AC2000BF0C4BD3F871
:103A5000A83003F44073002BF8D0094B0A4AC3F88E
:103A6000C420074B0022C3F8C821054B43F23A0299
:103A70001A60064B00229A60BD465DF8047B7047D1
:103A800000C00F4063000500DE87280400ED00E061
:103A900080B400AFBFF34F8F0549054BDB6803F4DB
:103AA000E062044B1343CB60BFF34F8FFEE700BFD0
:103AB00000ED00E00400FA0580B582B000AF0346D7
:103AC0000A46FB711346BB71FB79002B03D1BB790E
:103AD000184605F087FF0837BD4680BD80B485B025
:103AE00000AF03463960FB713B681B88DAB2FB7993
:103AF0005340FB73FB7B1B01DAB2FB7B5340DBB211
:103B0000FB733B681B881B0A9BB29AB2FB7B1B02B0
:103B10009BB253409AB2FB7BDB009BB253409AB2FC
:103B2000FB7B1B09DBB29BB253409BB29AB23B6852
:103B30001A801437BD465DF8047B704780B483B0AB
:103B400000AF78607B684FF6FF721A800C37BD4675
:103B50005DF8047B704700BF80B584B000AF78602B
:103B60000B467B8007F10E031846FFF7E7FF09E0DD
:103B70007B685A1C7A601A7807F10E0310461946C2
:103B8000FFF7ACFF7B885A1E7A80002BF0D1FB89AF
:103B900018461037BD4680BD80B586B000AFF860CE
:103BA000B9601346FB71BB687B6107E07B695A1CF7
:103BB0007A611B781846F968FFF790FFFB795A1E67
:103BC000FA71002BF2D11837BD4680BD80B483B0A6
:103BD00000AF0346FB71FA7913465B0013449B0068
:103BE000034A134418460C37BD465DF8047B704702
:103BF000C00A001080B483B000AF0346FB71FA79AD
:103C000013461B0113441B01034A134418460C3787
:103C1000BD465DF8047B70478006001080B586B015
:103C200000AF3A601A460346FB710B46BB71134660
:103C30007B71FB791846FFF7C9FF7861FE233B7360
:103C40007B797B737B699B79BB73254B1B78FB73FB
:103C5000234B5B783B74BB797B747B699B79013325
:103C6000DAB27B699A7107F10C030133184605211A
:103C7000FFF772FF03467B8207F112027B79104641
:103C800039681A46FFF788FF97F8202007F11203DA
:103C900010461946FFF722FF7B8ADBB23B727B8A14
:103CA0001B0A9BB2DBB27B72FA7907F10C03104658
:103CB0001946062200F090F97B799BB2FA791046FA
:103CC00039681A4600F088F9FA7907F108031046B6
:103CD0001946022200F080F91837BD4680BD00BFAA
:103CE000981B001080B582B000AF78607B681846E2
:103CF000FFF724FF0837BD4680BD00BF80B582B006
:103D000000AF78600B46FB707B68FA781046194666
:103D1000FFF7E4FE0837BD4680BD00BF80B588B020
:103D200000AFBA607B600346FB730B46BB73FB7B43
:103D30001846FFF75FFFF861FB7B1846FFF746FF69
:103D4000B86100237B61BB6900221A70BB69DB7814
:103D5000092B00F20E8101A252F823F0853D0000EC
:103D6000853D0000A73D00000B3E0000F33D000034
:103D7000233E00003B3E0000633E00009B3E0000EF
:103D8000033F0000BB7BFE2B0CD1BB690222DA7023
:103D9000FB690022DA70FB69BA7B9A70F869FFF759
:103DA000A1FFE6E0E5E0BB691B78002B12D0BB6900
:103DB0005B780133DAB2BB695A70BB699B78013317
:103DC000DAB2BB699A70BB6900221A70BB69012222
:103DD000DA70CEE0FB69BA7BDA70BB6900221A7137
:103DE000BB7BF8691946FFF789FFBB690422DA70CB
:103DF000BFE0FB69BA7B1A71BB7BF8691946FFF714
:103E00007DFFBB690322DA70B3E0FB69BA7B5A71AC
:103E1000BB7BF8691946FFF771FFBB690522DA70B1
:103E2000A7E0FB69BA7B9A71BB7BF8691946FFF77B
:103E300065FFBB690622DA709BE0FB69BA7BDA7129
:103E4000BB7BF8691946FFF759FFFB69DB78002B4C
:103E500003D1BB690822DA708BE0BB690722DA70F4
:103E600087E0FB6903F10802BB691B79591CC8B2E2
:103E7000B96908711344BA7B1A70BB7BF86919469B
:103E8000FFF73CFFBB691A79FB69DB789A4203D1E3
:103E9000BB690822DA706CE06BE0FB69DB791A46DB
:103EA0004C4B9B5CF8691946FFF728FFBA7BFB690E
:103EB0001B88DBB29A4218D0BB699B780133DAB217
:103EC000BB699A70BB6900221A70BB690122DA7063
:103ED000BB7BFE2B14D1BB690222DA70FB69002286
:103EE000DA70F869FFF7FEFE43E0BB690922DA7079
:103EF000FB690833BA6912791344BA7B1A7038E047
:103F000037E0BB7B9AB2FB691B881B0A9BB29A42C3
:103F100018D0BB699B780133DAB2BB699A70BB6970
:103F200000221A70BB690122DA70BB7BFE2B1FD105
:103F3000BB690222DA70FB690022DA70F869FFF7C8
:103F4000D1FE15E0BB6901221A70BB690122DA704B
:103F5000FB6903F10802BB691B7901331344BA7B87
:103F60001A70B868F9694FF488720EF0FDFAFFE72D
:103F700000BF7B6901337B61BB691B78012B10D1CA
:103F8000FB691A79BB695A71BB691B89002B02D185
:103F9000BB6900225A81BB691B8901339AB2BB6994
:103FA0001A81BB695B790133DAB27B685A71BB69EC
:103FB0001A897B681A81BB699B789AB27B685A819F
:103FC000BB6900229A70BB691B7818462037BD4632
:103FD00080BD00BFC82B010080B584B000AF034690
:103FE0003960FB711346BB800023FB810BE0FB892A
:103FF0003A6813441B78FA7910461946FFF75CFDBE
:10400000FB890133FB81FA89BB889A42EFD31037D1
:10401000BD4680BD80B584B000AFF860B9607A60FD
:10402000BB68002B05D1F86800217A680EF012FBFE
:1040300004E0F868B9687A680EF096FA1037BD4661
:1040400080BD00BF80B483B000AF78600B46FB70CA
:104050007B6803F10802FB7813441B8818460C3771
:10406000BD465DF8047B704780B483B000AF7860D4
:104070000B46FB707B6803F10802FB7813441B8836
:104080001BB218460C37BD465DF8047B704700BF75
:1040900080B483B000AF78600B46FB707B6803F19F
:1040A0000802FB7813441B6818460C37BD465DF8C0
:1040B000047B704780B483B000AF78600B46FB7020
:1040C0007B6803F10802FB7813441B6818460C3721
:1040D000BD465DF8047B704780B483B000AF786064
:1040E0000B46FB707B6803F10802FB7813441B68E6
:1040F00018460C37BD465DF8047B704790B589B013
:1041000002AF0446084611461A462346FB71034691
:10411000BB710B467B7113463B71BB6AFB60BB797D
:104120003B747B797B743B79BB7497F82C30FB74C0
:1041300003233B75F97907F10C02322300930846FB
:1041400000210923FFF76AFD1C37BD4690BD00BF63
:1041500080B483B000AF78607B68083305331B7888
:1041600018460C37BD465DF8047B704780B582B0B9
:1041700000AF786078680021FFF78AFF0346184691
:104180000837BD4680BD00BF80B58EB002AFB960B4
:104190007A601A460346FB731346BB737B687B61E8
:1041A0003B8F3B83BB8F7B83BB7B87F82C3007F136
:1041B000140308331846B9681022FFF72BFFF97B68
:1041C00007F11402DC230093084616211923FFF798
:1041D00025FD3037BD4680BD80B582B000AF786028
:1041E00039607B6808333868194617220EF0BCF92D
:1041F0000837BD4680BD00BF80B582B000AF786093
:1042000078680421FFF756FF034618460837BD4675
:1042100080BD00BF80B582B000AF786078680821AB
:10422000FFF748FF034618460837BD4680BD00BF6C
:1042300080B582B000AF786078680C21FFF73AFF54
:10424000034618460837BD4680BD00BF80B582B022
:1042500000AF786078681021FFF72CFF03461846FE
:104260000837BD4680BD00BF80B582B000AF786022
:1042700078681421FFF7F8FE034618460837BD4654
:1042800080BD00BF80B582B000AF7860786816212D
:10429000FFF7EAFE034618460837BD4680BD00BF5B
:1042A00080B582B000AF786078681821FFF7DCFE37
:1042B000034618460837BD4680BD00BF80B582B0B2
:1042C00000AF786078681A21FFF7BCFE03461846F5
:1042D0000837BD4680BD00BF90B58FB002AF044621
:1042E000084611461A462346FB710346BB710B462E
:1042F0007B7113467B803B6DBB607B6DFB60BB6D50
:104300003B61FB6D7B613B6EBB617B6EFB61BB6E9A
:104310003B627B88BB84B7F84430FB84BB7987F869
:1043200028307B7987F8293097F8403087F82A3091
:1043300097F8483087F82B3097F84C3087F82C30B6
:10434000F97907F10802FE23009308462721252367
:10435000FFF764FC3437BD4690BD00BF80B582B026
:1043600000AF786078681C21FFF76CFE03461846A2
:104370000837BD4680BD00BF80B582B000AF786011
:1043800039607B6808333868194625220EF0ECF84E
:104390000837BD4680BD00BF90B587B002AF044668
:1043A000084611461A462346FB710346BB710B466D
:1043B0007B7113467B807B88BB81BB79BB737B7928
:1043C000FB73F97907F10C02E623009308462821D4
:1043D0000423FFF723FC1437BD4690BD80B582B09F
:1043E00000AF786078680021FFF72CFE034618467E
:1043F0000837BD4680BD00BF80B582B000AF786091
:1044000039607B6808333868194602220EF0ACF830
:104410000837BD4680BD00BF90B587B002AF0446E7
:10442000084611461A462346FB710346BB710B46EC
:104430007B7113467B807B88BB81BB79BB737B79A7
:10444000FB73F97907F10C02DD23009308462C2158
:104450000423FFF7E3FB1437BD4690BD80B582B05F
:1044600000AF786078680021FFF7ECFD034618463E
:104470000837BD4680BD00BF80B582B000AF786010
:1044800039607B6808333868194604220EF06CF8EE
:104490000837BD4680BD00BF90B587B002AF044667
:1044A000084611461A462346FB710346BB710B466C
:1044B0007B7113463B71BB793B737B797B733B7993
:1044C000BB73F97907F10C029923009308462F2159
:1044D0000323FFF7A3FB1437BD4690BD80B582B020
:1044E00000AF786078680021FFF7BEFD03461846EC
:1044F0000837BD4680BD00BF80B582B000AF786090
:1045000078680221FFF7B0FD034618460837BD461C
:1045100080BD00BF80B582B000AF786078680421AC
:10452000FFF7A2FD034618460837BD4680BD00BF11
:1045300080B582B000AF786078680621FFF794FDFF
:10454000034618460837BD4680BD00BF80B582B01F
:1045500000AF786039607B680833386819462122DB
:104560000EF002F80837BD4680BD00BF80B586B0AA
:1045700002AF0346FB710B46BB801346BB71BB8881
:10458000BB81BB79BB73F97907F10C028F230093D0
:1045900008464D210323FFF741FB1037BD4680BD80
:1045A00080B582B000AF786078680821FFF794FD8D
:1045B000034618460837BD4680BD00BF80B582B0AF
:1045C00000AF786078680C21FFF786FD0346184637
:1045D0000837BD4680BD00BF80B582B000AF7860AF
:1045E00078681021FFF778FD034618460837BD4666
:1045F00080BD00BF80B582B000AF786078681421BC
:10460000FFF76AFD034618460837BD4680BD00BF68
:1046100080B582B000AF786078681821FFF75CFD44
:10462000034618460837BD4680BD00BF80B582B03E
:1046300000AF786078681C21FFF74EFD03461846EE
:104640000837BD4680BD00BF80B582B000AF78603E
:1046500078682021FFF72EFD034618460837BD462F
:1046600080BD00BF80B582B000AF7860786824213B
:10467000FFF720FD034618460837BD4680BD00BF42
:1046800080B582B000AF786078682821FFF712FD0E
:10469000034618460837BD4680BD00BFB0B483B09E
:1046A00000AF0023FB71FB79B74AB84942F82310E9
:1046B000FB791B01D833B44A13440433B44A10685D
:1046C000186092889A80FB795A1CFA719B00AE4A56
:1046D0001344B04A1360FB79AB4A4FF0000142F833
:1046E0002310FB791B01D833A74A13440433AA4A89
:1046F0001068186092889A80FB795A1CFA719B00A6
:10470000A14A1344A54A1360FB799F4AA44942F881
:104710002310FB791B01D8339B4A13440433A14A6D
:104720001068186092889A80FB795A1CFA719B0075
:10473000954A13449C4A1360FB79934A9B4942F87B
:104740002310FB791B01D8338F4A13440433984A52
:10475000106818609188927999809A71FB795A1C37
:10476000FA719B00884A1344924A1360FB79864A87
:104770004FF0000142F82310FB791B01D833824A25
:10478000134404338C4A1068186091889279998098
:104790009A71FB795A1CFA719B007B4A1344874A31
:1047A0001360FB79784A814942F82310FB791B0199
:1047B000D833754A13440433814A106818609188CD
:1047C000927999809A71FB795A1CFA719B006E4A12
:1047D00013447C4A1360FB796B4A744942F82310F6
:1047E000FB791B01D833684A13440433764A1068B6
:1047F00018609188927999809A71FB795A1CFA71A4
:104800009B00614A1344714A1360FB795E4A704908
:1048100042F82310FB791B01D8335B4A134404335D
:104820006C4A106818609188927999809A71FB7926
:104830005A1CFA719B00544A1344674A1360FB796F
:10484000514A5A4942F82310FB791B01D8334E4A8A
:1048500013440433614A10681860918892799980F2
:104860009A71FB795A1CFA719B00474A13445C4ABF
:104870001360FB79444A4D4942F82310FB791B0130
:10488000D833414A13440433564A1068186091885B
:10489000927999809A71FB795A1CFA719B003A4A75
:1048A0001344514A1360FB79374A494942F82310AF
:1048B000FB791B01D833344A134404334B4A106844
:1048C00018609188927999809A71FB795A1CFA71D3
:1048D0009B002D4A1344464A1360FB792A4A334908
:1048E00042F82310FB791B01D833274A13440433C1
:1048F000404A106818609188927999809A71FB7982
:104900005A1CFA719B00204A13443B4A1360FB79FE
:104910001D4A3A4942F82310FB791B01D8331A4A41
:104920001344043336491A460B4603CB10605160DA
:104930001B781372FB795A1CFA719B00124A1344BC
:10494000304A1360FB79104A2F4942F82310FB7953
:104950001B01D8330C4A134404332C4A10681860E6
:104960009188927999809A71FB795A1CFA719B000F
:10497000054A1344264A1360FB79034A4FF08041ED
:1049800042F82310FB7945E0441D00106F12033BF1
:104990002C290100F821001034290100181D0010F5
:1049A0006F12033A3C290100D821001017B7D13803
:1049B000442901003C1D00104C290100201D00105D
:1049C00054290100BC2100105C29010008220010BC
:1049D0006F12833A64290100B82100106C2901008C
:1049E000A421001074290100401D00107C29010041
:1049F000F42100108429010094210010CDCC4C3EFC
:104A00008C290100241D00100000C84298290100D3
:104A1000101D00101B01D833B94A13440433B9499F
:104A20001A460B4603CB106051601B881381FB793B
:104A30005A1CFA719B00B24A1344B34A1360FB79C3
:104A4000AF4AB24942F82310FB791B01D833AC4A74
:104A500013440433AE4A1C46134607CB2060616002
:104A6000A2601B88A381FB795A1CFA719B00A44A9F
:104A70001344A84A1360FB79A14A4FF0000142F8A1
:104A80002310FB791B01D8339D4A13440433A249F8
:104A90001A460B4603CB106051601B781372FB79EA
:104AA0005A1CFA719B00964A13449C4A1360FB7986
:104AB000934A4FF0000142F82310FB791B01D833D1
:104AC0008F4A1344043396491A460B4603CB1060B1
:104AD00051601B781372FB795A1CFA719B00884A4B
:104AE0001344904A1360FB79854A4FF0000142F865
:104AF0002310FB791B01D833814A134404338A49BC
:104B00001A460B4603CB106051601B781372FB7979
:104B10005A1CFA719B007A4A1344844A1360FB7949
:104B2000774A4FF0000142F82310FB791B01D8337C
:104B3000734A134404337E491A460B4603CB106074
:104B400051601B881381FB795A1CFA719B006C4AD7
:104B50001344784A1360FB79694A4FF0000142F828
:104B60002310FB791B01D833654A1344043372497F
:104B70001A460B4603CB106051601B881381FB79EA
:104B80005A1CFA719B005E4A13446C4A1360FB790D
:104B90005B4A4FF0000142F82310FB791B01D83328
:104BA000574A1344043366491A460B4603CB106038
:104BB00051601B881381FB795A1CFA719B00504A83
:104BC0001344604A1360FB794D4A4FF0000142F8EC
:104BD0002310FB791B01D833494A134404335A4943
:104BE0001A460B4603CB106051601B781372FB7999
:104BF0005A1CFA719B00424A1344544A1360FB79D1
:104C00003F4A4FF0000142F82310FB791B01D833D3
:104C10003B4A134404334E491A460B4603CB1060FB
:104C200051601B781372FB795A1CFA719B00344A4D
:104C30001344484A1360FB79314A4FF0000142F8AF
:104C40002310FB791B01D8332D4A13440433424906
:104C50001A460B4603CB106051601B781372FB7928
:104C60005A1CFA719B00264A13443C4A1360FB7994
:104C7000234A3B4942F82310FB791B01D833204AD1
:104C80001344043337491A460B4603CB1060516076
:104C90001B781372FB795A1CFA719B00184A134453
:104CA000314A1360FB79164A2D4942F82310FB79EB
:104CB0001B01D833124A134404332C491A460B46BD
:104CC00003CB106051601B881381FB795A1CFA7169
:104CD0009B000B4A1344264A1360FB79084A20497B
:104CE00042F82310FB791B01D833054A13440433DF
:104CF00020491A460B4603CB106051601B883BE0ED
:104D0000441D0010A0290100141D0010CDCC4C3E04
:104D1000AC2901001C1D0010BC2901002C1D001035
:104D2000C829010004220010D4290100341D0010FC
:104D3000E0290100FC210010EC290100281D0010D1
:104D4000F8290100A8210010042A01009C2100106C
:104D5000102A0100B42100101C2A01000C1D0010B3
:104D60000000A041282A0100A41B0010342A0100E1
:104D7000941B0010402A01001381FB795A1CFA7120
:104D80009B00B94A1344B94A1360FB79B64AB84943
:104D900042F82310FB791B01D833B34A1344043380
:104DA000B4491A460B4603CB106051601B8813812F
:104DB000FB795A1CFA719B00AB4A1344AE4A13604C
:104DC000FB79A94AAD4942F82310FB791B01D8337E
:104DD000A54A13440433AA4A1C46134607CB206055
:104DE0006160A2601B782373FB795A1CFA719B00E7
:104DF0009D4A1344A34A1360FB799B4AA24942F897
:104E00002310FB791B01D833974A134404339F4A7C
:104E10001C46134607CB20606160A2601B78237399
:104E2000FB795A1CFA719B008F4A1344984A13600D
:104E3000FB798D4A4FF0000142F82310FB791B01EA
:104E4000D833894A13440433924A1C46134607CB8D
:104E500020606160A2601B88A381FB795A1CFA71F3
:104E60009B00814A13448C4A1360FB797E4A8B492C
:104E700042F82310FB791B01D8337B4A13440433D7
:104E8000874A1C46134607CB20606160A2601B88DE
:104E9000A381FB795A1CFA719B00734A1344814A1F
:104EA0001360FB79704A804942F82310FB791B019B
:104EB000D8336D4A134404337C4A1C46134607CB4F
:104EC00020606160A2601B88A381FB795A1CFA7183
:104ED0009B00654A1344764A1360FB79624A4FF09F
:104EE000000142F82310FB791B01D8335E4A1344BA
:104EF0000433704A1C46134607CB20606160A260F1
:104F00001B88A381FB795A1CFA719B00564A1344F3
:104F1000694A1360FB79544A604942F82310FB79CF
:104F20001B01D833504A13440433644A1C461346C9
:104F300007CB20606160A2601B88A381FB795A1CAB
:104F4000FA719B00484A13445D4A1360FB79464A54
:104F5000554942F82310FB791B01D833424A1344C8
:104F60000433584A1C46134607CB20606160A26098
:104F70001B88A381FB795A1CFA719B003A4A13449F
:104F8000514A1360FB79384A4FF0000142F8231070
:104F9000FB791B01D833344A134404334B491A4676
:104FA0000B4603CB106051601B881381FB795A1CA0
:104FB000FA719B002C4A1344454A1360FB792A4A34
:104FC0004FF0000142F82310FB791B01D833264A29
:104FD000134404333F491A460B4603CB106051601B
:104FE0001B781372FB795A1CFA719B001E4A1344FA
:104FF000394A1360FB791C4A4FF0000142F8231034
:10500000FB791B01D833184A1344043333491A4639
:105010000B4603CB1060516019889B781181937205
:10502000FB795A1CFA719B000F4A13442C4A1360F7
:10503000FB790D4A4FF0000142F82310FB791B0168
:10504000D833094A1344043326491A460B4603CB86
:10505000106051601B881381FB795A1CFA719B0008
:10506000014A134440E000BF441D0010A01B001083
:105070000000A0414C2A0100A81B001000007A4447
:10508000582A01000C2200100080ED44682A01001B
:10509000E81C0010782A0100C82100106F12833A22
:1050A000882A010000220010CDCCCC3D982A0100B6
:1050B00098210010A82A0100C0210010B82A010080
:1050C000AC210010C82A0100CC210010D82A010010
:1050D000301D0010E42A0100E01C0010F02A01003D
:1050E000EC210010FC2A0100B64A1360FB79B64A95
:1050F0004FF0000142F82310FB791B01D833B24A6C
:1051000013440433B14A1C46134607CB2060616048
:10511000A260FB795A1CFA719B00AB4A1344AC4A5B
:105120001360FB79A84A4FF0000142F82310FB7985
:105130001B01D833A44A13440433A6491A460B462C
:1051400003CB106051601B781372FB795A1CFA7103
:105150009B009D4A1344A04A1360FB799A4A4FF082
:10516000000142F82310FB791B01D833964A1344FF
:1051700004339A4A1C46134607CB20606160A26044
:10518000FB795A1CFA719B008F4A1344944A1360AE
:10519000FB798D4A4FF0000142F82310FB791B0187
:1051A000D833894A134404338E4A1D4614460FCC23
:1051B00028606960AA60EB6023782B74FB795A1C25
:1051C000FA719B00804A1344874A1360FB797E4A38
:1051D000864942F82310FB791B01D8337A4A1344DD
:1051E0000433834A1C46134607CB20606160A260EB
:1051F000FB795A1CFA719B00734A13447D4A136071
:10520000FB79714A4FF0000142F82310FB791B0132
:10521000D8336D4A1344043377491A460B4603CBFF
:10522000106051601B881381FB795A1CFA719B0036
:10523000654A1344714A1360FB79634A704942F826
:105240002310FB791B01D8335F4A134404336D4AA2
:105250001C46134607CB20606160A260FB795A1C94
:10526000FA719B00584A1344674A1360FB79564A07
:10527000634942F82310FB791B01D833524A134487
:105280000433624A1C46134607CB20606160A2606B
:10529000FB795A1CFA719B004B4A13445C4A136019
:1052A000FB79494A5B4942F82310FB791B01D8334B
:1052B000454A13440433584A1C46134607CB206022
:1052C0006160A2601B782373FB795A1CFA719B0002
:1052D0003D4A1344514A1360FB793B4A4D4942F819
:1052E0002310FB791B01D833374A134404334C4A4B
:1052F0001C46134607CB20606160A2601B88A38117
:10530000FB795A1CFA719B002F4A1344454A1360DB
:10531000FB792D4A444942F82310FB791B01D8330D
:10532000294A1344043341491A460B4603CB106003
:1053300051601B881381FB795A1CFA719B00224A29
:1053400013443B4A1360FB791F4A374942F8231044
:10535000FB791B01D8331C4A13440433354A1C46DD
:10536000134607CB20606160A2601A889B78A281F7
:10537000A373FB795A1CFA719B00134A13442E4AFB
:105380001360FB79104A1E4942F82310FB791B0178
:10539000D8330D4A13440433284A1C46134607CB1E
:1053A00020606160A2601B782373FB795A1CFA713C
:1053B0009B00054A1344224A1360FB79024A4FF0CE
:1053C00000013FE0DC1C0010441D0010082B010010
:1053D000B0210010142B010090210010202B01009F
:1053E000E02100102C2B0100F02100100000E04013
:1053F000402B0100E82100104C2B0100C4210010BB
:105400000000A040582B0100D0210010642B0100A7
:10541000A02100100000C841702B0100E41C001006
:10542000802B0100D81C001000002041902B0100AF
:10543000DC2100109C2B0100E4210010AC2B0100AA
:10544000D421001042F82310FB791B01D8330C4AF9
:10545000134404330B491A460B4603CB10605160CA
:1054600019889B7811819372FB795A1CFA719B0001
:10547000034A1344044A13600C37BD46B0BC70475E
:10548000441D0010BC2B0100381D001080B500AF7A
:10549000134B0D221A70124B32225A70104B0222FB
:1054A0009A700F4B40221A710D4B40225A710C4BCF
:1054B0000422DA700B4B5A229A770A4B4FF4FA7295
:1054C0009A81084B42F65C32DA81064B4FF6FF7246
:1054D0001A82FFF7E3F80448DC2106F0E7F880BD04
:1054E000981B0010EC1C0010441D00100000000070
:1054F0002DE9F04FEFB00CAF0023C7F88031002347
:10550000A7F87E310023A7F87C310023A7F8783173
:10551000D04804F003FAC7F88401D7F88431002B8F
:1055200000F0A88500F095BDD7F880315A1CC7F867
:105530008021C84AD35C87F8773197F8771107F153
:10554000600207F154030020FEF7E8FB0346002B3E
:1055500000F07F8507F16003DB795A2B00F2788534
:1055600001A252F823F000BFD556000051600000A0
:105570005160000051600000516000005160000067
:105580005160000051600000516000005160000057
:1055900051600000CF5800005160000051600000D1
:1055A0005160000051600000516000005160000037
:1055B000516000005160000051600000FB5A000083
:1055C00051600000035B000051600000516000006A
:1055D0005160000051600000516000005160000007
:1055E000516000005160000051600000BF5C00008D
:1055F00051600000516000005160000051600000E7
:1056000051600000A95E00008D5F00005160000045
:1056100051600000515F0000235E000051600000F7
:1056200051600000516000005160000051600000B6
:1056300051600000516000005160000051600000A6
:105640005160000051600000536000005160000094
:105650005160000051600000516000005160000086
:105660005160000051600000516000005160000076
:10567000516000005160000051600000755C000046
:105680005160000051600000516000005160000056
:105690005160000051600000DD56000051600000C4
:1056A0005160000051600000516000005160000036
:1056B0005160000051600000516000005160000026
:1056C0005160000051600000516000005160000016
:1056D0000359000001F072FF00F0BBBC07F160024B
:1056E00007F10C0310461946FEF730FF01F04EFF9C
:1056F00007F10C039B8B732B00F0C880732B0DDC20
:10570000152B32D0152B04DC112B4FD0142B3ED08F
:10571000C1E0162B17D0712B67D0BCE0F52B00F041
:10572000B180F52B05DCC82B00F0B280F12B78D0CE
:10573000B1E0FC2B49D0B3F5C87F00F0AB80F62B6D
:1057400000F09980A7E0444B1B78002B0CD0434B12
:1057500003225A70414B01229A70404B0122DA70A9
:105760003F4B00221A7096E095E03B4B1B78002BD4
:105770000CD03A4B04225A70384B01229A70374BA6
:105780000122DA70364B00221A7084E083E0324B3B
:105790001B78002B09D0314B01225A702F4B01226C
:1057A0009A702E4B0322DA7075E074E02A4B1B7856
:1057B000002B09D0294B01225A70284B01229A70E4
:1057C000264B0122DA7066E065E007F10C031B69E5
:1057D000244A136007F10C035B69224A536007F106
:1057E0000C039B691F4A936055E007F10C039B690A
:1057F00018461D490CF044FE0346002B00D14AE038
:1058000007F10C039B69184618490CF057FE034634
:10581000002B00D13FE007F10C039B69114A936014
:1058200039E007F10C035B6818464FF07E510CF02D
:105830001DFE0346002B01D0FDF78AFF07F10C0384
:105840001B6918464FF07E510CF010FE0346002BEA
:105850000ED120E080050010041C0010281C001050
:10586000D0040010B41B00100000C842000020C18A
:10587000FDF7B2FE0FE0BA48DC2105F027FFFEF786
:1058800007F908E0B74B01221A6004E000BF02E00C
:1058900000BF00E000BFB44B9A78B34B1C79B24B09
:1058A0005B791946B04BDB780091019300201146DB
:1058B00000222346FEF722FC07F10C039B8B0020FD
:1058C00019460022FEF752FE04F0A8F8C1E307F1E2
:1058D00060031846FEF73CFC03461A46A24B1A71B9
:1058E00007F160031846FEF741FC03461A469F4B3A
:1058F0001A600020B0210022FEF738FE04F08EF876
:10590000A7E307F160031846FEF74AFE0346184670
:105910000BF0A4FF02460B46104619468EA3D3E9AE
:1059200000230BF0EFFF02460B46104619460CF021
:10593000ABFA02468E4B1A6007F160031846FEF779
:105940003DFE034618460BF089FF02460B46104603
:10595000194681A3D3E900230BF0D4FF02460B467E
:10596000104619460CF090FA0246814B5A6007F136
:1059700060031846FEF730FE034618460BF06EFF34
:1059800002460B461046194673A3D3E900230BF0D9
:10599000B9FF02460B46104619460CF075FA02464E
:1059A000734B9A60724B9B68184672490CF086FDE7
:1059B0000346002B09D06E4B9B6818466E490CF0CD
:1059C000B7FA03461A466A4B9A6007F16003184615
:1059D000FEF71EFE034618460BF040FF02460B463C
:1059E000104619465CA3D3E900230BF08BFF024657
:1059F0000B46104619460CF047FA02465C4BDA603B
:105A000007F160031846FEF711FE034618460BF037
:105A100025FF02460B46104619464FA3D3E9002343
:105A20000BF070FF02460B46104619460CF02CFA9C
:105A300002464F4B1A6107F160031846FEF7DAFD84
:105A4000034618460BF00AFF02460B46104619465D
:105A500041A3D3E900230BF055FF02460B46104645
:105A600019460CF011FA0246414B5A6107F16003E6
:105A70001846FEF7E9FD034618460CF00FFB0246F8
:105A80003E4B1A6007F160031846FEF7EBFD034634
:105A900018460CF003FB0246384B5A6007F16003CE
:105AA0001846FEF7EDFD034618460CF0F7FA0346DC
:105AB00018460BF0D3FE02460B46104619464FF02F
:105AC00000022F4B0CF048F802460B4614461D46C8
:105AD0002C4B1B6818460BF0C1FE02460B462046B5
