:10000000FC1D0010F19900005D9A00005D9A00004F
:100010005D9A00005D9A00005D9A000000000000FB
:100020000000000000000000000000005D9A0000D9
:100030005D9A0000000000005D9A00005D9A0000DB
:100040005D9A00005D9A00005D9A00004D0100007D
:100050005D9A00005D9A00005D9A00005D9A0000C4
:100060005D9A00005D9A00005D9A00005D9A0000B4
:100070005D9A00005D9A00005D9A00005D9A0000A4
:100080005D9A00005D9A00005D9A0000E99800000A
:100090005D9A0000B99700005D9A00005D9A00002B
:1000A0005D9A00005D9A0000918800005D9A000052
:1000B0005D9A0000E50100005D9A00005D9A000075
:1000C0005D9A00005D9A00005D9A000080B500AF67
:1000D00000F004F800F048F880BD00BF80B586B09D
:1000E00000AF4FF001033B744FF064037B614FF0AE
:1000F00000033B714FF000037B714FF00103FB7174
:100100004FF00003BB714FF000033B724FF4A84364
:10011000C2F6EA23FB6007F110034FF040204FF0D6
:1001200000011A4602F010FB07F104034FF04020D3
:10013000194602F02BFC4FF040204FF0010102F075
:10014000E9FB07F11807BD4680BD00BF80B500AFD1
:100150004FF00000C4F209004FF0000102F0A4FAD1
:1001600005F0D0FE80BD00BF80B586B000AF4FF077
:1001700001033B744FF001037B614FF000033B71BF
:100180004FF000037B714FF00103FB714FF0000350
:10019000BB714FF000033B724FF43453C0F2311384
:1001A000FB6007F110034FF00000C4F209004FF0AC
:1001B00000011A4602F0C8FA07F104034FF00000EC
:1001C000C4F20900194602F0E1FB4FF00000C4F24E
:1001D00009004FF0010102F09DFB07F11807BD4631
:1001E00080BD00BF80B500AF4FF00000C4F20B002F
:1001F00003F022FD40F28043C1F200034FF0010200
:100200001A7080BD80B400AF4FF040239B68184641
:10021000BD4680BC704700BFB0B500AFFFF7F2FF2E
:10022000024640F20003C1F200031A6040F20003EC
:10023000C1F200031A684CF6CD43CCF6CC43A3FBC5
:1002400002134FEAD30240F28843C1F200031A605E
:1002500040F28843C1F200031B68A3F57A7240F2B2
:100260009043C1F200031B689A4210D940F28043C8
:10027000C1F200034FF001021A7040F28843C1F24C
:1002800000031A6840F29043C1F200031A6040F282
:100290008843C1F200031B68A3F10A0240F28C43B9
:1002A000C1F200031B689A4210D940F28143C1F2A7
:1002B00000034FF001021A7040F28843C1F20003BC
:1002C0001A6840F28C43C1F200031A6040F288437E
:1002D000C1F200031B68A3F1140240F29443C1F27F
:1002E00000031B689A4210D940F28243C1F2000316
:1002F0004FF001021A7040F28843C1F200031A68FD
:1003000040F29443C1F200031A6040F28843C1F204
:1003100000031B68A3F1640240F29843C1F200039A
:100320001B689A4210D940F28343C1F200034FF098
:1003300001021A7040F28843C1F200031A6840F2C9
:100340009843C1F200031A6040F28843C1F20003EF
:100350001B68A3F1320240F29C43C1F200031B6808
:100360009A4210D940F28443C1F200034FF00102D7
:100370001A7040F28843C1F200031A6840F29C43AD
:10038000C1F200031A6040F28843C1F200031B6807
:10039000A3F1C80240F2A043C1F200031B689A42D5
:1003A00010D940F28543C1F200034FF001021A70E8
:1003B00040F28843C1F200031A6840F2A043C1F240
:1003C00000031A6040F20003C1F200031B681846E4
:1003D00012F06EF9044641F24413C1F200031B68A7
:1003E0001B681B48194612F06FFA0346204619464F
:1003F00012F0ACF803461D4640F2A443C1F20003DC
:100400001B68184612F054F903464FF001021446D7
:100410002846194612F060FB0346002B02D14FF02C
:1004200000031C46E3B2002B10D040F28643C1F219
:1004300000034FF001021A7040F20003C1F2000302
:100440001A6840F2A443C1F200031A60B0BD00BFB5
:1004500000401C4680B500AF4FF077004FF01E0102
:1004600000F0EEFA80BD00BF80B582B000AF4FF063
:100470000003FB714FF00A0005F062FD4FF000032E
:10048000FB712EE0FB7903F15103DBB24FEA43032A
:10049000DBB207F104024FF0770011461A464FF025
:1004A000020300F0FFFA0346BB71BB79002B04D1B5
:1004B0000EF050F8FFF7D8FF16E0FB7903F10102C8
:1004C0003B794FEA032399B27B79CB1899B240F27A
:1004D000B043C1F2000323F81210FB7903F10103CA
:1004E000FB71FB79052BCDD907F10807BD4680BD0F
:1004F00080B500AF4FF00A0005F022FDFFF7AAFF1C
:100500004FF0640005F01CFDFFF7AEFF80BD00BF9B
:1005100080B582B000AF4FF077004FF0580100F087
:100520008FFA0346FB71FB79002B04D10EF012F811
:10053000FFF7EEFF00BF07F10807BD4680BD00BF13
:1005400080B582B000AF4FF077004FF0480100F067
:1005500077FA0346FB71FB79002B04D10DF0FAFF0B
:10056000FFF7EEFF00BF07F10807BD4680BD00BFE3
:1005700080B582B000AF07F104034FF07700194651
:100580004FF000024FF0030300F08CFA0346FB71BA
:10059000FB79002B04D10DF0DDFFFFF7E9FF11E03F
:1005A0003A7940F2B043C1F200039A757A7940F289
:1005B000B043C1F200035A75BA7940F2B043C1F2B8
:1005C00000031A7507F10807BD4680BD80B582B0EB
:1005D00000AF07F104034FF0770019464FF0000217
:1005E0004FF0030300F05EFA0346FB71FB79002B2A
:1005F00004D10DF0AFFFFFF7E9FF11E03A7940F2C7
:10060000B043C1F200039A747A7940F2B043C1F268
:1006100000035A74BA7940F2B043C1F200031A746D
:1006200007F10807BD4680BD2DE9900F8CB000AFE3
:1006300040F2B043C1F200031A6940F2B043C1F284
:1006400000035B894FEA0323D11A0A464FF00003E7
:10065000C7E90A2340F2B043C1F200039B884FEA86
:1006600003433B614FF00000786140F2B043C1F2B8
:1006700000031B8998B24FF00001BB6A01FB03F233
:10068000FB6A00FB03F3D418BB6AA3FB0023E11849
:100690000B464FEA43614FEAD21841EA08084FEA95
:1006A000E319D7E9042312EB080243EB0903C7E976
:1006B000082340F2B043C1F200035B884FEAC33322
:1006C00098464FF0000940F2B043C1F20003DB88C6
:1006D00098B24FF00001BB6A01FB03F2FB6A00FB1A
:1006E00003F3D418BB6AA3FB0023E1180B464FEABF
:1006F00003614FEA122A41EA0A0A4FEA232B4246D3
:100700004B4612EB0A0243EB0B03C7E9062340F208
:10071000B043C1F200035B6918464FF00001BB69AA
:1007200001FB03F2FB6900FB03F3D418BB69A3FBD5
:100730000023E1180B464FEAC3214FEA5250B8603C
:10074000B8680843B8604FEA6351F960D7E90823F5
:10075000D7E90201821A61EB03034FEA43414FEAF2
:10076000D23038603868084338604FEAE331796046
:100770003A6840F20403C1F200031A6007F130073F
:10078000BD46BDE8900F70472DE9B04382B000AF81
:100790007860786811F08CFF024640F2D043C1F2D5
:1007A00000031B681046194611F0D2FE03461A4694
:1007B00040F2D043C1F200031A6040F2B043C1F2EC
:1007C0000003DA697B689A4205D940F2A843C1F276
:1007D00000031B6810E140F2B043C1F200034FF088
:1007E0000A02DA6140F2B043C1F200031B7E032B20
:1007F00000F2FD8001A252F823F000BF0D080000B6
:100800003B0800005B08000089080000FFF780FE3D
:1008100040F2B043C1F200031B7E03F10103DAB2E0
:1008200040F2B043C1F200031A7640F2B043C1F285
:1008300000034FF00A02DA61D9E0FFF7C7FE40F289
:10084000B043C1F200031B7E03F10103DAB240F2B0
:10085000B043C1F200031A76C9E0FFF771FE40F21F
:10086000B043C1F200031B7E03F10103DAB240F290
:10087000B043C1F200031A7640F2B043C1F2000364
:100880004FF00A02DA61B2E0FFF772FEFFF7CCFE2A
:1008900040F20403C1F200031B68184611F008FF80
:1008A000034618465E4912F00FF80346184611F049
:1008B000E3FA02460B461046194653A3D3E9002338
:1008C0000EF064F902460B464FF000004FF07E51E7
:1008D00001F5E00111F070F902460B461046194689
:1008E0004BA3D3E9002311F01BFB02460B46104635
:1008F000194611F0D7FD024640F2A843C1F20003A9
:100900001A6040F2B043C1F200034FF000021A76C1
:1009100040F2B043C1F200034FF00A02DA6140F244
:10092000AC43C1F200031B68184611F0A5FA024659
:100930000B461046194638A3D3E9002311F0F0FA0C
:1009400002460B4614461D4640F2A843C1F200037E
:100950001A6840F2D443C1F200031B6810461946DE
:1009600011F0F4FD0346184611F086FA02460B46D4
:10097000104619464FF000024FF0804303F5D203B2
:1009800011F0CEFA02460B469046994640F2D0430B
:10099000C1F200031B68184611F06EFA02460B46BE
:1009A0004046494611F0E6FB02460B4620462946E2
:1009B00011F004F902460B461046194611F072FD7B
:1009C000024640F2AC43C1F200031A6040F2A84371
:1009D000C1F200031A6840F2D443C1F200031A6066
:1009E00040F2D043C1F200030E4A1A6000BF40F249
:1009F000A843C1F200031B68184607F10807BD466B
:100A0000BDE8B083AFF3008000000020965BC83FD4
:100A10000000000040A5E5409A9999999999E93F0D
:100A200080E6C5470000000080B400AF40F2AC4350
:100A3000C1F200031B681846BD4680BC704700BF6A
:100A400080B58EB000AF02460B46FA71BB71BB7920
:100A50003B72FB79FB6007F108033B614FF0010338
:100A60007B614FF00003FB614FF000033B624FF0EE
:100A70000503BB6207F10C034FF44040C4F20500CC
:100A800019464FF0000209F07BFC0346002B02D10F
:100A90004FF0000301E04FF00103184607F138075B
:100AA000BD4680BD80B58EB000AF39600146F9719A
:100AB000BA71BB80BB793B72FB79FB6007F108031D
:100AC0003B614FF001037B613B68FB61BB883B628C
:100AD0004FF00503BB6207F10C034FF44040C4F232
:100AE000050019464FF0000209F04AFC0346002BAE
:100AF00002D14FF0000301E04FF00103184607F167
:100B00003807BD4680BD00BFB0B500AF41F66C13DD
:100B1000C1F200035A8840F60463C1F200031A8050
:100B200041F66C13C1F200039A8840F60463C1F2E7
:100B300000035A8041F66C13C1F200031A8940F693
:100B40000463C1F200039A8041F66C13C1F2000302
:100B5000DA8840F60463C1F20003DA8040F60463E9
:100B6000C1F20003DB881AB240F22D439A4200F32F
:100B70008A8040F60463C1F200039B881BB2B3F580
:100B8000E16F13DD40F63C63C1F200031B78002BDC
:100B90000CD140F21053C1F200031B6803F10102B3
:100BA00040F21053C1F200031A601CE040F60463E7
:100BB000C1F200039B881AB240F2AF439A4212DCA2
:100BC00040F63C63C1F200031B78002B0BD040F2CF
:100BD0001053C1F200031B6803F1FF3240F21053BF
:100BE000C1F200031A6040F21053C1F200031B6807
:100BF000312B2CDD40F63C63C1F200031B78002B47
:100C000025D140F63C63C1F200034FF001021A7097
:100C100040F62C63C1F200039A6840F2D843C1F257
:100C200000031B681046194611F092FC03461A4651
:100C300040F2D843C1F200031A6040F21053C1F2EF
:100C400000034FF032021A6002F010FE1BE040F287
:100C50001053C1F200031B68002B14DC40F63C6308
:100C6000C1F200031B78002B0DD040F63C63C1F2AB
:100C700000034FF000021A7040F21053C1F200035B
:100C80004FF000021A6041F66C13C1F200035B8959
:100C90001AB240F2E2439A4218DD41F66C13C1F2F7
:100CA00000035B891AB240F2D5639A420EDC40F62B
:100CB0003C63C1F200034FF001025A7040F63C63FE
:100CC000C1F200034FF000029A7030E041F66C135D
:100CD000C1F200035B891AB240F2D5639A4218DD73
:100CE00041F66C13C1F200035B891AB240F6970318
:100CF0009A420EDC40F63C63C1F200034FF0010261
:100D00005A7040F63C63C1F200034FF001029A7042
:100D10000DE040F63C63C1F200034FF000025A7050
:100D200040F63C63C1F200034FF000029A7041F2BA
:100D3000E843C1F200031B681B68184611F0D6FE99
:100D4000024640F21453C1F200031A6040F21453F9
:100D5000C1F200031B68002B40F3958040F214534E
:100D6000C1F200031B680B2B00F38D8041F66C135E
:100D7000C1F20003DB891BB2A3F57A73184611F0A8
:100D80009BFC044641F2C043C1F200031B681A6891
:100D900041F20453C1F200031B681B681046194658
:100DA00011F0D4FB03462046194611F0D9FC034646
:100DB0001846DFF8E41511F087FD03461A4640F2A5
:100DC0001853C1F200031A6041F2C043C1F200039C
:100DD0001B681A6840F21853C1F200031B684FF0F9
:100DE00001010C461046194611F058FE0346002B2F
:100DF00002D14FF000031C46E3B2002B0BD041F2AE
:100E0000C043C1F200031B681A6840F21853C1F2D4
:100E100000031A6025E041F20453C1F200031B688D
:100E20001A6840F21853C1F200031B684FF0010129
:100E30000C461046194611F04FFE0346002B02D116
:100E40004FF000031C46E3B2002B0AD041F20453DA
:100E5000C1F200031B681A6840F21853C1F2000384
:100E60001A6040F21453C1F200031B6803F1FF3211
:100E700040F21853C1F20003196841F27413C1F231
:100E8000000343F8221041F2E443C1F200031B685F
:100E90001B68184611F02AFE024640F21453C1F2B4
:100EA00000031A6040F21453C1F200031B68002BC8
:100EB00040F3958040F21453C1F200031B680C2BE1
:100EC00000F38D8041F66C13C1F200039B891BB2C5
:100ED000A3F57A73184611F0EFFB044641F2EC4398
:100EE000C1F200031B681A6841F2D043C1F200034B
:100EF0001B681B681046194611F028FB0346204664
:100F0000194611F02DFC03461846DFF88C1411F039
:100F1000DBFC03461A4640F21853C1F200031A6084
:100F200041F2EC43C1F200031B681A6840F2185307
:100F3000C1F200031B684FF001010C461046194630
:100F400011F0ACFD0346002B02D14FF000031C460C
:100F5000E3B2002B0BD041F2EC43C1F200031B685B
:100F60001A6840F21853C1F200031A6025E041F2FA
:100F7000D043C1F200031B681A6840F21853C1F253
:100F800000031B684FF001010C461046194611F092
:100F9000A3FD0346002B02D14FF000031C46E3B231
:100FA000002B0AD041F2D043C1F200031B681A683B
:100FB00040F21853C1F200031A6040F21453C1F218
:100FC00000031B6803F1FF3240F21853C1F2000323
:100FD000196841F27413C1F2000343F8221040F67D
:100FE0003C63C1F200031B784FEAC313DBB243F04A
:100FF0001003DAB240F63C63C1F200035B784FEABB
:10100000C303DBB21343DAB240F63C63C1F2000320
:101010009B784FEA8303DBB21343DBB2DAB240F6CC
:10102000F053C1F200031A7140F63C63C1F20003B1
:101030009B78002B7ED040F60063C1F200031B6852
:101040001B684FF0010214461846D44911F03AFDCE
:101050000346002B02D14FF000031C46E3B2002BE5
:1010600014D040F6AC43C1F200031A6840F6806326
:10107000C1F200031A6040F6B043C1F200031A68DF
:1010800040F68063C1F200035A6091E040F60463C9
:10109000C1F200031B881BB2A3F5BA63A3F10C03D2
:1010A000184611F009FB024640F6FC53C1F200035A
:1010B0001B681B681046194611F006FC03461A46C9
:1010C00040F6AC43C1F200031B681046194611F00C
:1010D0003FFA03461A4640F68063C1F200031A60E5
:1010E00040F6B043C1F200031C6840F60463C1F24D
:1010F00000035B881BB2A3F5BA63A3F10C03184687
:1011000011F0DAFA024640F6FC53C1F200031B6804
:101110001B681046194611F0D7FB034620461946B6
:1011200011F014FA03461A4640F68063C1F2000338
:101130005A603DE040F60463C1F200031B881BB215
:10114000A3F5BA63A3F10C03184611F0B5FA0246F1
:1011500040F6FC53C1F200031B681B681046194699
:1011600011F0B2FB03461A4640F68063C1F2000359
:101170001A6040F60463C1F200035B881BB2C3F53A
:10118000BA6303F10C03184611F096FA024640F6D2
:10119000FC53C1F200031B681B681046194611F08E
:1011A00093FB03461A4640F68063C1F200035A607F
:1011B00040F60463C1F200039B881BB2A3F5BA6337
:1011C000A3F10C03002BB8BF5B421E2B40F39880A9
:1011D00040F60463C1F20003DB881BB2184611F02D
:1011E0006BFA024641F21053C1F200031B681B6800
:1011F0004FF001010C461046194611F06DFC0346F4
:10120000002B02D14FF000031C46E3B2002B77D035
:1012100040F68063C1F200039C6840F6EC53C1F2D3
:1012200000031B681D6840F60463C1F200039B883D
:101230001BB2A3F5BA63A3F10C03184611F03CFAF4
:1012400003462846194611F08BFA034618465249C0
:1012500011F03AFB03462046194611F079F903468E
:101260001A4640F68063C1F200039A6040F680633C
:10127000C1F200039B684FF001021446184648492A
:1012800011F02AFC0346002B02D14FF000031C464C
:10129000E3B2002B0FD040F68063C1F200039B68DD
:1012A0001846404911F052F903461A4640F6806349
:1012B000C1F200039A6040F68063C1F200039B68AC
:1012C0004FF0010214461846374911F0F1FB03466E
:1012D000002B02D14FF000031C46E3B2002B0FD0CD
:1012E00040F68063C1F200039B6818462D4911F057
:1012F0002FF903461A4640F68063C1F200039A6054
:1013000040F63C63C1F200035B78002B43D040F60B
:101310000463C1F20003DB881AB240F20C03C1F28D
:1013200000031B68D21A40F21C53C1F200031A607A
:1013300040F21C53C1F200031B68002BB8BF5B4294
:10134000502B28DD40F60C63C1F200039C6840F688
:10135000F853C1F200031B681D6840F21C53C1F230
:1013600000031B68184611F0A7F9034628461946E2
:1013700011F0F6F9034618460C4911F0A5FA034698
:101380002046194611F0E4F803461A4640F60C636D
:10139000C1F200039A60B0BD00007A440000803FB3
:1013A000000034430000B443000034C300409C46B6
:1013B00080B400AF40F63C63C1F200034FF000027E
:1013C0005A7040F63C63C1F200034FF000021A70FD
:1013D00040F63C63C1F200034FF000029A70BD4634
:1013E00080BC70470000000098B500AF4FF00003CC
:1013F000C4F209039B681A4640F2F043C1F20003AD
:101400001A6040F2F043C1F200031A6840F2F4435C
:10141000C1F200031B689A4228D240F2F043C1F2A5
:1014200000031A6840F2F443C1F200031B68D21AA9
:101430004FF43453C0F23113D318184610F0FAFCAD
:1014400002460B46104619465FA3D3E9002310F06D
:1014500091FE02460B461046194611F023F802464B
:1014600040F21403C1F200031A6022E040F2F0439C
:10147000C1F200031A6840F2F443C1F200031B6892
:10148000D31A184610F0D6FC02460B4610461946F1
:101490004DA3D3E9002310F06DFE02460B46104623
:1014A000194610F0FFFF024640F21403C1F2000398
:1014B0001A6040F2F043C1F200031A6840F2F443AC
:1014C000C1F200031A6040F60463C1F20003DB8836
:1014D0001BB2184611F0F0F8024641F21053C1F267
:1014E00000031B681B684FF001010C4610461946AB
:1014F00011F0D4FA0346002B02D14FF000031C4632
:10150000E3B2002B66D040F60463C1F20003DA8830
:1015100041F66413C1F20003DA8041F66413C1F2AC
:101520000003DA8841F66413C1F200039A8041F6A1
:101530006413C1F200039A8841F66413C1F20003F8
:101540005A8041F66413C1F200035A8841F66413CD
:10155000C1F200031A8040F65863C1F200039A6892
:1015600040F68063C1F200039A6040F2DC43C1F2AE
:101570000003174A1A6040F2DC43C1F200031A6804
:1015800040F2F843C1F200031A6040F2F843C1F29E
:1015900000031A6840F2FC43C1F200031A6040F2F3
:1015A000FC43C1F200031A6840F20053C1F2000389
:1015B0001A6040F62C63C1F200039A6840F60C638F
:1015C000C1F200039A60DDE20000000080842E4139
:1015D0000000000040F68063C1F200039A6840F604
:1015E0005863C1F200039B681046194610F0AEFF25
:1015F00003461A4640F20453C1F200031A6040F257
:101600000453C1F200031B684FF001021446184650
:10161000DFF8781511F060FA0346002B02D14FF085
:1016200000031C46E3B2002B10D040F20453C1F279
:1016300000031B681846DFF8581510F087FF0346B3
:101640001A4640F20453C1F200031A6040F20453F8
:10165000C1F200031B684FF0010214461846DFF880
:10166000341511F025FA0346002B02D14FF0000388
:101670001C46E3B2002B10D040F20453C1F2000329
:101680001B681846DFF8081510F062FF03461A467B
:1016900040F20453C1F200031A6040F68063C1F2C5
:1016A00000031A6840F65863C1F200031B68104635
:1016B000194610F04BFF03461A4640F20853C1F298
:1016C00000031A6040F68063C1F200035A6840F6D6
:1016D0005863C1F200035B681046194610F036FFEC
:1016E00003461A4640F20C53C1F200031A6041F25D
:1016F0004C13C1F200031B681A6840F20853C1F290
:1017000000031B681046194611F02AF803461A46D2
:1017100040F21403C1F200031B681046194611F091
:101720001FF803461A4640F20053C1F200031B683B
:101730001046194610F00CFF03461A4640F20053BB
:10174000C1F200031A6041F26413C1F200031B6886
:1017500040F20050C1F20000194600F021FA41F2B7
:101760004C13C1F200031B681A6840F20C53C1F21B
:1017700000031B681046194610F0F2FF03461A4694
:1017800040F21403C1F200031B681046194610F022
:10179000E7FF03461A4640F2FC43C1F200031B6810
:1017A0001046194610F0D4FE03461A4640F2FC4398
:1017B000C1F200031A6041F26413C1F200031B6816
:1017C00040F2FC40C1F20000194600F0E9F941F294
:1017D0005413C1F200031B681A6840F20453C1F2AB
:1017E00000031B681046194610F0BAFF03461A465C
:1017F00040F21403C1F200031B681046194610F0B2
:10180000AFFF03461A4640F2F843C1F200031B68DB
:101810001046194610F09CFE03461A4640F2F84363
:10182000C1F200031A6041F21813C1F200031B68F1
:1018300040F2F840C1F20000194600F0B1F941F25F
:10184000FC43C1F200031B681A6840F20853C1F25E
:1018500000031B681046194610F082FF03461A4623
:1018600040F20053C1F200031B681046194610F005
:101870006FFE03461C4641F2F043C1F200031B68B1
:101880001A6840F65863C1F20003DB681046194637
:1018900010F066FF03462046194610F057FE034637
:1018A0001A4640F61C63C1F200031A6041F2FC4381
:1018B000C1F200031B681A6840F20C53C1F2000326
:1018C0001B681046194610F04BFF03461A4640F2BB
:1018D000FC43C1F200031B681046194610F038FEA5
:1018E00003461C4641F2F043C1F200031B681A682C
:1018F00040F65863C1F200031B691046194610F008
:101900002FFF03462046194610F020FE03461A46D4
:1019100040F61C63C1F200035A6041F26C13C1F23D
:1019200000031B681A6840F20453C1F200031B68ED
:101930001046194610F014FF03461A4640F2F843C9
:10194000C1F200031B681046194610F001FE034661
:101950001C4641F2E043C1F200031B681A6840F6DE
:101960005863C1F200035B691046194610F0F8FE97
:1019700003462046194610F0E9FD03461A4640F694
:101980001C63C1F200039A6040F63C63C1F200039D
:101990005B78002B0ED040F20803C1F200031B68F5
:1019A000184610F089FE024640F61C63C1F200039F
:1019B000DA6029E040F60463C1F20003DB881BB261
:1019C000184610F079FE024640F61C63C1F200038F
:1019D000DA6040F2DC43C1F200036F4A1A6040F65D
:1019E0000463C1F20003DB881AB240F20C03C1F2B7
:1019F00000031A6040F62C63C1F200039A6840F6B7
:101A00000C63C1F200039A6000F008F940F61C6311
:101A1000C1F20003DA6840F61C63C1F200035B68A0
:101A20001046194610F094FD03461A4640F61C6312
:101A3000C1F200031B681046194610F089FD0346E9
:101A40001A4640F61C63C1F200039B681046194613
:101A500010F07CFD0346184611F048F803469AB290
:101A600041F66413C1F200039A8040F61C63C1F290
:101A70000003DA6840F61C63C1F200035B6810469D
:101A8000194610F065FD03461A4640F61C63C1F284
:101A900000031B681046194610F058FD03461A460D
:101AA00040F61C63C1F200039B681046194610F013
:101AB0004FFD0346184611F019F803469AB241F655
:101AC0006413C1F200035A8040F61C63C1F20003A4
:101AD000DA6840F61C63C1F200035B6810461946E1
:101AE00010F034FD03461A4640F61C63C1F20003B1
:101AF0001B681046194610F02BFD03461A4640F6A7
:101B00001C63C1F200039B681046194610F020FDCB
:101B10000346184610F0EAFF03469AB241F66413F2
:101B2000C1F20003DA8040F61C63C1F20003DA68F8
:101B300040F61C63C1F200035B681046194610F0C2
:101B400005FD03461A4640F61C63C1F200031B68FC
:101B50001046194610F0FAFC03461A4640F61C637C
:101B6000C1F200039B681046194610F0EFFC0346D3
:101B7000184610F0BBFF03469AB241F66413C1F257
:101B800000031A8000F03AF998BD00BF000034430A
:101B90000000B443000034C300000000AFF3008035
:101BA00090B583B000AF786039607B681A683B6895
:101BB0001B684FF001010C461046194610F08CFFCF
:101BC0000346002B02D14FF000031C46E3B2002B6A
:101BD00004D03B681A687B681A601BE07B681A684F
:101BE0003B681B6883F000434FF001010C46104630
:101BF000194610F053FF0346002B02D14FF00003AB
:101C00001C46E3B2002B05D03B681B6883F0004202
:101C10007B681A6007F10C07BD4690BD98B500AF10
:101C200040F61C63C1F200031B684FF0010214462A
:101C300018466F4910F050FF0346002B02D14FF0B9
:101C400000031C46E3B2002B06D040F61C63C1F231
:101C50000003674A1A601AE040F61C63C1F20003F1
:101C60001B684FF0010214461846624910F016FF37
:101C70000346002B02D14FF000031C46E3B2002BB9
:101C800005D040F61C63C1F200035A4A1A6040F6C0
:101C90001C63C1F200035B684FF001021446184652
:101CA000534910F019FF0346002B02D14FF00003F7
:101CB0001C46E3B2002B06D040F61C63C1F20003C1
:101CC0004B4A5A601AE040F61C63C1F200035B689D
:101CD0004FF0010214461846464910F0DFFE034655
:101CE000002B02D14FF000031C46E3B2002B05D0BD
:101CF00040F61C63C1F200033E4A5A6040F61C6382
:101D0000C1F200039B684FF001021446184638499F
:101D100010F0E2FE0346002B02D14FF000031C46F8
:101D2000E3B2002B06D040F61C63C1F20003304A38
:101D30009A601AE040F61C63C1F200039B684FF002
:101D40000102144618462B4910F0A8FE0346002B4A
:101D500002D14FF000031C46E3B2002B05D040F641
:101D60001C63C1F20003234A9A6040F61C63C1F26F
:101D70000003DB684FF00102144618461E4910F0BC
:101D8000ABFE0346002B02D14FF000031C46E3B22A
:101D9000002B06D040F61C63C1F20003164ADA603D
:101DA00025E040F61C63C1F20003DA6841F21053EB
:101DB000C1F200031B681B684FF001010C4610467E
:101DC000194610F06BFE0346002B02D14FF00003C2
:101DD0001C46E3B2002B0AD041F21053C1F20003BB
:101DE0001B681A6840F61C63C1F20003DA6098BDF4
:101DF00000004844000048C400C0DA4498B500AF71
:101E000040F60463C1F20003DB881BB2184610F0F1
:101E100053FC024641F21053C1F200031B681B68D9
:101E20004FF001010C461046194610F037FE0346EC
:101E3000002B02D14FF000031C46E3B2002B28D048
:101E400040F60463C1F20003DA8841F66413C1F27C
:101E50000003DA8041F66413C1F20003DA8841F628
:101E60006413C1F200039A8041F66413C1F20003C7
:101E70009A8841F66413C1F200035A8041F6641354
:101E8000C1F200035A8841F66413C1F200031A80BC
:101E900083E141F66413C1F200031B881BB21846AC
:101EA00010F00AFC024641F21053C1F200031B6815
:101EB0001B684FF001010C461046194610F0EEFD6C
:101EC0000346002B02D14FF000031C46E3B2002B67
:101ED00010D041F21053C1F200031B681B68184672
:101EE00010F004FE03469AB241F66413C1F20003F7
:101EF0001A802FE041F66413C1F200031B881BB265
:101F0000184610F0D9FB024641F21C13C1F200033F
:101F10001B681B684FF001010C461046194610F073
:101F2000DBFD0346002B02D14FF000031C46E3B259
:101F3000002B0FD041F21C13C1F200031B681B6879
:101F4000184610F0D3FD03469AB241F66413C1F26D
:101F500000031A8041F66413C1F200035B881BB2D0
:101F6000184610F0A9FB024641F21053C1F20003DB
:101F70001B681B684FF001010C461046194610F013
:101F80008DFD0346002B02D14FF000031C46E3B247
:101F9000002B10D041F21053C1F200031B681B68E4
:101FA000184610F0A3FD03469AB241F66413C1F23D
:101FB00000035A802FE041F66413C1F200035B88EE
:101FC0001BB2184610F078FB024641F21C13C1F216
:101FD00000031B681B684FF001010C4610461946B0
:101FE00010F07AFD0346002B02D14FF000031C468F
:101FF000E3B2002B0FD041F21C13C1F200031B68A7
:102000001B68184610F072FD03469AB241F664133D
:10201000C1F200035A8041F66413C1F200039B88A9
:102020001BB2184610F048FB024641F21053C1F2B1
:1020300000031B681B684FF001010C46104619464F
:1020400010F02CFD0346002B02D14FF000031C467C
:10205000E3B2002B10D041F21053C1F200031B6811
:102060001B68184610F042FD03469AB241F664130D
:10207000C1F200039A802FE041F66413C1F200031D
:102080009B881BB2184610F017FB024641F21C1346
:10209000C1F200031B681B684FF001010C4610469B
:1020A000194610F019FD0346002B02D14FF0000332
:1020B0001C46E3B2002B0FD041F21C13C1F2000307
:1020C0001B681B68184610F011FD03469AB241F6D2
:1020D0006413C1F200039A8041F66413C1F2000355
:1020E000DB881BB2184610F0E7FA024641F21053A3
:1020F000C1F200031B681B684FF001010C4610463B
:10210000194610F0CBFC0346002B02D14FF0000320
:102110001C46E3B2002B10D041F21053C1F2000371
:102120001B681B68184610F0E1FC03469AB241F6A2
:102130006413C1F20003DA802FE041F66413C1F2A8
:102140000003DB881BB2184610F0B6FA024641F2D3
:102150001C13C1F200031B681B684FF001010C4601
:102160001046194610F0B8FC0346002B02D14FF080
:1021700000031C46E3B2002B0FD041F21C13C1F246
:1021800000031B681B68184610F0B0FC03469AB2A7
:1021900041F66413C1F20003DA8098BD000000002C
:1021A000B0B582B000AFAE4B7B604FF00003C4F21D
:1021B00009039B681A4640F2E043C1F200031A602B
:1021C00040F2E043C1F200031A6840F2E443C1F276
:1021D00000031B689A4228D240F2E043C1F2000398
:1021E0001A6840F2E443C1F200031B68D21A4FF4AC
:1021F0003453C0F23113D31818460FF01BFE0246B9
:102200000B46104619468CA3D3E900230FF0B2FF0A
:1022100002460B461046194610F044F9024640F2B9
:102220001003C1F200031A6022E040F2E043C1F261
:1022300000031A6840F2E443C1F200031B68D31A9A
:1022400018460FF0F7FD02460B46104619467AA3D2
:10225000D3E900230FF08EFF02460B4610461946C5
:1022600010F020F9024640F21003C1F200031A6098
:1022700040F2E043C1F200031A6840F2E443C1F2C5
:1022800000031A6040F21003C1F200031B681846F5
:10229000744910F065FA0346184610F04DFC0346E9
:1022A0001846FEF771FA024640F2E843C1F2000315
:1022B0001A6040F62C63C1F200039B6818460FF0C9
:1022C000DBFD02460B46104619465DA3D3E9002309
:1022D0000FF026FE02460B4614461D4640F2E84328
:1022E000C1F200031A6840F2D843C1F200031B6830
:1022F0001046194610F02AF9034618460FF0BCFDA7
:1023000002460B46104619464FA3D3E900230FF0AF
:1023100007FE02460B46204629460FF04FFC0246B8
:102320000B461046194610F0BDF8024640F62C63E5
:10233000C1F200039A6040F6E053C1F200031B684B
:1023400018460FF099FD02460B461046194640A369
:10235000D3E900230FF0E4FD02460B4614461D4668
:10236000FEF762FB034618460FF086FD02460B4659
:102370001046194638A3D3E900230FF0D1FD0246D9
:102380000B46204629460FF019FC02460B46104624
:10239000194610F087F8024640F6E053C1F20003F8
:1023A0001A6040F6E053C1F200031A6840F62C634D
:1023B000C1F20003DA6040F60C63C1F200039A68D0
:1023C00040F62C63C1F200039B681046194610F0DA
:1023D000BDF803461A4640F2EC43C1F200031A600E
:1023E00041F20C53C1F200031B681A6840F2EC433F
:1023F000C1F200031B681046194610F0B1F90346FC
:102400001846194910F060FA03467B604FF001034B
:102410001C467868154910F05FFB0346002B02D17B
:102420004FF000031C46E3B2002B21D00F4B7B6022
:1024300030E000BFAFF300800000000080842E4138
:102440009A9999999999E93F9A9999999999C93F2E
:10245000AE47E17A14AEEF3F7B14AE47E17A843F9A
:102460000000000000007A440000C8420000C03FA5
:102470004FF001031C467868424910F00FFB0346F9
:10248000002B02D14FF000031C46E3B2002B01D019
:102490003C4B7B6041F2DC43C1F200031B681C68CB
:1024A00040F62C63C1F20003DB687868194610F02F
:1024B0004DF803462046194610F052F903461A46D5
:1024C00040F21003C1F200031B681046194610F0D9
:1024D00047F903461A4640F2DC43C1F200031B6889
:1024E0001046194610F034F803461A4640F2DC4311
:1024F000C1F200031A6041F2F443C1F200031B6809
:1025000040F2DC40C1F200001946FFF749FB40F2FF
:102510000C03C1F200031B68184610F0CDF8044606
:1025200041F2C843C1F200031B681D6840F62C63EA
:10253000C1F20003DB687868194610F007F803461B
:102540002846194610F00CF90346204619460FF0AC
:10255000FFFF03461A4640F2DC43C1F200031B684A
:10256000104619460FF0F4FF0346184610F0BEFA65
:10257000024640F20803C1F200031A6007F108079F
:10258000BD46B0BD0000C0BF80B584B000AF78606C
:102590007B68032B26D801A252F823F0AD2500005A
:1025A000BB250000C9250000D72500004FF0020020
:1025B00001F0CCFA0346FB6014E04FF0040001F098
:1025C000C5FA0346FB600DE04FF02C0001F0BEFAA7
:1025D0000346FB6006E04FF02E0001F0B7FA034619
:1025E000FB6000BFFB68184607F11007BD4680BDC1
:1025F00080B584B000AF786039607868FFF7C4FFB9
:1026000001460A464FF00003C7E90223BB683A6857
:1026100002FB03F24DF68363C4F21B33A3FB0213E8
:102620004FEA93410A464FF00003C7E90223BB6813
:10263000184607F11007BD4680BD00BF80B485B0C5
:1026400000AF78604FF0FF33FB607B68B3F1402F41
:1026500003D14FF00003FB601FE07A684FF40043A2
:10266000C4F200039A4203D14FF00103FB6014E06F
:102670007A684FF00003C4F209039A4203D14FF085
:102680000203FB6009E07A684FF48043C4F2090357
:102690009A4202D14FF00303FB60FB68184607F132
:1026A0001407BD4680BC704780B582B000AF78602B
:1026B0000B46FB707B68B3F1402F1CD07A684FF457
:1026C0000043C4F200039A4215D07A684FF0000329
:1026D000C4F209039A420ED07A684FF48043C4F2E0
:1026E00009039A4207D042F69840C0F201004FF029
:1026F000D60107F0B7F9FB78002B16D0FB78012B39
:1027000013D0FB78022B10D0FB78032B0DD0FB7875
:10271000042B0AD0FB78052B07D042F69840C0F274
:1027200001004FF0D70107F09DF97B681B681A463E
:10273000FB784FF0010101FA03F31A437B681A603A
:1027400007F10807BD4680BD80B586B000AFF860D0
:102750000B467A60FB72FB68B3F1402F1CD0FA681D
:102760004FF40043C4F200039A4215D0FA684FF0C8
:102770000003C4F209039A420ED0FA684FF4804372
:10278000C4F209039A4207D042F69840C0F2010011
:102790004FF4927107F066F9FB7A002B10D0FB7AA8
:1027A000012B0DD0FB7A012B0AD0FB7A012B07D02D
:1027B00042F69840C0F2010040F2251107F052F9AC
:1027C000FB68B3F1402F0CD14FF002004FF0010134
:1027D00001F0F6F94FF002004FF0000101F026F988
:1027E0003AE0FA684FF40043C4F200039A420CD175
:1027F0004FF004004FF0010101F0E2F94FF0040046
:102800004FF0000101F012F926E0FA684FF00003E2
:10281000C4F209039A420CD14FF480004FF0010139
:1028200001F0CEF94FF02C004FF0000101F0FEF85E
:1028300012E0FA684FF48043C4F209039A420BD1C4
:102840004FF400004FF0010101F0BAF94FF02E00F3
:102850004FF0000101F0EAF8FB689B6A23F00302E5
:10286000FB689A62FB689B6A1A46FB689A62FB687F
:102870004FF000029A60FB684FF000021A61FB689B
:102880004FF00002DA60FB685B6843F00202FB680D
:102890005A60FB685B6823F00202FB685A60FB7AAF
:1028A000002B1CD17B687B617B691B78002B06D1D8
:1028B0007B695B6803F1FF32FB68DA6021E0F8684E
:1028C000FFF7BCFE02467B695B6810461946FFF7BE
:1028D0008FFE034603F1FF32FB68DA6011E07B688C
:1028E0003B61FB689B6A23F00C02FB689A623B69C0
:1028F0005B78012B05D1FB689B6A43F00402FB68FF
:102900009A62FB684FF0FF321A6007F11807BD4664
:1029100080BD00BF80B582B000AF78600B46FB7011
:102920007B68B3F1402F1CD07A684FF40043C4F2A7
:1029300000039A4215D07A684FF00003C4F20903ED
:102940009A420ED07A684FF48043C4F209039A4247
:1029500007D042F69840C0F201004FF4C77107F06B
:1029600081F8FB78012B06D17B685B6843F001029C
:102970007B685A6005E07B685B6823F001027B6836
:102980005A6007F10807BD4680BD00BF80B582B020
:1029900000AF786039607B68B3F1402F1CD07A6853
:1029A0004FF40043C4F200039A4215D07A684FF006
:1029B0000003C4F209039A420ED07A684FF48043B0
:1029C000C4F209039A4207D042F69840C0F20100CF
:1029D00040F2C51107F046F83B681B79002B13D075
:1029E0003B681B79012B0FD03B681B79022B0BD066
:1029F0003B681B79032B07D042F69840C0F20100D8
:102A00004FF4E37107F02EF83B681B78032B1FD8B7
:102A100001A252F823F000BF292A0000332A000047
:102A20003D2A0000472A00003B689A687B689A614B
:102A30000FE03B689A687B68DA610AE03B689A6855
:102A40007B681A6205E03B689A687B685A6200E01E
:102A5000FEE77B685B6919463B681B781A4613469C
:102A60004FEA43039B184FF0070202FA03F36FEAA1
:102A7000030301EA03027B685A613B685B78002B21
:102A800011D07B685B6919463B681B781A46134670
:102A90004FEA43039B184FF0010202FA03F341EAA5
:102AA00003027B685A613B68DB78002B13D07B689C
:102AB0005B6919463B681B781A4613464FEA430385
:102AC0009B1803F101034FF0010202FA03F341EAFC
:102AD00003027B685A613B689B78002B13D07B68AC
:102AE0005B6919463B681B781A4613464FEA430355
:102AF0009B1803F102034FF0010202FA03F341EACB
:102B000003027B685A617B68DB6B1A463B681B7863
:102B10004FEA430303F104034FF0030101FA03F307
:102B20006FEA03031A407B68DA637B68DB6B1A4643
:102B30003B681B7903F003013B681B784FEA4303B2
:102B400003F1040301FA03F31A437B68DA6307F124
:102B50000807BD4680BD00BF80B584B000AF4FF010
:102B60000003FB7103F0CEF90BF0D0FA06F0F0FB96
:102B70004FF0640003F0E4F90BF0BAF94FF0640091
:102B800003F0DEF90BF0C2FB4FF0640003F0D8F95C
:102B900001F082F84FF0640003F0D2F907F1070367
:102BA0004FF01E0019464FF0020201F0A5F84FF059
:102BB000640003F0C5F90BF041FB4FF0640003F033
:102BC000BFF941F26013C1F200031B681B6818468D
:102BD0000FF08CFF03469AB241F20C13C1F20003CE
:102BE0001A8041F20853C1F200031B681B681846A3
:102BF0000FF07CFF03469AB241F20C13C1F20003BE
:102C00005A8041F26813C1F200031B681B68184622
:102C10000FF06CFF03469AB241F20C13C1F20003AD
:102C20009A8041F20053C1F200031B681B681846EA
:102C30000FF05CFF03469AB240F65063C1F2000306
:102C40001A8041F25C13C1F200031B681B6818462E
:102C50000FF04CFF03469AB240F65063C1F20003F6
:102C60005A8041F2CC43C1F200031B681B6818462E
:102C70000FF03CFF03469AB240F65063C1F20003E6
:102C80009A8041F2C443C1F200031B681B681846D6
:102C90000FF02CFF03469AB240F6AC63C1F200037A
:102CA0001A8041F2D843C1F200031B681B68184622
:102CB0000FF01CFF03469AB240F6AC63C1F200036A
:102CC0005A8041F24013C1F200031B681B6818468A
:102CD0000FF00CFF03469AB240F6AC63C1F200035A
:102CE0009A8009F09DFB4FF00003FB6023E04FF05A
:102CF0000003BB6018E041F20C13C1F20003BA6894
:102D000033F8120040F6B462C1F20002F9680B46D3
:102D10004FEA43035B18B9685B18014622F81310A9
:102D2000BB6803F10103BB60BB68022BE3DDFB68FA
:102D300003F10103FB60FB68632BD8DD07F110078B
:102D4000BD4680BD0000000098B500AF4FF0000305
:102D5000C4F209039B681A4640F22053C1F20003F3
:102D60001A6040F22053C1F200031A6840F2245363
:102D7000C1F200031B689A4228D240F22053C1F2EC
:102D800000031A6840F22453C1F200031B68D21AF0
:102D90004FF43453C0F23113D31818460FF04AF8E9
:102DA00002460B461046194687A3D3E900230FF0CD
:102DB000E1F902460B46104619460FF073FB024636
:102DC00040F21803C1F200031A6022E040F22053DF
:102DD000C1F200031A6840F22453C1F200031B68D9
:102DE000D31A18460FF026F802460B46104619462D
:102DF00075A3D3E900230FF0BDF902460B46104638
:102E000019460FF04FFB024640F21803C1F20003CF
:102E10001A6040F22053C1F200031A6840F22453B2
:102E2000C1F200031A6040F22853C1F200031B886C
:102E300003F101039AB240F22853C1F200031A8051
:102E400040F22853C1F200031B8818460FF034FCEF
:102E5000024641F24813C1F200031B681B684FF0A1
:102E600001010C46104619460FF02CFE0346002BBC
:102E700002D14FF000031C46E3B2002B17D000F044
:102E8000ABF80AF01DFC40F21803C1F200031B6806
:102E900018464FF001010AF063F80AF0C5FD40F250
:102EA0002853C1F200034FF000021A800BE000F03B
:102EB00057FA40F21803C1F200031B6818464FF09E
:102EC00000010AF04DF841F68C10C1F2000041F605
:102ED000E411C1F2000109F0E7FD41F68C13C1F2E3
:102EE00000031A6840F65863C1F200031A6041F605
:102EF0008C13C1F200035A6840F65863C1F2000314
:102F00005A6041F68C13C1F200039A6840F6586388
:102F1000C1F200039A6041F6A813C1F200031B68D6
:102F200018460EF0A9FF02460B461046194628A384
:102F3000D3E900230EF0F4FF02460B461046194673
:102F40000FF0B0FA024640F65863C1F20003DA60AF
:102F500041F6A813C1F200035B6818460EF08CFF1F
:102F600002460B461046194619A3D3E900230EF07A
:102F7000D7FF02460B46104619460FF093FA024659
:102F800040F65863C1F200031A6141F6A813C1F27A
:102F900000039B6818460EF06FFF02460B46104672
:102FA00019460BA3D3E900230EF0BAFF02460B46E5
:102FB000104619460FF076FA024640F65863C1F201
:102FC00000035A6198BD00BF0000000080842E41BC
:102FD000E3A9471ADCA54C402DE9B04382B000AF0D
:102FE0004FF000037B6040F6A460C1F2000040F6A1
:102FF0007061C1F2000140F67862C1F200020BF08C
:103000009DF903463B603B68002B02D10BF0A2FA0E
:103010008CE14FF000037B6037E040F6A463C1F21F
:1030200000037A6833F812309AB241F20C13C1F2FD
:103030000003796833F811309BB2D31A9BB299B26E
:1030400040F6A463C1F200037A6823F8121040F638
:103050007063C1F200037A6833F812309AB240F616
:103060005063C1F20003796833F811309BB2D31A70
:103070009BB299B240F67063C1F200037A6823F8FC
:1030800012107B6803F101037B607B68022BC4DDB7
:1030900040F6A463C1F200031B889BB2C3F1000396
:1030A0009BB29AB240F6A463C1F200031A8040F6C4
:1030B000A463C1F200035B889BB2C3F100039BB21F
:1030C0009AB240F6A463C1F200035A8040F6A463AA
:1030D000C1F200039B889BB203F580539BB29AB266
:1030E00040F6A463C1F200039A8040F67063C1F217
:1030F00000031B889BB2C3F100039BB29AB240F657
:103100007063C1F200031A8040F67063C1F20003DD
:103110009B889BB2C3F100039BB29AB240F67063E6
:10312000C1F200039A8040F67863C1F200031A8866
:1031300040F67863C1F200031A8040F67863C1F26A
:1031400000035B889BB2C3F100039BB29AB240F6C6
:103150007863C1F200035A804FF000037B6066E0A1
:1031600040F69863C1F200037A6853F8224041F2B6
:103170005013C1F200031B681B68774819460FF013
:10318000E5F90346204619460FF0EAFA03461846C9
:103190000EF072FE04460D4640F6A463C1F2000331
:1031A0007A6833F812301BB218460EF053FE02460E
:1031B0000B461046194660A3D3E900230EF0B0FE7B
:1031C00002460B46104619464FF000024FF080436E
:1031D00003F530030EF0CEFF02460B4690469946AB
:1031E00041F25013C1F200031B681B6818460EF031
:1031F00043FE02460B46404649460EF091FE02460B
:103200000B46204629460EF0D9FC02460B461046D6
:1032100019460FF047F9014641F67C13C1F200034D
:103220007A6843F822107B6803F101037B607B68B6
:10323000022B95DD4FF000037B602EE040F67063BB
:10324000C1F200037A6833F812301BB218460EF050
:1032500001FE02460B461046194639A3D3E9002366
:103260000EF05EFE02460B461046194636A3D3E921
:1032700000230EF07FFF02460B46104619460FF062
:1032800011F9014641F6A813C1F200037A6843F828
:1032900022107B6803F101037B607B68022BCDDD8C
:1032A0004FF000037B6025E040F67863C1F2000335
:1032B0007A6833F812301BB218460EF0CBFD024686
:1032C0000B461046194622A3D3E900230EF028FE30
:1032D00002460B46104619460FF0E4F8014641F647
:1032E000F413C1F200037A6843F822107B6803F1FB
:1032F00001037B607B68022BD6DD4FF000037B600F
:1033000011E041F67C13C1F200037A6853F82210F1
:1033100040F69863C1F200037A6843F822107B6894
:1033200003F101037B607B68022BEADD07F10807EC
:10333000BD46BDE8B08300BF1F85EB51B89E23405A
:1033400011E7FAA146DF913F666666666666304021
:10335000713D0AD7A370ED3F0000803FAFF30080BE
:1033600080B582B000AF4FF000037B6040F6706024
:10337000C1F200000BF0AEF803463B603B68002B47
:1033800002D10BF0E7F878E04FF000037B601DE01E
:1033900040F67063C1F200037A6833F812309AB2D3
:1033A00040F65063C1F20003796833F811309BB2E4
:1033B000D31A9BB299B240F67063C1F200037A68E7
:1033C00023F812107B6803F101037B607B68022BFA
:1033D000DEDD40F67063C1F200031B889BB2C3F1CF
:1033E00000039BB29AB240F67063C1F200031A80E8
:1033F00040F67063C1F200039B889BB2C3F10003E7
:103400009BB29AB240F67063C1F200039A804FF00B
:1034100000037B602EE040F67063C1F200037A681F
:1034200033F812301BB218460EF014FD02460B465C
:103430001046194614A3D3E900230EF071FD02468D
:103440000B461046194612A3D3E900230EF092FE54
:1034500002460B46104619460FF024F8014641F685
:10346000A813C1F200037A6843F822107B6803F1C5
:1034700001037B607B68022BCDDD07F10807BD46A9
:1034800080BD00BFAFF3008011E7FAA146DF913F96
:10349000666666666666304090B58DB000AF4FF0E8
:1034A0000003FB624FF00003BB6208F0B9FF4FF46A
:1034B0007A7002F045FD4FF00003FB620BE005F06F
:1034C00047FF4FF0320002F03BFD02F01BFDFB6AAC
:1034D00003F10103FB62FB6A4F2BF0DD4FF00003A9
:1034E000FB6221E0FB6A4FEA830307F13001CB184E
:1034F0004FF0000243F8142CFB6A4FEA830307F1F4
:103500003002D3184FF0000243F8202CFB6A4FEA38
:10351000830307F13001CB184FF0000243F82C2C45
:10352000FB6A03F10103FB62FB6A022BDADD4FF059
:103530000003BB626DE04FF0640002F001FD05F096
:1035400007FF40F6A460C1F2000040F67061C1F2CE
:10355000000140F67862C1F200020AF0EFFE4FF07F
:103560000003FB624EE0FB6A4FEA830307F130027F
:10357000D31853F8142C40F6A463C1F20003F96A7F
:1035800033F811301BB2D218FB6A4FEA830307F1FC
:103590003001CB1843F8142CFB6A4FEA830307F180
:1035A0003002D31853F8202C40F67063C1F20003A8
:1035B000F96A33F811301BB2D218FB6A4FEA830361
:1035C00007F13001CB1843F8202CFB6A4FEA830344
:1035D00007F13002D31853F82C2C40F67863C1F26F
:1035E0000003F96A33F811301BB2D218FB6A4FEAB4
:1035F000830307F13001CB1843F82C2CFB6A03F14D
:103600000103FB62FB6A022BADDDBB6A03F1010320
:10361000BB62BB6A312B8EDD4FF00003FB6284E09E
:10362000FB6A4FEA830307F13002D31853F8142CD6
:1036300048F21F53C5F2EB1383FB02134FEA231129
:103640004FEAE273CA1AFB6A4FEA830307F13001BB
:10365000CB1843F8142CFB6A4FEA830307F13002BE
:10366000D31853F8202C48F21F53C5F2EB1383FBF9
:1036700002134FEA23114FEAE273CA1AFB6A4FEAB8
:10368000830307F13001CB1843F8202CFB6A4FEA83
:10369000830307F13002D31853F82C2C48F21F5340
:1036A000C5F2EB1383FB02134FEA23114FEAE273D7
:1036B000CA1AFB6A4FEA830307F13001CB1843F8BB
:1036C0002C2CFB6A4FEA830307F13002D31853F81E
:1036D000143C99B241F20C13C1F20003FA6A23F8C8
:1036E0001210FB6A4FEA830307F13001CB1853F83D
:1036F000203C99B240F65063C1F20003FA6A23F805
:103700001210FB6A4FEA830307F13002D31853F813
:103710002C3C99B240F6AC63C1F20003FA6A23F87C
:103720001210FB6A03F10103FB62FB6A022B7FF7B5
:1037300077AF41F26013C1F200031C6841F20C1331
:10374000C1F200031B881BB218460EF0B5FF0346FA
:10375000236041F20853C1F200031C6841F20C13CC
:10376000C1F200035B881BB218460EF0A5FF0346AA
:10377000236041F26813C1F200031C6841F20C138C
:10378000C1F200039B881BB218460EF095FF03465A
:10379000236041F20053C1F200031C6840F65063FD
:1037A000C1F200031B881BB218460EF085FF0346CA
:1037B000236041F25C13C1F200031C6840F65063C1
:1037C000C1F200035B881BB218460EF075FF03467A
:1037D000236041F2CC43C1F200031C6840F6506301
:1037E000C1F200039B881BB218460EF065FF03462A
:1037F000236041F2C443C1F200031C6840F6AC638D
:10380000C1F200031B881BB218460EF055FF034699
:10381000236041F2D843C1F200031C6840F6AC6358
:10382000C1F200035B881BB218460EF045FF034649
:10383000236041F24013C1F200031C6840F6AC6300
:10384000C1F200039B881BB218460EF035FF0346F9
:10385000236041F27410C1F200004FF0A80107F09C
:103860006FFD07F13407BD4690BD00BF90B587B02E
:1038700000AF4FF000037B614FF000033B614FF05E
:1038800000037B610BE005F063FD4FF0320002F0B6
:1038900057FB02F037FB7B6903F101037B617B6916
:1038A0000B2BF0DD4FF000037B610DE07B694FEAED
:1038B000830307F11801CB184FF0000243F8142CD2
:1038C0007B6903F101037B617B69022BEEDD4FF025
:1038D00000033B6135E04FF0140002F031FB02F0D1
:1038E00011FB05F035FD40F67060C1F200000AF0F2
:1038F000F1FD4FF000037B611CE07B694FEA83031D
:1039000007F11802D31853F8142C40F67063C1F273
:103910000003796933F811301BB2D2187B694FEA82
:10392000830307F11801CB1843F8142C7B6903F1CA
:1039300001037B617B69022BDFDD3B6903F101033E
:103940003B613B69132BC6DD4FF000037B612EE02A
:103950007B694FEA830307F11802D31853F8142C3C
:1039600046F26763C6F2666383FB02134FEAE30124
:103970004FEAE273CA1A7B694FEA830307F1180121
:10398000CB1843F8142C7B694FEA830307F1180224
:10399000D31853F8143C99B240F65063C1F20003B7
:1039A0007A6923F812107B6903F101037B617B695B
:1039B000022BCDDD41F20053C1F200031C6840F63A
:1039C0005063C1F200031B881BB218460EF074FE50
:1039D0000346236041F25C13C1F200031C6840F609
:1039E0005063C1F200035B881BB218460EF064FE00
:1039F0000346236041F2CC43C1F200031C6840F649
:103A00005063C1F200039B881BB218460EF054FEAF
:103A10000346236041F27410C1F200004FF0A80188
:103A200007F08EFC07F11C07BD4690BD80B485B041
:103A300000AF786039607B681F2B03D97B68A3F1E6
:103A4000200300E07B68FB607B681F2B27D84FF4C6
:103A50004043C4F20F034FF44042C4F20F02D2F8C5
:103A6000A8211146FA684FF0030000FA02F26FEA4B
:103A700002020A40C3F8A8214FF44043C4F20F03E6
:103A80004FF44042C4F20F02D2F8A8211146FA685E
:103A9000386800FA02F20A43C3F8A82126E04FF47E
:103AA0004043C4F20F034FF44042C4F20F02D2F875
:103AB000AC211146FA684FF0030000FA02F26FEAF7
:103AC00002020A40C3F8AC214FF44043C4F20F0392
:103AD0004FF44042C4F20F02D2F8AC211146FA680A
:103AE000386800FA02F20A43C3F8AC2107F1140760
:103AF000BD4680BC704700BF80B485B000AF786021
:103B00007B681F2B09D87B68FB604FF44043C4F2ED
:103B10000F03D3F8A831BB600AE07B68A3F1200350
:103B2000FB604FF44043C4F20F03D3F8AC31BB60E9
:103B3000FB68BA6822FA03F303F00303BB60BB68B7
:103B4000184607F11407BD4680BC704780B584B0A5
:103B500000AF786040F21C03C1F200031B68BB6039
:103B60007868FFF7C9FF0346FB60FB68032B1BD88F
:103B700001A252F823F000BF893B0000913B0000F6
:103B8000993B0000A13B00004FF00403FB600BE0F9
:103B90004FF00103FB6007E04FF00203FB6003E01E
:103BA0004FF00803FB6000BFBA68FB68B2FBF3F399
:103BB000BB60BB68184607F11007BD4680BD00BF5B
:103BC00080B483B000AF78600B46FB70FB78012BAC
:103BD00014D14FF44042C4F20F024FF44043C4F2F8
:103BE0000F03D3F8C430194678684FF2DE73CEF66F
:103BF000EF7303400B43C2F8C43018E0FB78002B8E
:103C000015D14FF44042C4F20F024FF44043C4F2C6
:103C10000F03D3F8C43019467B686FEA03031940D9
:103C20004FF2DE73CEF6EF730B40C2F8C43007F1EB
:103C30000C07BD4680BC704780B584B000AF78608B
:103C40007A684FF00003C4F20B039A4207D042F6A1
:103C5000EC40C0F201004FF0A90105F003FF7B68C2
:103C60001B7ADBB203F00103DBB2002B0CD04FF068
:103C70000103FB737B681B7ADBB243F00103DAB20A
:103C80007B681A72FB7B01E04FF00003184607F1D6
:103C90001007BD4680BD00BF80B582B000AF4FF0B9
:103CA0007003FB7107F107034FF01E0019464FF038
:103CB000000200F021F84FF0010000F005F807F1D4
:103CC0000807BD4680BD00BF80B584B000AF034685
:103CD000FB71FB794FEA4313DBB2FB7307F10F0370
:103CE0004FF01E0019464FF0010200F005F807F1F1
:103CF0001007BD4680BD00BF80B58EB000AF3960F3
:103D000013460246FA71BB71BB793B723B681B7864
:103D10007B72FB79FB6007F108033B614FF0020304
:103D20007B614FF00003FB614FF000033B624FF0FB
:103D30000503BB6207F10C034FF44040C4F20500D9
:103D400019464FF0000206F01BFB07F13807BD468D
:103D500080BD00BF80B400AF4FF44043C4F20F03F6
:103D60004FF02002C3F8A0214FF44043C4F20F03E8
:103D7000D3F8A03103F02003002B0AD000BF4FF48A
:103D80004043C4F20F03D3F8A03103F04003002BEB
:103D9000F5D04FF44043C4F20F034FF00302C3F8D1
:103DA00004214FF44043C4F20F034FF00002C3F864
:103DB000A8214FF44043C4F20F034FF00002C3F8B0
:103DC000AC214FF44043C4F20F034FF00102C3F89B
:103DD0000C214FF44043C4F20F034FF06302C0F2D2
:103DE0000502C3F884204FF44043C4F20F034FF0A0
:103DF000AA02C3F88C204FF44043C4F20F034FF0E3
:103E00005502C3F88C204FF44043C4F20F034FF027
:103E10000102C3F880204FF44043C4F20F034FF077
:103E2000AA02C3F88C204FF44043C4F20F034FF0B2
:103E30005502C3F88C2000BF4FF44043C4F20F0377
:103E4000D3F8883003F08063002BF5D04FF4404363
:103E5000C4F20F034FF00302C3F880204FF4404335
:103E6000C4F20F034FF0AA02C3F88C204FF4404372
:103E7000C4F20F034FF05502C3F88C2000BF4FF47B
:103E80004043C4F20F03D3F8883003F04073002B93
:103E9000F5D04FF44043C4F20F034FF02302C3F8B0
:103EA000A4204FF44043C4F20F034FF0AA02C3F81A
:103EB000AC204FF44043C4F20F034FF05502C3F857
:103EC000AC204FF44043C4F20F034FF00102C3F89B
:103ED000A0204FF44043C4F20F034FF0AA02C3F8EE
:103EE000AC204FF44043C4F20F034FF05502C3F827
:103EF000AC2000BF4FF44043C4F20F03D3F8A83006
:103F000003F48063002BF5D04FF44043C4F20F0359
:103F10004FF00302C3F8A0204FF44043C4F20F0354
:103F20004FF0AA02C3F8AC204FF44043C4F20F0391
:103F30004FF05502C3F8AC2000BF4FF44043C4F229
:103F40000F03D3F8A83003F44073002BF5D04FF4DF
:103F50004043C4F20F0348F2DE72C0F22842C3F8B5
:103F6000C4204FF44043C4F20F034FF00002C3F8E3
:103F7000C8214FF44043C4F20F0343F23A021A60DF
:103F80004FF46D43CEF200034FF000029A60BD463D
:103F900080BC704780B582B000AF02460B46FA7114
:103FA000BB71FB79002B03D1BB79184604F09CFF51
:103FB00007F10807BD4680BD80B485B000AF034659
:103FC0003960FB713B681B88DAB2FB795340FB73A5
:103FD000FB7B4FEA0313DAB2FB7B5340DBB2FB738C
:103FE0003B681B884FEA13239BB29AB2FB7B4FEAD4
:103FF00003239BB253409AB2FB7B4FEAC3039BB2AD
:1040000053409AB2FB7B4FEA1313DBB253409BB28F
:104010009AB23B681A8007F11407BD4680BC70470E
:1040200080B483B000AF78607B684FF6FF721A806F
:1040300007F10C07BD4680BC704700BF80B584B057
:1040400000AF78600B467B8007F10E031846FFF740
:10405000E7FF0BE07B681A787B6803F101037B6064
:1040600007F10E0310461946FFF7A6FF7B88002BC9
:104070000CBF00230123DBB27A8802F1FF327A8081
:10408000002BE7D1FB89184607F11007BD4680BD1C
:1040900080B586B000AFF860B9601346FB71BB68AD
:1040A0007B6109E07B691B787A6902F101027A6120
:1040B0001846F968FFF780FFFB79002B0CBF00233F
:1040C0000123DBB2FA7902F1FF32FA71002BE9D158
:1040D00007F11807BD4680BD80B483B000AF03462A
:1040E000FB71FA7913464FEA43039B184FEA8303A7
:1040F0001A4640F23C53C1F20003D318184607F1A8
:104100000C07BD4680BC704780B483B000AF034647
:10411000FB71FA7913464FEA03139B184FEA031316
:104120001A4640F26863C1F20003D318184607F13B
:104130000C07BD4680BC704780B586B000AF3A60C2
:104140000246FA710A46BA717B71FB791846FFF78D
:10415000C3FF03467B614FF0FE033B737B797B73A8
:104160007B699B79BB7340F6F053C1F200031B7867
:10417000FB7340F6F053C1F200035B783B74BB79EC
:104180007B747B699B7903F10103DAB27B699A71D5
:1041900007F10C0303F1010318464FF00501FFF787
:1041A0004DFF03467B8207F112027B791046396886
:1041B0001A46FFF76DFF97F8202007F1120310460B
:1041C0001946FFF7F9FE7B8ADBB23B727B8A4FEA26
:1041D00013239BB2DBB27B72FA7907F10C03104612
:1041E00019464FF0060200F0C3F97B799BB2FA79C9
:1041F000104639681A4600F0BBF9FA7907F108034E
:10420000104619464FF0020200F0B2F907F1180704
:10421000BD4680BD80B582B000AF78607B6818462F
:10422000FFF7FEFE07F10807BD4680BD80B582B0EE
:1042300000AF78600B46FB707B68FA781046194631
:10424000FFF7BAFE07F10807BD4680BD80B588B00C
:1042500000AFBA607B600346FB730B46BB73FB7B0E
:104260001846FFF751FF0346FB61FB7B1846FFF73B
:1042700033FF0346BB614FF000037B61BB694FF026
:1042800000021A70BB69DB78092B00F23B8101A2A6
:1042900052F823F0BD420000BD420000E34200009E
:1042A000554300003B4300006F430000894300007A
:1042B000B5430000F34300006D440000BB7BFE2BC0
:1042C00040F01981BB694FF00202DA70FB694FF0D0
:1042D0000002DA70FB69BA7B9A70F869FFF79AFFFF
:1042E00009E1BB691B78002B16D0BB695B7803F131
:1042F0000103DAB2BB695A70BB699B7803F1010311
:10430000DAB2BB699A70BB694FF000021A70BB69E0
:104310004FF00102DA70F5E0FB69BA7BDA70BB6935
:104320004FF000021A71BB7BF8691946FFF77EFF58
:10433000BB694FF00402DA70E4E0FB69BA7B1A71E2
:10434000BB7BF8691946FFF771FFBB694FF00302A9
:10435000DA70D7E0FB69BA7B5A71BB7BF869194602
:10436000FFF764FFBB694FF00502DA70CAE0FB6932
:10437000BA7B9A71BB7BF8691946FFF757FFBB6997
:104380004FF00602DA70BDE0FB69BA7BDA71BB7BE5
:10439000F8691946FFF74AFFFB69DB78002B04D167
:1043A000BB694FF00802DA70ACE0BB694FF007025E
:1043B000DA70A7E0FB6903F10801BB691B791A46B3
:1043C0008A18B97B117003F10103DAB2BB691A7163
:1043D000BB7BF8691946FFF729FFBB691A79FB69AE
:1043E000DB789A4240F08980BB694FF00802DA70AE
:1043F00083E0FB69DB791A4642F62873C0F20103B9
:104400009B5CF8691946FFF711FFBA7BFB691B88B3
:10441000DBB29A421DD0BB699B7803F10103DAB28B
:10442000BB699A70BB694FF000021A70BB694FF00C
:104430000102DA70BB7BFE2B61D1BB694FF0020237
:10444000DA70FB694FF00002DA70F869FFF7E2FEFC
:1044500055E0BB694FF00902DA70FB6903F108020D
:10446000BB691B79D318BA7B1A7048E0BB7B9AB240
:10447000FB691B884FEA13239BB29A421DD0BB698C
:104480009B7803F10103DAB2BB699A70BB694FF004
:1044900000021A70BB694FF00102DA70BB7BFE2B81
:1044A0002FD1BB694FF00202DA70FB694FF00002B6
:1044B000DA70F869FFF7AEFE23E0BB694FF0010246
:1044C0001A70BB694FF00102DA70FB6903F1080250
:1044D000BB691B7903F10103D318BA7B1A70BA6860
:1044E000FB6911461A464FF48873084611461A466E
:1044F0000EF048FB05E000BF04E000BF02E000BF93
:1045000000E000BF7B6903F101037B61BB691B789D
:10451000012B12D1FB691A79BB695A71BB691B89DE
:10452000002B03D1BB694FF000025A81BB691B8984
:1045300003F101039AB2BB691A81BB695B7903F18C
:104540000103DAB27B685A71BB691A897B681A81E8
:10455000BB699B781A467B685A81BB694FF00002A1
:104560009A70BB691B78184607F12007BD4680BDCD
:1045700080B584B000AF396013460246FA71BB8043
:104580004FF00003FB810CE0FB893A68D3181B78DD
:10459000FA7910461946FFF7FDFCFB8903F1010388
:1045A000FB81FA89BB889A42EED307F11007BD461A
:1045B00080BD00BF80B584B000AFF860B9607A609C
:1045C000BB68002B09D1FB681A467B6810464FF088
:1045D00000011A460EF018FB09E0FA68BB681146A4
:1045E0001A467B68084611461A460EF0CBFA07F1C8
:1045F0001007BD4680BD00BF80B483B000AF7860B7
:104600000B46FB707B6803F10802FB78D3181B880C
:104610001BB2184607F10C07BD4680BC704700BFAF
:1046200080B483B000AF78600B46FB707B6803F109
:104630000802FB78D3181B68184607F10C07BD4623
:1046400080BC704780B483B000AF78600B46FB70CD
:104650007B6803F10802FB78D3181B68184607F142
:104660000C07BD4680BC704780B483B000AF786053
:104670000B46FB707B6803F10802FB78D3181B68BC
:10468000184607F10C07BD4680BC704780B483B064
:1046900000AF78607B6803F1080303F105031B7822
:1046A000184607F10C07BD4680BC704780B582B044
:1046B00000AF786078684FF00001FFF7B1FF034664
:1046C000184607F10807BD4680BD00BF80B58EB013
:1046D00002AFB9607A600246FA73BB737B687B6194
:1046E0003B8F3B83BB8F7B83BB7B87F82C3007F1F1
:1046F000140303F108031846B9684FF01002FFF7DE
:1047000059FFFA7B07F114034FF0DC0100911046CA
:104710004FF016011A464FF01903FFF70DFD07F190
:104720003007BD4680BD00BF80B582B000AF786065
:1047300039607B6803F108033A6811461A464FF066
:104740001703084611461A460EF01CFA07F108072F
:10475000BD4680BD80B582B000AF786078684FF00C
:104760000001FFF749FF0346184607F10807BD4659
:1047700080BD00BF80B582B000AF786078684FF030
:104780000201FFF739FF0346184607F10807BD4647
:1047900080BD00BF80B582B000AF786078684FF010
:1047A0000401FFF729FF0346184607F10807BD4635
:1047B00080BD00BF80B582B000AF786078684FF0F0
:1047C0000601FFF719FF0346184607F10807BD4623
:1047D00080BD00BF80B586B002AF13460246FA71B5
:1047E0000A46BA80BB71BB88BB81BB79BB73FA79BF
:1047F00007F10C034FF08F01009110464FF04D016F
:104800001A464FF00303FFF797FC07F11007BD4668
:1048100080BD00BF80B582B000AF786078684FF08F
:104820000801FFF721FF0346184607F10807BD46B8
:1048300080BD00BF80B582B000AF786078684FF06F
:104840000C01FFF711FF0346184607F10807BD46A4
:1048500080BD00BF80B582B000AF786078684FF04F
:104860001001FFF701FF0346184607F10807BD4690
:1048700080BD00BF80B582B000AF786078684FF02F
:104880001401FFF7F1FE0346184607F10807BD467D
:1048900080BD00BF80B582B000AF786078684FF00F
:1048A0001801FFF7E1FE0346184607F10807BD4669
:1048B00080BD00BF80B582B000AF786078684FF0EF
:1048C0001C01FFF7D1FE0346184607F10807BD4655
:1048D00080BD00BF80B582B000AF786078684FF0CF
:1048E0002001FFF7AFFE0346184607F10807BD4653
:1048F00080BD00BF80B582B000AF786078684FF0AF
:104900002401FFF79FFE0346184607F10807BD463E
:1049100080BD00BF80B582B000AF786078684FF08E
:104920002801FFF78FFE0346184607F10807BD462A
:1049300080BD00BF80B582B000AF4FF00003FB71B7
:10494000FA7941F27413C1F20003C84943F8221006
:10495000FB794FEA0312C44BD21842F64053C0F21F
:10496000010311461A464FF00603084611461A463F
:104970000EF008F9FB794FEA830241F27413C1F299
:104980000003D21841F2FC43C1F200031A60FB7924
:1049900003F10103FB71FA7941F27413C1F20003D0
:1049A000B34943F82210FB794FEA0312AE4BD218F9
:1049B00042F64853C0F2010311461A464FF006036F
:1049C000084611461A460EF0DDF8FB794FEA8302DD
:1049D00041F27413C1F20003D21841F24C13C1F238
:1049E00000031A60FB7903F10103FB71FA7941F2CC
:1049F0007413C1F200039F4943F82210FB794FEA78
:104A00000312994BD21842F65053C0F201031146DB
:104A10001A464FF00603084611461A460EF0B2F841
:104A2000FB794FEA830241F27413C1F20003D218FA
:104A300041F2F043C1F200031A60FB7903F1010374
:104A4000FB71FA7941F27413C1F200038A4943F809
:104A50002210FB794FEA0312834BD21842F65853C7
:104A6000C0F2010311461A464FF0070308461146EB
:104A70001A460EF087F8FB794FEA830241F274136D
:104A8000C1F20003D21841F26C13C1F200031A60A4
:104A9000FB7903F10103FB71FA7941F27413C1F25E
:104AA0000003734943F82210FB794FEA03126E4B5F
:104AB000D21842F66053C0F2010311461A464FF075
:104AC0000703084611461A460EF05CF8FB794FEAD8
:104AD000830241F27413C1F20003D21841F254135D
:104AE000C1F200031A60FB7903F10103FB71FA794B
:104AF00041F27413C1F200035F4943F82210FB79BD
:104B00004FEA0312584BD21842F66853C0F2010321
:104B100011461A464FF00703084611461A460EF092
:104B200031F8FB794FEA830241F27413C1F20003BA
:104B3000D21841F2E043C1F200031A60FB7903F19D
:104B40000103FB71FA7941F27413C1F200034A497F
:104B500043F82210FB794FEA0312434BD21842F676
:104B60007053C0F2010311461A464FF0070308467E
:104B700011461A460EF006F8FB794FEA830241F21D
:104B80007413C1F20003D21841F20C53C1F20003B6
:104B90001A60FB7903F10103FB71FA7941F2741396
:104BA000C1F20003354943F82210FB794FEA0312A2
:104BB0002D4BD21842F67853C0F2010311461A4623
:104BC0004FF00703084611461A460DF0DBFFFB794C
:104BD0004FEA830241F27413C1F20003D21841F28A
:104BE000DC43C1F200031A60FB7903F10103FB719E
:104BF000FA7941F27413C1F200031F4943F82210FD
:104C0000FB794FEA0312184BD21842F68053C0F2D8
:104C1000010311461A464FF00703084611461A468B
:104C20000DF0B0FFFB794FEA830241F27413C1F239
:104C30000003D21841F2C843C1F200031A60FB79A5
:104C400003F10103FB71FA7941F27413C1F200031D
:104C5000094943F82210FB794FEA0312024BD2189C
:104C600042F688530CE000BF1C1200106F12033B89
:104C7000000000006F12033A17B7D1386F12833A61
:104C8000C0F2010311461A464FF0070308461146C9
:104C90001A460DF077FFFB794FEA830241F2741355
:104CA000C1F20003D21841F27013C1F200031A607E
:104CB000FB7903F10103FB71FA7941F27413C1F23C
:104CC0000003C84943F82210FB794FEA0312C44B92
:104CD000D21842F69053C0F2010311461A464FF023
:104CE0000703084611461A460DF04CFFFB794FEAC0
:104CF000830241F27413C1F20003D21841F2F84367
:104D0000C1F200031A60FB7903F10103FB71FA7928
:104D100041F27413C1F20003B34943F82210FB7946
:104D20004FEA0312AE4BD21842F69853C0F2010379
:104D300011461A464FF00703084611461A460DF071
:104D400021FFFB794FEA830241F27413C1F20003A1
:104D5000D21841F2BC43C1F200031A60FB7903F19F
:104D60000103FB71FA7941F27413C1F200039F4908
:104D700043F82210FB794FEA0312994BD21842F6FE
:104D8000A053C0F2010311461A464FF0090308462A
:104D900011461A460DF0F6FEFB794FEA830241F206
:104DA0007413C1F20003D21841F25813C1F2000388
:104DB0001A60FB7903F10103FB71FA7941F2741374
:104DC000C1F200038A4943F82210FB794FEA03122B
:104DD000834BD21842F6AC53C0F2010311461A4677
:104DE0004FF00703084611461A460DF0CBFEFB793B
:104DF0004FEA830241F27413C1F20003D21841F268
:104E00004413C1F200031A60FB7903F10103FB7143
:104E1000FA7941F27413C1F20003764943F8221083
:104E2000FB794FEA03126E4BD21842F6B453C0F22C
:104E3000010311461A464FF00A03084611461A4666
:104E40000DF0A0FEFB794FEA830241F27413C1F228
:104E50000003D21841F24813C1F200031A60FB7933
:104E600003F10103FB71FA7941F27413C1F20003FB
:104E70005E4943F82210FB794FEA0312584BD218CF
:104E800042F6C053C0F2010311461A464FF00E031A
:104E9000084611461A460DF075FEFB794FEA83026B
:104EA00041F27413C1F20003D21841F25013C1F25F
:104EB00000031A60FB7903F10103FB71FA7941F2F7
:104EC0007413C1F200034C4943F82210FB794FEAF6
:104ED0000312434BD21842F6D053C0F201031146DD
:104EE0001A464FF00903084611461A460DF04AFECD
:104EF000FB794FEA830241F27413C1F20003D21826
:104F000041F26013C1F200031A60FB7903F101035F
:104F1000FB71FA7941F27413C1F20003364943F888
:104F20002210FB794FEA03122D4BD21842F6DC53C4
:104F3000C0F2010311461A464FF009030846114614
:104F40001A460DF01FFEFB794FEA830241F27413FB
:104F5000C1F20003D21841F20853C1F200031A60F3
:104F6000FB7903F10103FB71FA7941F27413C1F289
:104F70000003214943F82210FB794FEA0312184B32
:104F8000D21842F6E853C0F2010311461A464FF018
:104F90000903084611461A460DF0F4FDFB794FEA65
:104FA000830241F27413C1F20003D21841F2681374
:104FB000C1F200031A60FB7903F10103FB71FA7976
:104FC00041F27413C1F200030B4943F82210FB793C
:104FD0004FEA0312024BD21842F6F4530EE000BF20
:104FE0001C1200106F12833A17B7D138CDCC4C3E4B
:104FF0000000C8420000004000000000C0F20103B1
:1050000011461A464FF00A03084611461A460DF09B
:10501000B9FDFB794FEA830241F27413C1F2000338
:10502000D21841F20053C1F200031A60FB7903F178
:105030000103FB71FA7941F27413C1F20003C8490C
:1050400043F82210FB794FEA0312C44BD21842F600
:105050000063C0F2010311461A464FF00A030846E6
:1050600011461A460DF08EFDFB794FEA830241F29C
:105070007413C1F20003D21841F25C13C1F20003B1
:105080001A60FB7903F10103FB71FA7941F27413A1
:10509000C1F20003B24943F82210FB794FEA031230
:1050A000AE4BD21842F60C63C0F2010311461A4609
:1050B0004FF00A03084611461A460DF063FDFB79CE
:1050C0004FEA830241F27413C1F20003D21841F295
:1050D000CC43C1F200031A60FB7903F10103FB71B9
:1050E000FA7941F27413C1F200039D4943F822108A
:1050F000FB794FEA0312994BD21842F61863C0F2BB
:10510000010311461A464FF00903084611461A4694
:105110000DF038FDFB794FEA830241F27413C1F2BE
:105120000003D21841F2C443C1F200031A60FB79B4
:1051300003F10103FB71FA7941F27413C1F2000328
:10514000874943F82210FB794FEA0312834BD218A8
:1051500042F62463C0F2010311461A464FF00903D8
:10516000084611461A460DF00DFDFB794FEA830201
:1051700041F27413C1F20003D21841F2D843C1F2D4
:1051800000031A60FB7903F10103FB71FA7941F224
:105190007413C1F20003724943F82210FB794FEAFD
:1051A00003126E4BD21842F63063C0F2010311466F
:1051B0001A464FF00903084611461A460DF0E2FC64
:1051C000FB794FEA830241F27413C1F20003D21853
:1051D00041F24013C1F200031A60FB7903F10103AD
:1051E000FB71FA7941F27413C1F200035D4943F88F
:1051F0002210FB794FEA0312584BD21842F63C6357
:10520000C0F2010311461A464FF009030846114641
:105210001A460DF0B7FCFB794FEA830241F2741392
:10522000C1F20003D21840F6FC53C1F200031A6029
:10523000FB7903F10103FB71FA7941F27413C1F2B6
:105240000003484943F82210FB794FEA0312434B0D
:10525000D21842F64863C0F2010311461A464FF0D5
:105260000A03084611461A460DF08CFCFB794FEAFA
:10527000830241F27413C1F20003D21840F6EC53DA
:10528000C1F200031A60FB7903F10103FB71FA79A3
:1052900041F27413C1F20003324943F82210FB7942
:1052A0004FEA03122D4BD21842F65463C0F20103A9
:1052B00011461A464FF00A03084611461A460DF0E9
:1052C00061FCFB794FEA830241F27413C1F20003DF
:1052D000D21840F6F853C1F200031A60FB7903F1CB
:1052E0000103FB71FA7941F27413C1F200031D4905
:1052F00043F82210FB794FEA0312184BD21842F6FA
:105300006063C0F2010311461A464FF00A030846D3
:1053100011461A460DF036FCFB794FEA830241F242
:105320007413C1F20003D21840F60063C1F2000307
:105330001A60FB7903F10103FB71FA7941F27413EE
:10534000C1F20003084943F82210FB794FEA031227
:10535000024BD21842F66C6308E000BF1C1200102A
:10536000000000000000A04100007A44C0F20103E8
:1053700011461A464FF00D03084611461A460DF025
:1053800001FCFB794FEA830241F27413C1F200037E
:10539000D21841F21053C1F200031A60FB7903F1F5
:1053A0000103FB71FA7941F27413C1F20003C84999
:1053B00043F82210FB794FEA0312C44BD21842F68D
:1053C0007C63C0F2010311461A464FF00D030846F4
:1053D00011461A460DF0D6FBFB794FEA830241F2E3
:1053E0007413C1F20003D21841F21C13C1F200037E
:1053F0001A60FB7903F10103FB71FA7941F274132E
:10540000C1F20003B34943F82210FB794FEA0312BB
:10541000AE4BD21842F68C63C0F2010311461A4615
:105420004FF00E03084611461A460DF0ABFBFB7910
:105430004FEA830241F27413C1F20003D21841F221
:10544000E843C1F200031A60FB7903F10103FB7129
:10545000FA7941F27413C1F200039F4943F8221014
:10546000FB794FEA0312994BD21842F69C63C0F2C3
:10547000010311461A464FF00E03084611461A461C
:105480000DF080FBFB794FEA830241F27413C1F205
:105490000003D21841F20453C1F200031A60FB79F1
:1054A00003F10103FB71FA7941F27413C1F20003B5
:1054B0008A4943F82210FB794FEA0312834BD21832
:1054C00042F6AC63C0F2010311461A464FF00E03D8
:1054D000084611461A460DF055FBFB794FEA830248
:1054E00041F27413C1F20003D21841F2C043C1F279
:1054F00000031A60FB7903F10103FB71FA7941F2B1
:105500007413C1F20003734943F82210FB794FEA88
:1055100003126E4BD21842F6BC63C0F2010311466F
:105520001A464FF00E03084611461A460DF02AFBA4
:10553000FB794FEA830241F27413C1F20003D218DF
:1055400041F2E443C1F200031A60FB7903F1010365
:10555000FB71FA7941F27413C1F200035E4943F81A
:105560002210FB794FEA0312584BD21842F6CC6353
:10557000C0F2010311461A464FF00E0308461146C9
:105580001A460DF0FFFAFB794FEA830241F27413D9
:10559000C1F20003D21841F2D043C1F200031A60F5
:1055A000FB7903F10103FB71FA7941F27413C1F243
:1055B00000034A4943F82210FB794FEA0312434B98
:1055C000D21842F6DC63C0F2010311461A464FF0CE
:1055D0000E03084611461A460DF0D4FAFB794FEA3D
:1055E000830241F27413C1F20003D21841F2EC437A
:1055F000C1F200031A60FB7903F10103FB71FA7930
:1056000041F27413C1F20003324943F82210FB79CE
:105610004FEA03122D4BD21842F6EC63C0F201039D
:1056200011461A464FF00A03084611461A460DF075
:10563000A9FAFB794FEA830241F27413C1F2000325
:10564000D21841F26413C1F200031A60FB7903F12E
:105650000103FB71FA7941F27413C1F200031D4991
:1056600043F82210FB794FEA0312184BD21842F686
:10567000F863C0F2010311461A464FF009030846C9
:1056800011461A460DF07EFAFB794FEA830241F289
:105690007413C1F20003D21841F21813C1F20003CF
:1056A0001A60FB7903F10103FB71FA7941F274137B
:1056B000C1F20003074943F82210FB794FEA0312B5
:1056C000024BD21842F604730AE000BF1C1200100D
:1056D0000080ED44000000006F12833ACDCCCC3D39
:1056E000C0F2010311461A464FF00B03084611465B
:1056F0001A460DF047FAFB794FEA830241F2741320
:10570000C1F20003D21841F2F443C1F200031A605F
:10571000FB7903F10103FB71FA7941F27413C1F2D1
:1057200000032B4943F82210FB794FEA0312274B61
:10573000D21842F61073C0F2010311461A464FF018
:105740000A03084611461A460DF01CFAFB794FEA87
:10575000830241F27413C1F20003D21841F2141310
:10576000C1F200031A60FB7903F10103FB71FA79BE
:1057700041F27413C1F20003154943F82210FB797A
:105780004FEA0312114BD21842F61C73C0F2010308
:1057900011461A464FF00C03084611461A460DF002
:1057A000F1F9FB794FEA830241F27413C1F200036D
:1057B000D21841F2D443C1F200031A60FB7903F11D
:1057C0000103FB7107F10807BD4680BD1C120010E4
:1057D0000000000080B500AF40F6F053C1F20003B6
:1057E0004FF00D021A7040F6F053C1F200034FF073
:1057F00032025A7040F6F053C1F200034FF0020239
:105800009A7040F6F053C1F200034FF040021A7153
:1058100040F6F053C1F200034FF040025A7140F6D7
:10582000F053C1F200034FF00402DA7041F220138A
:10583000C1F200034FF05A029A7741F22013C1F2ED
:1058400000034FF4FA729A8141F22013C1F200036F
:1058500042F65C32DA8141F22013C1F200034FF6C6
:10586000FF721A82FFF766F841F27410C1F200006D
:105870004FF0A80105F050FD80BD00BF0000000002
:10588000B0B5D6B002AF4FF00003C7F848314FF0C3
:105890000003A7F846314FF00003A7F8443140F267
:1058A0006C50C1F2000003F095FA0346C7F84C3182
:1058B000D7F84C31002B40F0A482C8E240F26C5380
:1058C000C1F20003D7F848219B181B7887F84231B2
:1058D000D7F8483103F10103C7F8483197F842116E
:1058E00007F1280207F11C034FF00000FEF7AEFCA1
:1058F0000346002B00F08C8207F12803DB79172B7D
:1059000000F06581172B08DC0B2B0FD0152B00F056
:105910005481002B00F0778270E24C2B00F07582EE
:105920005A2B26D0452B00F0368267E207F1280378
:105930001846FEF7ABFE03461A4640F6F053C1F296
:1059400000031A7107F128031846FEF7AFFE03465D
:105950001A4640F23453C1F200031A604FF00000BF
:105960004FF0B0014FF00002FEF734FF03F0E2FA0F
:105970004EE207F128031846FEF74CFF034618468F
:105980000CF07AFA02460B4610461946AAA3D3E950
:1059900000230CF0C5FA02460B46104619460CF0DF
:1059A00081FD024640F65863C1F200031A6007F118
:1059B00028031846FEF73EFF034618460CF05CFA33
:1059C00002460B46104619469BA3D3E900230CF070
:1059D000A7FA02460B46104619460CF063FD024634
:1059E00040F65863C1F200035A6007F128031846D5
:1059F000FEF730FF034618460CF03EFA02460B460F
:105A0000104619468CA3D3E900230CF089FA02460C
:105A10000B46104619460CF045FD024640F6586309
:105A2000C1F200039A6040F65863C1F200039B681C
:105A30004FF001021446184683490DF04DF8034615
:105A4000002B02D14FF000031C46E3B2002B0FD015
:105A500040F65863C1F200039B6818467B490CF07E
:105A600075FD03461A4640F65863C1F200039A607A
:105A700007F128031846FEF70DFF034618460CF001
:105A8000FBF902460B46104619466BA3D3E90023E7
:105A90000CF046FA02460B46104619460CF002FD81
:105AA000024640F65863C1F20003DA6007F12803AA
:105AB0001846FEF7FFFE034618460CF0DDF90246D5
:105AC0000B46104619465CA3D3E900230CF028FAD4
:105AD00002460B46104619460CF0E4FC024640F61E
