:10000000141E0010499A0000B59A0000B59A00002D
:10001000B59A0000B59A0000B59A000000000000F3
:10002000000000000000000000000000B59A000081
:10003000B59A000000000000B59A0000B59A0000D3
:10004000B59A0000B59A0000B59A00004D01000075
:10005000B59A0000B59A0000B59A0000B59A000064
:10006000B59A0000B59A0000B59A0000B59A000054
:10007000B59A0000B59A0000B59A0000B59A000044
:10008000B59A0000B59A0000B59A000041990000A9
:10009000B59A000011980000B59A0000B59A0000CA
:1000A000B59A0000B59A0000E9880000B59A0000F2
:1000B000B59A0000E5010000B59A0000B59A00006D
:1000C000B59A0000B59A0000B59A000080B500AF5F
:1000D00000F004F800F048F880BD00BF80B586B09D
:1000E00000AF4FF001033B744FF064037B614FF0AE
:1000F00000033B714FF000037B714FF00103FB7174
:100100004FF00003BB714FF000033B724FF4A84364
:10011000C2F6EA23FB6007F110034FF040204FF0D6
:1001200000011A4602F010FB07F104034FF04020D3
:10013000194602F02BFC4FF040204FF0010102F075
:10014000E9FB07F11807BD4680BD00BF80B500AFD1
:100150004FF00000C4F209004FF0000102F0A4FAD1
:1001600005F0FCFE80BD00BF80B586B000AF4FF04B
:1001700001033B744FF001037B614FF000033B71BF
:100180004FF000037B714FF00103FB714FF0000350
:10019000BB714FF000033B724FF43453C0F2311384
:1001A000FB6007F110034FF00000C4F209004FF0AC
:1001B00000011A4602F0C8FA07F104034FF00000EC
:1001C000C4F20900194602F0E1FB4FF00000C4F24E
:1001D00009004FF0010102F09DFB07F11807BD4631
:1001E00080BD00BF80B500AF4FF00000C4F20B002F
:1001F00003F022FD40F28043C1F200034FF0010200
:100200001A7080BD80B400AF4FF040239B68184641
:10021000BD4680BC704700BFB0B500AFFFF7F2FF2E
:10022000024640F20003C1F200031A6040F20003EC
:10023000C1F200031A684CF6CD43CCF6CC43A3FBC5
:1002400002134FEAD30240F28843C1F200031A605E
:1002500040F28843C1F200031B68A3F57A7240F2B2
:100260009043C1F200031B689A4210D940F28043C8
:10027000C1F200034FF001021A7040F28843C1F24C
:1002800000031A6840F29043C1F200031A6040F282
:100290008843C1F200031B68A3F10A0240F28C43B9
:1002A000C1F200031B689A4210D940F28143C1F2A7
:1002B00000034FF001021A7040F28843C1F20003BC
:1002C0001A6840F28C43C1F200031A6040F288437E
:1002D000C1F200031B68A3F1140240F29443C1F27F
:1002E00000031B689A4210D940F28243C1F2000316
:1002F0004FF001021A7040F28843C1F200031A68FD
:1003000040F29443C1F200031A6040F28843C1F204
:1003100000031B68A3F1640240F29843C1F200039A
:100320001B689A4210D940F28343C1F200034FF098
:1003300001021A7040F28843C1F200031A6840F2C9
:100340009843C1F200031A6040F28843C1F20003EF
:100350001B68A3F1320240F29C43C1F200031B6808
:100360009A4210D940F28443C1F200034FF00102D7
:100370001A7040F28843C1F200031A6840F29C43AD
:10038000C1F200031A6040F28843C1F200031B6807
:10039000A3F1C80240F2A043C1F200031B689A42D5
:1003A00010D940F28543C1F200034FF001021A70E8
:1003B00040F28843C1F200031A6840F2A043C1F240
:1003C00000031A6040F20003C1F200031B681846E4
:1003D00012F012FC044641F24413C1F200031B6800
:1003E0001B681B48194612F013FD034620461946A8
:1003F00012F050FB03461D4640F2A443C1F2000335
:100400001B68184612F0F8FB03464FF00102144631
:100410002846194612F004FE0346002B02D14FF085
:1004200000031C46E3B2002B10D040F28643C1F219
:1004300000034FF001021A7040F20003C1F2000302
:100440001A6840F2A443C1F200031A60B0BD00BFB5
:1004500000401C4680B500AF4FF077004FF01E0102
:1004600000F0EEFA80BD00BF80B582B000AF4FF063
:100470000003FB714FF00A0005F08EFD4FF0000302
:10048000FB712EE0FB7903F15103DBB24FEA43032A
:10049000DBB207F104024FF0770011461A464FF025
:1004A000020300F0FFFA0346BB71BB79002B04D1B5
:1004B0000EF0F4FAFFF7D8FF16E0FB7903F1010222
:1004C0003B794FEA032399B27B79CB1899B240F27A
:1004D000B043C1F2000323F81210FB7903F10103CA
:1004E000FB71FB79052BCDD907F10807BD4680BD0F
:1004F00080B500AF4FF00A0005F04EFDFFF7AAFFF0
:100500004FF0640005F048FDFFF7AEFF80BD00BF6F
:1005100080B582B000AF4FF077004FF0580100F087
:100520008FFA0346FB71FB79002B04D10EF0B6FA6B
:10053000FFF7EEFF00BF07F10807BD4680BD00BF13
:1005400080B582B000AF4FF077004FF0480100F067
:1005500077FA0346FB71FB79002B04D10EF09EFA6B
:10056000FFF7EEFF00BF07F10807BD4680BD00BFE3
:1005700080B582B000AF07F104034FF07700194651
:100580004FF000024FF0030300F08CFA0346FB71BA
:10059000FB79002B04D10EF081FAFFF7E9FF11E09F
:1005A0003A7940F2B043C1F200039A757A7940F289
:1005B000B043C1F200035A75BA7940F2B043C1F2B8
:1005C00000031A7507F10807BD4680BD80B582B0EB
:1005D00000AF07F104034FF0770019464FF0000217
:1005E0004FF0030300F05EFA0346FB71FB79002B2A
:1005F00004D10EF053FAFFF7E9FF11E03A7940F227
:10060000B043C1F200039A747A7940F2B043C1F268
:1006100000035A74BA7940F2B043C1F200031A746D
:1006200007F10807BD4680BD2DE9900F8CB000AFE3
:1006300040F2B043C1F200031A6940F2B043C1F284
:1006400000035B894FEA0323D11A0A464FF00003E7
:10065000C7E90A2340F2B043C1F200039B884FEA86
:1006600003433B614FF00000786140F2B043C1F2B8
:1006700000031B8998B24FF00001BB6A01FB03F233
:10068000FB6A00FB03F3D418BB6AA3FB0023E11849
:100690000B464FEA43614FEAD21841EA08084FEA95
:1006A000E319D7E9042312EB080243EB0903C7E976
:1006B000082340F2B043C1F200035B884FEAC33322
:1006C00098464FF0000940F2B043C1F20003DB88C6
:1006D00098B24FF00001BB6A01FB03F2FB6A00FB1A
:1006E00003F3D418BB6AA3FB0023E1180B464FEABF
:1006F00003614FEA122A41EA0A0A4FEA232B4246D3
:100700004B4612EB0A0243EB0B03C7E9062340F208
:10071000B043C1F200035B6918464FF00001BB69AA
:1007200001FB03F2FB6900FB03F3D418BB69A3FBD5
:100730000023E1180B464FEAC3214FEA5250B8603C
:10074000B8680843B8604FEA6351F960D7E90823F5
:10075000D7E90201821A61EB03034FEA43414FEAF2
:10076000D23038603868084338604FEAE331796046
:100770003A6840F20403C1F200031A6007F130073F
:10078000BD46BDE8900F70472DE9B04382B000AF81
:100790007860786812F030FA024640F2D043C1F235
:1007A00000031B681046194612F076F903461A46F4
:1007B00040F2D043C1F200031A6040F2B043C1F2EC
:1007C0000003DA697B689A4205D940F2A843C1F276
:1007D00000031B6810E140F2B043C1F200034FF088
:1007E0000A02DA6140F2B043C1F200031B7E032B20
:1007F00000F2FD8001A252F823F000BF0D080000B6
:100800003B0800005B08000089080000FFF780FE3D
:1008100040F2B043C1F200031B7E03F10103DAB2E0
:1008200040F2B043C1F200031A7640F2B043C1F285
:1008300000034FF00A02DA61D9E0FFF7C7FE40F289
:10084000B043C1F200031B7E03F10103DAB240F2B0
:10085000B043C1F200031A76C9E0FFF771FE40F21F
:10086000B043C1F200031B7E03F10103DAB240F290
:10087000B043C1F200031A7640F2B043C1F2000364
:100880004FF00A02DA61B2E0FFF772FEFFF7CCFE2A
:1008900040F20403C1F200031B68184612F0ACF9E1
:1008A000034618465E4912F0B3FA0346184611F0A3
:1008B00087FD02460B461046194653A3D3E9002391
:1008C0000EF008FC02460B464FF000004FF07E5140
:1008D00001F5E00111F014FC02460B4610461946E2
:1008E0004BA3D3E9002311F0BFFD02460B4610468F
:1008F000194612F07BF8024640F2A843C1F2000309
:100900001A6040F2B043C1F200034FF000021A76C1
:1009100040F2B043C1F200034FF00A02DA6140F244
:10092000AC43C1F200031B68184611F049FD0246B2
:100930000B461046194638A3D3E9002311F094FD65
:1009400002460B4614461D4640F2A843C1F200037E
:100950001A6840F2D443C1F200031B6810461946DE
:1009600012F098F80346184611F02AFD02460B468D
:10097000104619464FF000024FF0804303F5D203B2
:1009800011F072FD02460B469046994640F2D04364
:10099000C1F200031B68184611F012FD02460B4617
:1009A0004046494611F08AFE02460B46204629463B
:1009B00011F0A8FB02460B461046194612F016F835
:1009C000024640F2AC43C1F200031A6040F2A84371
:1009D000C1F200031A6840F2D443C1F200031A6066
:1009E00040F2D043C1F200030E4A1A6000BF40F249
:1009F000A843C1F200031B68184607F10807BD466B
:100A0000BDE8B083AFF3008000000020965BC83FD4
:100A10000000000040A5E5409A9999999999E93F0D
:100A200080E6C5470000000080B400AF40F2AC4350
:100A3000C1F200031B681846BD4680BC704700BF6A
:100A400080B58EB000AF02460B46FA71BB71BB7920
:100A50003B72FB79FB6007F108033B614FF0010338
:100A60007B614FF00003FB614FF000033B624FF0EE
:100A70000503BB6207F10C034FF44040C4F20500CC
:100A800019464FF0000209F0A7FC0346002B02D1E3
:100A90004FF0000301E04FF00103184607F138075B
:100AA000BD4680BD80B58EB000AF39600146F9719A
:100AB000BA71BB80BB793B72FB79FB6007F108031D
:100AC0003B614FF001037B613B68FB61BB883B628C
:100AD0004FF00503BB6207F10C034FF44040C4F232
:100AE000050019464FF0000209F076FC0346002B82
:100AF00002D14FF0000301E04FF00103184607F167
:100B00003807BD4680BD00BFB0B500AF41F68413C5
:100B1000C1F200035A8840F60463C1F200031A8050
:100B200041F68413C1F200039A8840F60463C1F2CF
:100B300000035A8041F68413C1F200031A8940F67B
:100B40000463C1F200039A8041F68413C1F20003EA
:100B5000DA8840F60463C1F20003DA8040F60463E9
:100B6000C1F20003DB881AB240F22D439A4200F32F
:100B70008A8040F60463C1F200039B881BB2B3F580
:100B8000E16F13DD40F63C63C1F200031B78002BDC
:100B90000CD140F21053C1F200031B6803F10102B3
:100BA00040F21053C1F200031A601CE040F60463E7
:100BB000C1F200039B881AB240F2AF439A4212DCA2
:100BC00040F63C63C1F200031B78002B0BD040F2CF
:100BD0001053C1F200031B6803F1FF3240F21053BF
:100BE000C1F200031A6040F21053C1F200031B6807
:100BF000312B2CDD40F63C63C1F200031B78002B47
:100C000025D140F63C63C1F200034FF001021A7097
:100C100040F62C63C1F200039A6840F2D843C1F257
:100C200000031B681046194611F036FF03461A46AA
:100C300040F2D843C1F200031A6040F21053C1F2EF
:100C400000034FF032021A6002F010FE1BE040F287
:100C50001053C1F200031B68002B14DC40F63C6308
:100C6000C1F200031B78002B0DD040F63C63C1F2AB
:100C700000034FF000021A7040F21053C1F200035B
:100C80004FF000021A6041F68413C1F200035B8941
:100C90001AB240F2E2439A4218DD41F68413C1F2DF
:100CA00000035B891AB240F2D5639A420EDC40F62B
:100CB0003C63C1F200034FF001025A7040F63C63FE
:100CC000C1F200034FF000029A7030E041F6841345
:100CD000C1F200035B891AB240F2D5639A4218DD73
:100CE00041F68413C1F200035B891AB240F6970300
:100CF0009A420EDC40F63C63C1F200034FF0010261
:100D00005A7040F63C63C1F200034FF001029A7042
:100D10000DE040F63C63C1F200034FF000025A7050
:100D200040F63C63C1F200034FF000029A7041F2BA
:100D30000053C1F200031B681B68184612F07AF9D1
:100D4000024640F21453C1F200031A6040F21453F9
:100D5000C1F200031B68002B40F3958040F214534E
:100D6000C1F200031B680B2B00F38D8041F6841346
:100D7000C1F20003DB891BB2A3F57A73184611F0A8
:100D80003FFF044641F2D843C1F200031B681A68D2
:100D900041F21C53C1F200031B681B681046194640
:100DA00011F078FE03462046194611F07DFF0346F8
:100DB0001846DFF8E41512F02BF803461A4640F205
:100DC0001853C1F200031A6041F2D843C1F2000384
:100DD0001B681A6840F21853C1F200031B684FF0F9
:100DE00001010C461046194612F0FCF80346002B90
:100DF00002D14FF000031C46E3B2002B0BD041F2AE
:100E0000D843C1F200031B681A6840F21853C1F2BC
:100E100000031A6025E041F21C53C1F200031B6875
:100E20001A6840F21853C1F200031B684FF0010129
:100E30000C461046194612F0F3F80346002B02D177
:100E40004FF000031C46E3B2002B0AD041F21C53C2
:100E5000C1F200031B681A6840F21853C1F2000384
:100E60001A6040F21453C1F200031B6803F1FF3211
:100E700040F21853C1F20003196841F27413C1F231
:100E8000000343F8221041F2FC43C1F200031B6847
:100E90001B68184612F0CEF8024640F21453C1F215
:100EA00000031A6040F21453C1F200031B68002BC8
:100EB00040F3958040F21453C1F200031B680C2BE1
:100EC00000F38D8041F68413C1F200039B891BB2AD
:100ED000A3F57A73184611F093FE044641F20453C9
:100EE000C1F200031B681A6841F2E843C1F2000333
:100EF0001B681B681046194611F0CCFD03462046BE
:100F0000194611F0D1FE03461846DFF88C1411F093
:100F10007FFF03461A4640F21853C1F200031A60DD
:100F200041F20453C1F200031B681A6840F21853DF
:100F3000C1F200031B684FF001010C461046194630
:100F400012F050F80346002B02D14FF000031C466C
:100F5000E3B2002B0BD041F20453C1F200031B6833
:100F60001A6840F21853C1F200031A6025E041F2FA
:100F7000E843C1F200031B681A6840F21853C1F23B
:100F800000031B684FF001010C461046194612F091
:100F900047F80346002B02D14FF000031C46E3B292
:100FA000002B0AD041F2E843C1F200031B681A6823
:100FB00040F21853C1F200031A6040F21453C1F218
:100FC00000031B6803F1FF3240F21853C1F2000323
:100FD000196841F27413C1F2000343F8221040F67D
:100FE0003C63C1F200031B784FEAC313DBB243F04A
:100FF0001003DAB240F63C63C1F200035B784FEABB
:10100000C303DBB21343DAB240F63C63C1F2000320
:101010009B784FEA8303DBB21343DBB2DAB240F6CC
:10102000F053C1F200031A7140F63C63C1F20003B1
:101030009B78002B7ED040F60063C1F200031B6852
:101040001B684FF0010214461846D44911F0DEFF28
:101050000346002B02D14FF000031C46E3B2002BE5
:1010600014D040F6AC43C1F200031A6840F6806326
:10107000C1F200031A6040F6B043C1F200031A68DF
:1010800040F68063C1F200035A6091E040F60463C9
:10109000C1F200031B881BB2A3F5BA63A3F10C03D2
:1010A000184611F0ADFD024640F6FC53C1F20003B4
:1010B0001B681B681046194611F0AAFE03461A4623
:1010C00040F6AC43C1F200031B681046194611F00C
:1010D000E3FC03461A4640F68063C1F200031A603F
:1010E00040F6B043C1F200031C6840F60463C1F24D
:1010F00000035B881BB2A3F5BA63A3F10C03184687
:1011000011F07EFD024640F6FC53C1F200031B685D
:101110001B681046194611F07BFE0346204619460F
:1011200011F0B8FC03461A4640F68063C1F2000392
:101130005A603DE040F60463C1F200031B881BB215
:10114000A3F5BA63A3F10C03184611F059FD02464A
:1011500040F6FC53C1F200031B681B681046194699
:1011600011F056FE03461A4640F68063C1F20003B2
:101170001A6040F60463C1F200035B881BB2C3F53A
:10118000BA6303F10C03184611F03AFD024640F62B
:10119000FC53C1F200031B681B681046194611F08E
:1011A00037FE03461A4640F68063C1F200035A60D8
:1011B00040F60463C1F200039B881BB2A3F5BA6337
:1011C000A3F10C03002BB8BF5B421E2B40F39880A9
:1011D00040F60463C1F20003DB881BB2184611F02D
:1011E0000FFD024641F22853C1F200031B681B6841
:1011F0004FF001010C461046194611F011FF03464D
:10120000002B02D14FF000031C46E3B2002B77D035
:1012100040F68063C1F200039C6840F6EC53C1F2D3
:1012200000031B681D6840F60463C1F200039B883D
:101230001BB2A3F5BA63A3F10C03184611F0E0FC4E
:1012400003462846194611F02FFD03461846524919
:1012500011F0DEFD03462046194611F01DFC034641
:101260001A4640F68063C1F200039A6040F680633C
:10127000C1F200039B684FF001021446184648492A
:1012800011F0CEFE0346002B02D14FF000031C46A6
:10129000E3B2002B0FD040F68063C1F200039B68DD
:1012A0001846404911F0F6FB03461A4640F68063A3
:1012B000C1F200039A6040F68063C1F200039B68AC
:1012C0004FF0010214461846374911F095FE0346C7
:1012D000002B02D14FF000031C46E3B2002B0FD0CD
:1012E00040F68063C1F200039B6818462D4911F057
:1012F000D3FB03461A4640F68063C1F200039A60AE
:1013000040F63C63C1F200035B78002B43D040F60B
:101310000463C1F20003DB881AB240F20C03C1F28D
:1013200000031B68D21A40F21C53C1F200031A607A
:1013300040F21C53C1F200031B68002BB8BF5B4294
:10134000502B28DD40F60C63C1F200039C6840F688
:10135000F853C1F200031B681D6840F21C53C1F230
:1013600000031B68184611F04BFC0346284619463B
:1013700011F09AFC034618460C4911F049FD03464A
:101380002046194611F088FB03461A4640F60C63C6
:10139000C1F200039A60B0BD00007A440000803FB3
:1013A000000034430000B443000034C300409C46B6
:1013B00080B400AF40F63C63C1F200034FF000027E
:1013C0005A7040F63C63C1F200034FF000021A70FD
:1013D00040F63C63C1F200034FF000029A70BD4634
:1013E00080BC70470000000098B500AF4FF00003CC
:1013F000C4F209039B681A4640F2F043C1F20003AD
:101400001A6040F2F043C1F200031A6840F2F4435C
:10141000C1F200031B689A4228D240F2F043C1F2A5
:1014200000031A6840F2F443C1F200031B68D21AA9
:101430004FF43453C0F23113D318184610F09EFF06
:1014400002460B46104619465FA3D3E9002311F06C
:1014500035F902460B461046194611F0C7FA024606
:1014600040F21403C1F200031A6022E040F2F0439C
:10147000C1F200031A6840F2F443C1F200031B6892
:10148000D31A184610F07AFF02460B46104619464A
:101490004DA3D3E9002311F011F902460B46104683
:1014A000194611F0A3FA024640F21403C1F20003F8
:1014B0001A6040F2F043C1F200031A6840F2F443AC
:1014C000C1F200031A6040F60463C1F20003DB8836
:1014D0001BB2184611F094FB024641F22853C1F2A8
:1014E00000031B681B684FF001010C4610461946AB
:1014F00011F078FD0346002B02D14FF000031C468B
:10150000E3B2002B66D040F60463C1F20003DA8830
:1015100041F67C13C1F20003DA8041F67C13C1F27C
:101520000003DA8841F67C13C1F200039A8041F689
:101530007C13C1F200039A8841F67C13C1F20003C8
:101540005A8041F67C13C1F200035A8841F67C139D
:10155000C1F200031A8040F65863C1F200039A6892
:1015600040F68063C1F200039A6040F2DC43C1F2AE
:101570000003174A1A6040F2DC43C1F200031A6804
:1015800040F2F843C1F200031A6040F2F843C1F29E
:1015900000031A6840F2FC43C1F200031A6040F2F3
:1015A000FC43C1F200031A6840F20053C1F2000389
:1015B0001A6040F62C63C1F200039A6840F60C638F
:1015C000C1F200039A60DDE20000000080842E4139
:1015D0000000000040F68063C1F200039A6840F604
:1015E0005863C1F200039B681046194611F052FA85
:1015F00003461A4640F20453C1F200031A6040F257
:101600000453C1F200031B684FF001021446184650
:10161000DFF8781511F004FD0346002B02D14FF0DE
:1016200000031C46E3B2002B10D040F20453C1F279
:1016300000031B681846DFF8581511F02BFA034613
:101640001A4640F20453C1F200031A6040F20453F8
:10165000C1F200031B684FF0010214461846DFF880
:10166000341511F0C9FC0346002B02D14FF00003E2
:101670001C46E3B2002B10D040F20453C1F2000329
:101680001B681846DFF8081511F006FA03461A46DB
:1016900040F20453C1F200031A6040F68063C1F2C5
:1016A00000031A6840F65863C1F200031B68104635
:1016B000194611F0EFF903461A4640F20853C1F2F9
:1016C00000031A6040F68063C1F200035A6840F6D6
:1016D0005863C1F200035B681046194611F0DAF94D
:1016E00003461A4640F20C53C1F200031A6041F25D
:1016F0004C13C1F200031B681A6840F20853C1F290
:1017000000031B681046194611F0CEFA03461A462C
:1017100040F21403C1F200031B681046194611F091
:10172000C3FA03461A4640F20053C1F200031B6895
:101730001046194611F0B0F903461A4640F200531C
:10174000C1F200031A6041F26413C1F200031B6886
:1017500040F20050C1F20000194600F021FA41F2B7
:101760004C13C1F200031B681A6840F20C53C1F21B
:1017700000031B681046194611F096FA03461A46F4
:1017800040F21403C1F200031B681046194611F021
:101790008BFA03461A4640F2FC43C1F200031B6871
:1017A0001046194611F078F903461A4640F2FC43F8
:1017B000C1F200031A6041F26413C1F200031B6816
:1017C00040F2FC40C1F20000194600F0E9F941F294
:1017D0005413C1F200031B681A6840F20453C1F2AB
:1017E00000031B681046194611F05EFA03461A46BC
:1017F00040F21403C1F200031B681046194611F0B1
:1018000053FA03461A4640F2F843C1F200031B683C
:101810001046194611F040F903461A4640F2F843C3
:10182000C1F200031A6041F21813C1F200031B68F1
:1018300040F2F840C1F20000194600F0B1F941F25F
:101840001453C1F200031B681A6840F20853C1F236
:1018500000031B681046194611F026FA03461A4683
:1018600040F20053C1F200031B681046194611F004
:1018700013F903461C4641F20853C1F200031B68EA
:101880001A6840F65863C1F20003DB681046194637
:1018900011F00AFA03462046194611F0FBF80346F8
:1018A0001A4640F61C63C1F200031A6041F2145359
:1018B000C1F200031B681A6840F20C53C1F2000326
:1018C0001B681046194611F0EFF903461A4640F21C
:1018D000FC43C1F200031B681046194611F0DCF806
:1018E00003461C4641F20853C1F200031B681A6804
:1018F00040F65863C1F200031B691046194611F007
:10190000D3F903462046194611F0C4F803461A4697
:1019100040F61C63C1F200035A6041F26C13C1F23D
:1019200000031B681A6840F20453C1F200031B68ED
:101930001046194611F0B8F903461A4640F2F8432A
:10194000C1F200031B681046194611F0A5F80346C2
:101950001C4641F2F843C1F200031B681A6840F6C6
:101960005863C1F200035B691046194611F09CF9F7
:1019700003462046194611F08DF803461A4640F6F4
:101980001C63C1F200039A6040F63C63C1F200039D
:101990005B78002B0ED040F20803C1F200031B68F5
:1019A000184611F02DF9024640F61C63C1F20003FF
:1019B000DA6029E040F60463C1F20003DB881BB261
:1019C000184611F01DF9024640F61C63C1F20003EF
:1019D000DA6040F2DC43C1F200036F4A1A6040F65D
:1019E0000463C1F20003DB881AB240F20C03C1F2B7
:1019F00000031A6040F62C63C1F200039A6840F6B7
:101A00000C63C1F200039A6000F008F940F61C6311
:101A1000C1F20003DA6840F61C63C1F200035B68A0
:101A20001046194611F038F803461A4640F61C6372
:101A3000C1F200031B681046194611F02DF8034649
:101A40001A4640F61C63C1F200039B681046194613
:101A500011F020F80346184611F0ECFA03469AB24A
:101A600041F67C13C1F200039A8040F61C63C1F278
:101A70000003DA6840F61C63C1F200035B6810469D
:101A8000194611F009F803461A4640F61C63C1F2E4
:101A900000031B681046194610F0FCFF03461A4667
:101AA00040F61C63C1F200039B681046194610F013
:101AB000F3FF0346184611F0BDFA03469AB241F609
:101AC0007C13C1F200035A8040F61C63C1F200038C
:101AD000DA6840F61C63C1F200035B6810461946E1
:101AE00010F0D8FF03461A4640F61C63C1F200030B
:101AF0001B681046194610F0CFFF03461A4640F601
:101B00001C63C1F200039B681046194610F0C4FF25
:101B10000346184611F08EFA03469AB241F67C133A
:101B2000C1F20003DA8040F61C63C1F20003DA68F8
:101B300040F61C63C1F200035B681046194610F0C2
:101B4000A9FF03461A4640F61C63C1F200031B6856
:101B50001046194610F09EFF03461A4640F61C63D5
:101B6000C1F200039B681046194610F093FF03462C
:101B7000184611F05FFA03469AB241F67C13C1F29F
:101B800000031A8000F03AF998BD00BF000034430A
:101B90000000B443000034C300000000AFF3008035
:101BA00090B583B000AF786039607B681A683B6895
:101BB0001B684FF001010C461046194611F030FA2F
:101BC0000346002B02D14FF000031C46E3B2002B6A
:101BD00004D03B681A687B681A601BE07B681A684F
:101BE0003B681B6883F000434FF001010C46104630
:101BF000194611F0F7F90346002B02D14FF000030C
:101C00001C46E3B2002B05D03B681B6883F0004202
:101C10007B681A6007F10C07BD4690BD98B500AF10
:101C200040F61C63C1F200031B684FF0010214462A
:101C300018466F4911F0F4F90346002B02D14FF01A
:101C400000031C46E3B2002B06D040F61C63C1F231
:101C50000003674A1A601AE040F61C63C1F20003F1
:101C60001B684FF0010214461846624911F0BAF998
:101C70000346002B02D14FF000031C46E3B2002BB9
:101C800005D040F61C63C1F200035A4A1A6040F6C0
:101C90001C63C1F200035B684FF001021446184652
:101CA000534911F0BDF90346002B02D14FF0000358
:101CB0001C46E3B2002B06D040F61C63C1F20003C1
:101CC0004B4A5A601AE040F61C63C1F200035B689D
:101CD0004FF0010214461846464911F083F90346B5
:101CE000002B02D14FF000031C46E3B2002B05D0BD
:101CF00040F61C63C1F200033E4A5A6040F61C6382
:101D0000C1F200039B684FF001021446184638499F
:101D100011F086F90346002B02D14FF000031C4658
:101D2000E3B2002B06D040F61C63C1F20003304A38
:101D30009A601AE040F61C63C1F200039B684FF002
:101D40000102144618462B4911F04CF90346002BAA
:101D500002D14FF000031C46E3B2002B05D040F641
:101D60001C63C1F20003234A9A6040F61C63C1F26F
:101D70000003DB684FF00102144618461E4911F0BB
:101D80004FF90346002B02D14FF000031C46E3B28B
:101D9000002B06D040F61C63C1F20003164ADA603D
:101DA00025E040F61C63C1F20003DA6841F22853D3
:101DB000C1F200031B681B684FF001010C4610467E
:101DC000194611F00FF90346002B02D14FF0000322
:101DD0001C46E3B2002B0AD041F22853C1F20003A3
:101DE0001B681A6840F61C63C1F20003DA6098BDF4
:101DF00000004844000048C400C0DA4498B500AF71
:101E000040F60463C1F20003DB881BB2184610F0F1
:101E1000F7FE024641F22853C1F200031B681B681B
:101E20004FF001010C461046194611F0DBF803464D
:101E3000002B02D14FF000031C46E3B2002B28D048
:101E400040F60463C1F20003DA8841F67C13C1F264
:101E50000003DA8041F67C13C1F20003DA8841F610
:101E60007C13C1F200039A8041F67C13C1F2000397
:101E70009A8841F67C13C1F200035A8041F67C1324
:101E8000C1F200035A8841F67C13C1F200031A80A4
:101E900083E141F67C13C1F200031B881BB2184694
:101EA00010F0AEFE024641F22853C1F200031B6857
:101EB0001B684FF001010C461046194611F092F8CC
:101EC0000346002B02D14FF000031C46E3B2002B67
:101ED00010D041F22853C1F200031B681B6818465A
:101EE00011F0A8F803469AB241F67C13C1F2000340
:101EF0001A802FE041F67C13C1F200031B881BB24D
:101F0000184610F07DFE024641F21C13C1F2000398
:101F10001B681B684FF001010C461046194611F072
:101F20007FF80346002B02D14FF000031C46E3B2BA
:101F3000002B0FD041F21C13C1F200031B681B6879
:101F4000184611F077F803469AB241F67C13C1F2B5
:101F500000031A8041F67C13C1F200035B881BB2B8
:101F6000184610F04DFE024641F22853C1F200031C
:101F70001B681B684FF001010C461046194611F012
:101F800031F80346002B02D14FF000031C46E3B2A8
:101F9000002B10D041F22853C1F200031B681B68CC
:101FA000184611F047F803469AB241F67C13C1F285
:101FB00000035A802FE041F67C13C1F200035B88D6
:101FC0001BB2184610F01CFE024641F21C13C1F26F
:101FD00000031B681B684FF001010C4610461946B0
:101FE00011F01EF80346002B02D14FF000031C46EF
:101FF000E3B2002B0FD041F21C13C1F200031B68A7
:102000001B68184611F016F803469AB241F67C1385
:10201000C1F200035A8041F67C13C1F200039B8891
:102020001BB2184610F0ECFD024641F22853C1F2F3
:1020300000031B681B684FF001010C46104619464F
:1020400010F0D0FF0346002B02D14FF000031C46D6
:10205000E3B2002B10D041F22853C1F200031B68F9
:102060001B68184610F0E6FF03469AB241F67C134F
:10207000C1F200039A802FE041F67C13C1F2000305
:102080009B881BB2184610F0BBFD024641F21C13A0
:10209000C1F200031B681B684FF001010C4610469B
:1020A000194610F0BDFF0346002B02D14FF000038C
:1020B0001C46E3B2002B0FD041F21C13C1F2000307
:1020C0001B681B68184610F0B5FF03469AB241F62C
:1020D0007C13C1F200039A8041F67C13C1F2000325
:1020E000DB881BB2184610F08BFD024641F22853E4
:1020F000C1F200031B681B684FF001010C4610463B
:10210000194610F06FFF0346002B02D14FF0000379
:102110001C46E3B2002B10D041F22853C1F2000359
:102120001B681B68184610F085FF03469AB241F6FB
:102130007C13C1F20003DA802FE041F67C13C1F278
:102140000003DB881BB2184610F05AFD024641F22C
:102150001C13C1F200031B681B684FF001010C4601
:102160001046194610F05CFF0346002B02D14FF0D9
:1021700000031C46E3B2002B0FD041F21C13C1F246
:1021800000031B681B68184610F054FF03469AB200
:1021900041F67C13C1F20003DA8098BD0000000014
:1021A000B0B582B000AFAE4B7B604FF00003C4F21D
:1021B00009039B681A4640F2E043C1F200031A602B
:1021C00040F2E043C1F200031A6840F2E443C1F276
:1021D00000031B689A4228D240F2E043C1F2000398
:1021E0001A6840F2E443C1F200031B68D21A4FF4AC
:1021F0003453C0F23113D318184610F0BFF802461A
:102200000B46104619468CA3D3E9002310F056FA6A
:1022100002460B461046194610F0E8FB024640F213
:102220001003C1F200031A6022E040F2E043C1F261
:1022300000031A6840F2E443C1F200031B68D31A9A
:10224000184610F09BF802460B46104619467AA332
:10225000D3E9002310F032FA02460B461046194625
:1022600010F0C4FB024640F21003C1F200031A60F2
:1022700040F2E043C1F200031A6840F2E443C1F2C5
:1022800000031A6040F21003C1F200031B681846F5
:10229000744910F009FD0346184610F0F1FE03469C
:1022A0001846FEF771FA024640F2E843C1F2000315
:1022B0001A6040F62C63C1F200039B68184610F0C8
:1022C0007FF802460B46104619465DA3D3E900236A
:1022D00010F0CAF802460B4614461D4640F2E84389
:1022E000C1F200031A6840F2D843C1F200031B6830
:1022F0001046194610F0CEFB0346184610F060F861
:1023000002460B46104619464FA3D3E9002310F0AE
:10231000ABF802460B46204629460FF0F3FE024674
:102320000B461046194610F061FB024640F62C633E
:10233000C1F200039A6040F6E053C1F200031B684B
:10234000184610F03DF802460B461046194640A3C9
:10235000D3E9002310F088F802460B4614461D46C8
:10236000FEF762FB0346184610F02AF802460B46B9
:102370001046194638A3D3E9002310F075F8024639
:102380000B46204629460FF0BDFE02460B4610467E
:10239000194610F02BFB024640F6E053C1F2000351
:1023A0001A6040F6E053C1F200031A6840F62C634D
:1023B000C1F20003DA6040F60C63C1F200039A68D0
:1023C00040F62C63C1F200039B681046194610F0DA
:1023D00061FB03461A4640F2EC43C1F200031A6067
:1023E00041F22453C1F200031B681A6840F2EC4327
:1023F000C1F200031B681046194610F055FC034655
:102400001846194910F004FD03467B604FF00103A4
:102410001C467868154910F003FE0346002B02D1D4
:102420004FF000031C46E3B2002B21D00F4B7B6022
:1024300030E000BFAFF300800000000080842E4138
:102440009A9999999999E93F9A9999999999C93F2E
:102450000AD7A3703D0AEF3FB81E85EB51B89E3FE7
:102460000000000000007A440000C8420000C03FA5
:102470004FF001031C467868424910F0B3FD034653
:10248000002B02D14FF000031C46E3B2002B01D019
:102490003C4B7B6041F2F443C1F200031B681C68B3
:1024A00040F62C63C1F20003DB687868194610F02F
:1024B000F1FA03462046194610F0F6FB03461A4689
:1024C00040F21003C1F200031B681046194610F0D9
:1024D000EBFB03461A4640F2DC43C1F200031B68E3
:1024E0001046194610F0D8FA03461A4640F2DC436B
:1024F000C1F200031A6041F20C53C1F200031B68E1
:1025000040F2DC40C1F200001946FFF749FB40F2FF
:102510000C03C1F200031B68184610F071FB04465F
:1025200041F2E043C1F200031B681D6840F62C63D2
:10253000C1F20003DB687868194610F0ABFA034675
:102540002846194610F0B0FB03462046194610F005
:10255000A3FA03461A4640F2DC43C1F200031B68AB
:102560001046194610F098FA0346184610F062FD1E
:10257000024640F20803C1F200031A6007F108079F
:10258000BD46B0BD0000C0BF80B584B000AF78606C
:102590007B68032B26D801A252F823F0AD2500005A
:1025A000BB250000C9250000D72500004FF0020020
:1025B00001F0CCFA0346FB6014E04FF0040001F098
:1025C000C5FA0346FB600DE04FF02C0001F0BEFAA7
:1025D0000346FB6006E04FF02E0001F0B7FA034619
:1025E000FB6000BFFB68184607F11007BD4680BDC1
:1025F00080B584B000AF786039607868FFF7C4FFB9
:1026000001460A464FF00003C7E90223BB683A6857
:1026100002FB03F24DF68363C4F21B33A3FB0213E8
:102620004FEA93410A464FF00003C7E90223BB6813
:10263000184607F11007BD4680BD00BF80B485B0C5
:1026400000AF78604FF0FF33FB607B68B3F1402F41
:1026500003D14FF00003FB601FE07A684FF40043A2
:10266000C4F200039A4203D14FF00103FB6014E06F
:102670007A684FF00003C4F209039A4203D14FF085
:102680000203FB6009E07A684FF48043C4F2090357
:102690009A4202D14FF00303FB60FB68184607F132
:1026A0001407BD4680BC704780B582B000AF78602B
:1026B0000B46FB707B68B3F1402F1CD07A684FF457
:1026C0000043C4F200039A4215D07A684FF0000329
:1026D000C4F209039A420ED07A684FF48043C4F2E0
:1026E00009039A4207D043F2E010C0F201004FF014
:1026F000D60107F0E3F9FB78002B16D0FB78012B0D
:1027000013D0FB78022B10D0FB78032B0DD0FB7875
:10271000042B0AD0FB78052B07D043F2E010C0F25F
:1027200001004FF0D70107F0C9F97B681B681A4612
:10273000FB784FF0010101FA03F31A437B681A603A
:1027400007F10807BD4680BD80B586B000AFF860D0
:102750000B467A60FB72FB68B3F1402F1CD0FA681D
:102760004FF40043C4F200039A4215D0FA684FF0C8
:102770000003C4F209039A420ED0FA684FF4804372
:10278000C4F209039A4207D043F2E010C0F20100FC
:102790004FF4927107F092F9FB7A002B10D0FB7A7C
:1027A000012B0DD0FB7A012B0AD0FB7A012B07D02D
:1027B00043F2E010C0F2010040F2251107F07EF96B
:1027C000FB68B3F1402F0CD14FF002004FF0010134
:1027D00001F0F6F94FF002004FF0000101F026F988
:1027E0003AE0FA684FF40043C4F200039A420CD175
:1027F0004FF004004FF0010101F0E2F94FF0040046
:102800004FF0000101F012F926E0FA684FF00003E2
:10281000C4F209039A420CD14FF480004FF0010139
:1028200001F0CEF94FF02C004FF0000101F0FEF85E
:1028300012E0FA684FF48043C4F209039A420BD1C4
:102840004FF400004FF0010101F0BAF94FF02E00F3
:102850004FF0000101F0EAF8FB689B6A23F00302E5
:10286000FB689A62FB689B6A1A46FB689A62FB687F
:102870004FF000029A60FB684FF000021A61FB689B
:102880004FF00002DA60FB685B6843F00202FB680D
:102890005A60FB685B6823F00202FB685A60FB7AAF
:1028A000002B1CD17B687B617B691B78002B06D1D8
:1028B0007B695B6803F1FF32FB68DA6021E0F8684E
:1028C000FFF7BCFE02467B695B6810461946FFF7BE
:1028D0008FFE034603F1FF32FB68DA6011E07B688C
:1028E0003B61FB689B6A23F00C02FB689A623B69C0
:1028F0005B78012B05D1FB689B6A43F00402FB68FF
:102900009A62FB684FF0FF321A6007F11807BD4664
:1029100080BD00BF80B582B000AF78600B46FB7011
:102920007B68B3F1402F1CD07A684FF40043C4F2A7
:1029300000039A4215D07A684FF00003C4F20903ED
:102940009A420ED07A684FF48043C4F209039A4247
:1029500007D043F2E010C0F201004FF4C77107F056
:10296000ADF8FB78012B06D17B685B6843F0010270
:102970007B685A6005E07B685B6823F001027B6836
:102980005A6007F10807BD4680BD00BF80B582B020
:1029900000AF786039607B68B3F1402F1CD07A6853
:1029A0004FF40043C4F200039A4215D07A684FF006
:1029B0000003C4F209039A420ED07A684FF48043B0
:1029C000C4F209039A4207D043F2E010C0F20100BA
:1029D00040F2C51107F072F83B681B79002B13D049
:1029E0003B681B79012B0FD03B681B79022B0BD066
:1029F0003B681B79032B07D043F2E010C0F20100C3
:102A00004FF4E37107F05AF83B681B78032B1FD88B
:102A100001A252F823F000BF292A0000332A000047
:102A20003D2A0000472A00003B689A687B689A614B
:102A30000FE03B689A687B68DA610AE03B689A6855
:102A40007B681A6205E03B689A687B685A6200E01E
:102A5000FEE77B685B6919463B681B781A4613469C
:102A60004FEA43039B184FF0070202FA03F36FEAA1
:102A7000030301EA03027B685A613B685B78002B21
:102A800011D07B685B6919463B681B781A46134670
:102A90004FEA43039B184FF0010202FA03F341EAA5
:102AA00003027B685A613B68DB78002B13D07B689C
:102AB0005B6919463B681B781A4613464FEA430385
:102AC0009B1803F101034FF0010202FA03F341EAFC
:102AD00003027B685A613B689B78002B13D07B68AC
:102AE0005B6919463B681B781A4613464FEA430355
:102AF0009B1803F102034FF0010202FA03F341EACB
:102B000003027B685A617B68DB6B1A463B681B7863
:102B10004FEA430303F104034FF0030101FA03F307
:102B20006FEA03031A407B68DA637B68DB6B1A4643
:102B30003B681B7903F003013B681B784FEA4303B2
:102B400003F1040301FA03F31A437B68DA6307F124
:102B50000807BD4680BD00BF80B584B000AF4FF010
:102B60000003FB7103F0FAF90BF074FD06F01CFC96
:102B70004FF0640003F010FA0BF05EFC4FF06400BD
:102B800003F00AFA0BF066FE4FF0640003F004FA5B
:102B900001F082F84FF0640003F0FEF907F107033B
:102BA0004FF01E0019464FF0020201F0A5F84FF059
:102BB000640003F0F1F90BF0E5FD4FF0640003F061
:102BC000EBF941F26013C1F200031B681B68184661
:102BD00010F030FA03469AB241F20C13C1F200032E
:102BE0001A8041F22053C1F200031B681B6818468B
:102BF00010F020FA03469AB241F20C13C1F200031E
:102C00005A8041F26813C1F200031B681B68184622
:102C100010F010FA03469AB241F20C13C1F200030D
:102C20009A8041F21853C1F200031B681B681846D2
:102C300010F000FA03469AB240F65063C1F2000366
:102C40001A8041F25C13C1F200031B681B6818462E
:102C500010F0F0F903469AB240F65063C1F2000357
:102C60005A8041F2E443C1F200031B681B68184616
:102C700010F0E0F903469AB240F65063C1F2000347
:102C80009A8041F2DC43C1F200031B681B681846BE
:102C900010F0D0F903469AB240F6AC63C1F20003DB
:102CA0001A8041F2F043C1F200031B681B6818460A
:102CB00010F0C0F903469AB240F6AC63C1F20003CB
:102CC0005A8041F24013C1F200031B681B6818468A
:102CD00010F0B0F903469AB240F6AC63C1F20003BB
:102CE0009A8000F079F909F0C7FB4FF00003FB6010
:102CF00023E04FF00003BB6018E041F20C13C1F277
:102D00000003BA6833F8120040F6B462C1F2000260
:102D1000F9680B464FEA43035B18B9685B18014634
:102D200022F81310BB6803F10103BB60BB68022BE0
:102D3000E3DDFB6803F10103FB60FB68632BD8DD77
:102D400007F11007BD4680BD98B500AF4FF00003F6
:102D5000C4F209039B681A4640F22053C1F20003F3
:102D60001A6040F22053C1F200031A6840F2245363
:102D7000C1F200031B689A4228D240F22053C1F2EC
:102D800000031A6840F22453C1F200031B68D21AF0
:102D90004FF43453C0F23113D31818460FF0EEFA43
:102DA00002460B461046194687A3D3E900230FF0CD
:102DB00085FC02460B46104619460FF017FE0246E8
:102DC00040F21803C1F200031A6022E040F22053DF
:102DD000C1F200031A6840F22453C1F200031B68D9
:102DE000D31A18460FF0CAFA02460B461046194687
:102DF00075A3D3E900230FF061FC02460B46104691
:102E000019460FF0F3FD024640F21803C1F2000329
:102E10001A6040F22053C1F200031A6840F22453B2
:102E2000C1F200031A6040F22853C1F200031B886C
:102E300003F101039AB240F22853C1F200031A8051
:102E400040F22853C1F200031B8818460FF0D8FE49
:102E5000024641F24813C1F200031B681B684FF0A1
:102E600001010C461046194610F0D0F80346002B1D
:102E700002D14FF000031C46E3B2002B17D000F044
:102E8000ABF80AF059FE40F21803C1F200031B68C8
:102E900018464FF001010AF09FFA0BF069F840F272
:102EA0002853C1F200034FF000021A800BE000F03B
:102EB00057FA40F21803C1F200031B6818464FF09E
:102EC00000010AF089FA41F6A410C1F2000041F6AF
:102ED000FC11C1F200010AF023F841F6A413C1F27B
:102EE00000031A6840F65863C1F200031A6041F605
:102EF000A413C1F200035A6840F65863C1F20003FC
:102F00005A6041F6A413C1F200039A6840F6586370
:102F1000C1F200039A6041F6C013C1F200031B68BE
:102F200018460FF04DFA02460B461046194628A3E4
:102F3000D3E900230FF098FA02460B4610461946D3
:102F40000FF054FD024640F65863C1F20003DA6008
:102F500041F6C013C1F200035B6818460FF030FA67
:102F600002460B461046194619A3D3E900230FF079
:102F70007BFA02460B46104619460FF037FD024613
:102F800040F65863C1F200031A6141F6C013C1F262
:102F900000039B6818460FF013FA02460B461046D2
:102FA00019460BA3D3E900230FF05EFA02460B4645
:102FB000104619460FF01AFD024640F65863C1F25A
:102FC00000035A6198BD00BF0000000080842E41BC
:102FD000E3A9471ADCA54C402DE9B04382B000AF0D
:102FE0004FF000037B6040F6A460C1F2000040F6A1
:102FF0007061C1F2000140F67862C1F200020BF08C
:1030000041FC03463B603B68002B02D10BF046FDC0
:103010008CE14FF000037B6037E040F6A463C1F21F
:1030200000037A6833F812309AB241F20C13C1F2FD
:103030000003796833F811309BB2D31A9BB299B26E
:1030400040F6A463C1F200037A6823F8121040F638
:103050007063C1F200037A6833F812309AB240F616
:103060005063C1F20003796833F811309BB2D31A70
:103070009BB299B240F67063C1F200037A6823F8FC
:1030800012107B6803F101037B607B68022BC4DDB7
:1030900040F6A463C1F200031B889BB2C3F1000396
:1030A0009BB29AB240F6A463C1F200031A8040F6C4
:1030B000A463C1F200035B889BB2C3F100039BB21F
:1030C0009AB240F6A463C1F200035A8040F6A463AA
:1030D000C1F200039B889BB203F580539BB29AB266
:1030E00040F6A463C1F200039A8040F67063C1F217
:1030F00000031B889BB2C3F100039BB29AB240F657
:103100007063C1F200031A8040F67063C1F20003DD
:103110009B889BB2C3F100039BB29AB240F67063E6
:10312000C1F200039A8040F67863C1F200031A8866
:1031300040F67863C1F200031A8040F67863C1F26A
:1031400000035B889BB2C3F100039BB29AB240F6C6
:103150007863C1F200035A804FF000037B6066E0A1
:1031600040F69863C1F200037A6853F8224041F2B6
:103170005013C1F200031B681B68774819460FF013
:1031800089FC0346204619460FF08EFD034618467B
:103190000FF016F904460D4640F6A463C1F2000391
:1031A0007A6833F812301BB218460FF0F7F802466F
:1031B0000B461046194660A3D3E900230FF054F9DB
:1031C00002460B46104619464FF000024FF080436E
:1031D00003F530030FF072FA02460B46904699460B
:1031E00041F25013C1F200031B681B6818460FF030
:1031F000E7F802460B46404649460FF035F90246CD
:103200000B46204629460EF07DFF02460B4610462F
:1032100019460FF0EBFB014641F69413C1F200038F
:103220007A6843F822107B6803F101037B607B68B6
:10323000022B95DD4FF000037B602EE040F67063BB
:10324000C1F200037A6833F812301BB218460FF04F
:10325000A5F802460B461046194639A3D3E90023C8
:103260000FF002F902460B461046194636A3D3E981
:1032700000230FF023FA02460B46104619460FF0C2
:10328000B5FB014641F6C013C1F200037A6843F86A
:1032900022107B6803F101037B607B68022BCDDD8C
:1032A0004FF000037B6025E040F67863C1F2000335
:1032B0007A6833F812301BB218460FF06FF80246E6
:1032C0000B461046194622A3D3E900230FF0CCF891
:1032D00002460B46104619460FF088FB014641F6A0
:1032E0000C23C1F200037A6843F822107B6803F1D3
:1032F00001037B607B68022BD6DD4FF000037B600F
:1033000011E041F69413C1F200037A6853F82210D9
:1033100040F69863C1F200037A6843F822107B6894
:1033200003F101037B607B68022BEADD07F10807EC
:10333000BD46BDE8B08300BF1F85EB51B89E23405A
:1033400011E7FAA146DF913F666666666666304021
:10335000713D0AD7A370ED3F0000803FAFF30080BE
:1033600080B582B000AF4FF000037B6040F6706024
:10337000C1F200000BF052FB03463B603B68002BA0
:1033800002D10BF08BFB78E04FF000037B601DE077
:1033900040F67063C1F200037A6833F812309AB2D3
:1033A00040F65063C1F20003796833F811309BB2E4
:1033B000D31A9BB299B240F67063C1F200037A68E7
:1033C00023F812107B6803F101037B607B68022BFA
:1033D000DEDD40F67063C1F200031B889BB2C3F1CF
:1033E00000039BB29AB240F67063C1F200031A80E8
:1033F00040F67063C1F200039B889BB2C3F10003E7
:103400009BB29AB240F67063C1F200039A804FF00B
:1034100000037B602EE040F67063C1F200037A681F
:1034200033F812301BB218460EF0B8FF02460B46B6
:103430001046194614A3D3E900230FF015F80246ED
:103440000B461046194612A3D3E900230FF036F9B4
:1034500002460B46104619460FF0C8FA014641F6DF
:10346000C013C1F200037A6843F822107B6803F1AD
:1034700001037B607B68022BCDDD07F10807BD46A9
:1034800080BD00BFAFF3008011E7FAA146DF913F96
:10349000666666666666304090B58DB000AF4FF0E8
:1034A0000003FB624FF00003BB624FF47A7002F03E
:1034B00073FD4FF00003FB620BE005F075FF4FF06A
:1034C000320002F069FD02F049FDFB6A03F10103DD
:1034D000FB62FB6A4F2BF0DD4FF00003FB6221E043
:1034E000FB6A4FEA830307F13001CB184FF000026B
:1034F00043F8142CFB6A4FEA830307F13002D31818
:103500004FF0000243F8202CFB6A4FEA830307F1D7
:103510003001CB184FF0000243F82C2CFB6A03F16A
:103520000103FB62FB6A022BDADD4FF00003BB6292
:103530006DE04FF0640002F02FFD05F035FF40F61E
:10354000A460C1F2000040F67061C1F2000140F6D3
:103550007862C1F200020BF095F94FF00003FB62B4
:103560004EE0FB6A4FEA830307F13002D31853F8A9
:10357000142C40F6A463C1F20003F96A33F8113049
:103580001BB2D218FB6A4FEA830307F13001CB1854
:1035900043F8142CFB6A4FEA830307F13002D31877
:1035A00053F8202C40F67063C1F20003F96A33F837
:1035B00011301BB2D218FB6A4FEA830307F13001C6
:1035C000CB1843F8202CFB6A4FEA830307F1300243
:1035D000D31853F82C2C40F67863C1F20003F96A33
:1035E00033F811301BB2D218FB6A4FEA830307F19C
:1035F0003001CB1843F82C2CFB6A03F10103FB626A
:10360000FB6A022BADDDBB6A03F10103BB62BB6A3F
:10361000312B8EDD4FF00003FB6284E0FB6A4FEA42
:10362000830307F13002D31853F8142C48F21F53C8
:10363000C5F2EB1383FB02134FEA23114FEAE27347
:10364000CA1AFB6A4FEA830307F13001CB1843F82B
:10365000142CFB6A4FEA830307F13002D31853F8A6
:10366000202C48F21F53C5F2EB1383FB02134FEAE1
:1036700023114FEAE273CA1AFB6A4FEA830307F188
:103680003001CB1843F8202CFB6A4FEA830307F183
:103690003002D31853F82C2C48F21F53C5F2EB1309
:1036A00083FB02134FEA23114FEAE273CA1AFB6A43
:1036B0004FEA830307F13001CB1843F82C2CFB6A47
:1036C0004FEA830307F13002D31853F8143C99B240
:1036D00041F20C13C1F20003FA6A23F81210FB6ADC
:1036E0004FEA830307F13001CB1853F8203C99B21D
:1036F00040F65063C1F20003FA6A23F81210FB6A25
:103700004FEA830307F13002D31853F82C3C99B2E7
:1037100040F6AC63C1F20003FA6A23F81210FB6AA8
:1037200003F10103FB62FB6A022B7FF777AF41F2E3
:103730006013C1F200031C6841F20C13C1F20003D4
:103740001B881BB218460FF05BFA0346236041F258
:103750002053C1F200031C6841F20C13C1F20003B4
:103760005B881BB218460FF04BFA0346236041F208
:103770006813C1F200031C6841F20C13C1F200038C
:103780009B881BB218460FF03BFA0346236041F2B8
:103790001853C1F200031C6840F65063C1F20003E5
:1037A0001B881BB218460FF02BFA0346236041F228
:1037B0005C13C1F200031C6840F65063C1F20003C1
:1037C0005B881BB218460FF01BFA0346236041F2D8
:1037D000E443C1F200031C6840F65063C1F20003E9
:1037E0009B881BB218460FF00BFA0346236041F288
:1037F000DC43C1F200031C6840F6AC63C1F2000375
:103800001B881BB218460FF0FBF90346236041F2F8
:10381000F043C1F200031C6840F6AC63C1F2000340
:103820005B881BB218460FF0EBF90346236041F2A8
:103830004013C1F200031C6840F6AC63C1F2000300
:103840009B881BB218460FF0DBF90346236041F258
:103850007410C1F200004FF0AC0107F09DFD08F0BC
:103860000BFE07F13407BD4690BD00BF90B587B091
:1038700000AF4FF000037B614FF000033B614FF05E
:1038800000037B610BE005F08FFD4FF0320002F08A
:1038900083FB02F063FB7B6903F101037B617B69BE
:1038A0000B2BF0DD4FF000037B610DE07B694FEAED
:1038B000830307F11801CB184FF0000243F8142CD2
:1038C0007B6903F101037B617B69022BEEDD4FF025
:1038D00000033B6135E04FF0140002F05DFB02F0A5
:1038E0003DFB05F061FD40F67060C1F200000BF099
:1038F00095F84FF000037B611CE07B694FEA83037E
:1039000007F11802D31853F8142C40F67063C1F273
:103910000003796933F811301BB2D2187B694FEA82
:10392000830307F11801CB1843F8142C7B6903F1CA
:1039300001037B617B69022BDFDD3B6903F101033E
:103940003B613B69132BC6DD4FF000037B612EE02A
:103950007B694FEA830307F11802D31853F8142C3C
:1039600046F26763C6F2666383FB02134FEAE30124
:103970004FEAE273CA1A7B694FEA830307F1180121
:10398000CB1843F8142C7B694FEA830307F1180224
:10399000D31853F8143C99B240F65063C1F20003B7
:1039A0007A6923F812107B6903F101037B617B695B
:1039B000022BCDDD41F21853C1F200031C6840F622
:1039C0005063C1F200031B881BB218460FF018F9B0
:1039D0000346236041F25C13C1F200031C6840F609
:1039E0005063C1F200035B881BB218460FF008F960
:1039F0000346236041F2E443C1F200031C6840F631
:103A00005063C1F200039B881BB218460FF0F8F810
:103A10000346236041F27410C1F200004FF0AC0184
:103A200007F0BAFC07F11C07BD4690BD80B485B015
:103A300000AF786039607B681F2B03D97B68A3F1E6
:103A4000200300E07B68FB607B681F2B27D84FF4C6
:103A50004043C4F20F034FF44042C4F20F02D2F8C5
:103A6000A8211146FA684FF0030000FA02F26FEA4B
:103A700002020A40C3F8A8214FF44043C4F20F03E6
:103A80004FF44042C4F20F02D2F8A8211146FA685E
:103A9000386800FA02F20A43C3F8A82126E04FF47E
:103AA0004043C4F20F034FF44042C4F20F02D2F875
:103AB000AC211146FA684FF0030000FA02F26FEAF7
:103AC00002020A40C3F8AC214FF44043C4F20F0392
:103AD0004FF44042C4F20F02D2F8AC211146FA680A
:103AE000386800FA02F20A43C3F8AC2107F1140760
:103AF000BD4680BC704700BF80B485B000AF786021
:103B00007B681F2B09D87B68FB604FF44043C4F2ED
:103B10000F03D3F8A831BB600AE07B68A3F1200350
:103B2000FB604FF44043C4F20F03D3F8AC31BB60E9
:103B3000FB68BA6822FA03F303F00303BB60BB68B7
:103B4000184607F11407BD4680BC704780B584B0A5
:103B500000AF786040F21C03C1F200031B68BB6039
:103B60007868FFF7C9FF0346FB60FB68032B1BD88F
:103B700001A252F823F000BF893B0000913B0000F6
:103B8000993B0000A13B00004FF00403FB600BE0F9
:103B90004FF00103FB6007E04FF00203FB6003E01E
:103BA0004FF00803FB6000BFBA68FB68B2FBF3F399
:103BB000BB60BB68184607F11007BD4680BD00BF5B
:103BC00080B483B000AF78600B46FB70FB78012BAC
:103BD00014D14FF44042C4F20F024FF44043C4F2F8
:103BE0000F03D3F8C430194678684FF2DE73CEF66F
:103BF000EF7303400B43C2F8C43018E0FB78002B8E
:103C000015D14FF44042C4F20F024FF44043C4F2C6
:103C10000F03D3F8C43019467B686FEA03031940D9
:103C20004FF2DE73CEF6EF730B40C2F8C43007F1EB
:103C30000C07BD4680BC704780B584B000AF78608B
:103C40007A684FF00003C4F20B039A4207D043F2A4
:103C50003420C0F201004FF0A90105F02FFF7B686E
:103C60001B7ADBB203F00103DBB2002B0CD04FF068
:103C70000103FB737B681B7ADBB243F00103DAB20A
:103C80007B681A72FB7B01E04FF00003184607F1D6
:103C90001007BD4680BD00BF80B582B000AF4FF0B9
:103CA0007003FB7107F107034FF01E0019464FF038
:103CB000000200F021F84FF0010000F005F807F1D4
:103CC0000807BD4680BD00BF80B584B000AF034685
:103CD000FB71FB794FEA4313DBB2FB7307F10F0370
:103CE0004FF01E0019464FF0010200F005F807F1F1
:103CF0001007BD4680BD00BF80B58EB000AF3960F3
:103D000013460246FA71BB71BB793B723B681B7864
:103D10007B72FB79FB6007F108033B614FF0020304
:103D20007B614FF00003FB614FF000033B624FF0FB
:103D30000503BB6207F10C034FF44040C4F20500D9
:103D400019464FF0000206F047FB07F13807BD4661
:103D500080BD00BF80B400AF4FF44043C4F20F03F6
:103D60004FF02002C3F8A0214FF44043C4F20F03E8
:103D7000D3F8A03103F02003002B0AD000BF4FF48A
:103D80004043C4F20F03D3F8A03103F04003002BEB
:103D9000F5D04FF44043C4F20F034FF00302C3F8D1
:103DA00004214FF44043C4F20F034FF00002C3F864
:103DB000A8214FF44043C4F20F034FF00002C3F8B0
:103DC000AC214FF44043C4F20F034FF00102C3F89B
:103DD0000C214FF44043C4F20F034FF06302C0F2D2
:103DE0000502C3F884204FF44043C4F20F034FF0A0
:103DF000AA02C3F88C204FF44043C4F20F034FF0E3
:103E00005502C3F88C204FF44043C4F20F034FF027
:103E10000102C3F880204FF44043C4F20F034FF077
:103E2000AA02C3F88C204FF44043C4F20F034FF0B2
:103E30005502C3F88C2000BF4FF44043C4F20F0377
:103E4000D3F8883003F08063002BF5D04FF4404363
:103E5000C4F20F034FF00302C3F880204FF4404335
:103E6000C4F20F034FF0AA02C3F88C204FF4404372
:103E7000C4F20F034FF05502C3F88C2000BF4FF47B
:103E80004043C4F20F03D3F8883003F04073002B93
:103E9000F5D04FF44043C4F20F034FF02302C3F8B0
:103EA000A4204FF44043C4F20F034FF0AA02C3F81A
:103EB000AC204FF44043C4F20F034FF05502C3F857
:103EC000AC204FF44043C4F20F034FF00102C3F89B
:103ED000A0204FF44043C4F20F034FF0AA02C3F8EE
:103EE000AC204FF44043C4F20F034FF05502C3F827
:103EF000AC2000BF4FF44043C4F20F03D3F8A83006
:103F000003F48063002BF5D04FF44043C4F20F0359
:103F10004FF00302C3F8A0204FF44043C4F20F0354
:103F20004FF0AA02C3F8AC204FF44043C4F20F0391
:103F30004FF05502C3F8AC2000BF4FF44043C4F229
:103F40000F03D3F8A83003F44073002BF5D04FF4DF
:103F50004043C4F20F0348F2DE72C0F22842C3F8B5
:103F6000C4204FF44043C4F20F034FF00002C3F8E3
:103F7000C8214FF44043C4F20F0343F23A021A60DF
:103F80004FF46D43CEF200034FF000029A60BD463D
:103F900080BC704780B582B000AF02460B46FA7114
:103FA000BB71FB79002B03D1BB79184604F0C8FF25
:103FB00007F10807BD4680BD80B485B000AF034659
:103FC0003960FB713B681B88DAB2FB795340FB73A5
:103FD000FB7B4FEA0313DAB2FB7B5340DBB2FB738C
:103FE0003B681B884FEA13239BB29AB2FB7B4FEAD4
:103FF00003239BB253409AB2FB7B4FEAC3039BB2AD
:1040000053409AB2FB7B4FEA1313DBB253409BB28F
:104010009AB23B681A8007F11407BD4680BC70470E
:1040200080B483B000AF78607B684FF6FF721A806F
:1040300007F10C07BD4680BC704700BF80B584B057
:1040400000AF78600B467B8007F10E031846FFF740
:10405000E7FF0BE07B681A787B6803F101037B6064
:1040600007F10E0310461946FFF7A6FF7B88002BC9
:104070000CBF00230123DBB27A8802F1FF327A8081
:10408000002BE7D1FB89184607F11007BD4680BD1C
:1040900080B586B000AFF860B9601346FB71BB68AD
:1040A0007B6109E07B691B787A6902F101027A6120
:1040B0001846F968FFF780FFFB79002B0CBF00233F
:1040C0000123DBB2FA7902F1FF32FA71002BE9D158
:1040D00007F11807BD4680BD80B483B000AF03462A
:1040E000FB71FA7913464FEA43039B184FEA8303A7
:1040F0001A4640F23C53C1F20003D318184607F1A8
:104100000C07BD4680BC704780B483B000AF034647
:10411000FB71FA7913464FEA03139B184FEA031316
:104120001A4640F26863C1F20003D318184607F13B
:104130000C07BD4680BC704780B586B000AF3A60C2
:104140000246FA710A46BA717B71FB791846FFF78D
:10415000C3FF03467B614FF0FE033B737B797B73A8
:104160007B699B79BB7340F6F053C1F200031B7867
:10417000FB7340F6F053C1F200035B783B74BB79EC
:104180007B747B699B7903F10103DAB27B699A71D5
:1041900007F10C0303F1010318464FF00501FFF787
:1041A0004DFF03467B8207F112027B791046396886
:1041B0001A46FFF76DFF97F8202007F1120310460B
:1041C0001946FFF7F9FE7B8ADBB23B727B8A4FEA26
:1041D00013239BB2DBB27B72FA7907F10C03104612
:1041E00019464FF0060200F0C3F97B799BB2FA79C9
:1041F000104639681A4600F0BBF9FA7907F108034E
:10420000104619464FF0020200F0B2F907F1180704
:10421000BD4680BD80B582B000AF78607B6818462F
:10422000FFF7FEFE07F10807BD4680BD80B582B0EE
:1042300000AF78600B46FB707B68FA781046194631
:10424000FFF7BAFE07F10807BD4680BD80B588B00C
:1042500000AFBA607B600346FB730B46BB73FB7B0E
:104260001846FFF751FF0346FB61FB7B1846FFF73B
:1042700033FF0346BB614FF000037B61BB694FF026
:1042800000021A70BB69DB78092B00F23B8101A2A6
:1042900052F823F0BD420000BD420000E34200009E
:1042A000554300003B4300006F430000894300007A
:1042B000B5430000F34300006D440000BB7BFE2BC0
:1042C00040F01981BB694FF00202DA70FB694FF0D0
:1042D0000002DA70FB69BA7B9A70F869FFF79AFFFF
:1042E00009E1BB691B78002B16D0BB695B7803F131
:1042F0000103DAB2BB695A70BB699B7803F1010311
:10430000DAB2BB699A70BB694FF000021A70BB69E0
:104310004FF00102DA70F5E0FB69BA7BDA70BB6935
:104320004FF000021A71BB7BF8691946FFF77EFF58
:10433000BB694FF00402DA70E4E0FB69BA7B1A71E2
:10434000BB7BF8691946FFF771FFBB694FF00302A9
:10435000DA70D7E0FB69BA7B5A71BB7BF869194602
:10436000FFF764FFBB694FF00502DA70CAE0FB6932
:10437000BA7B9A71BB7BF8691946FFF757FFBB6997
:104380004FF00602DA70BDE0FB69BA7BDA71BB7BE5
:10439000F8691946FFF74AFFFB69DB78002B04D167
:1043A000BB694FF00802DA70ACE0BB694FF007025E
:1043B000DA70A7E0FB6903F10801BB691B791A46B3
:1043C0008A18B97B117003F10103DAB2BB691A7163
:1043D000BB7BF8691946FFF729FFBB691A79FB69AE
:1043E000DB789A4240F08980BB694FF00802DA70AE
:1043F00083E0FB69DB791A4643F27C43C0F2010398
:104400009B5CF8691946FFF711FFBA7BFB691B88B3
:10441000DBB29A421DD0BB699B7803F10103DAB28B
:10442000BB699A70BB694FF000021A70BB694FF00C
:104430000102DA70BB7BFE2B61D1BB694FF0020237
:10444000DA70FB694FF00002DA70F869FFF7E2FEFC
:1044500055E0BB694FF00902DA70FB6903F108020D
:10446000BB691B79D318BA7B1A7048E0BB7B9AB240
:10447000FB691B884FEA13239BB29A421DD0BB698C
:104480009B7803F10103DAB2BB699A70BB694FF004
:1044900000021A70BB694FF00102DA70BB7BFE2B81
:1044A0002FD1BB694FF00202DA70FB694FF00002B6
:1044B000DA70F869FFF7AEFE23E0BB694FF0010246
:1044C0001A70BB694FF00102DA70FB6903F1080250
:1044D000BB691B7903F10103D318BA7B1A70BA6860
:1044E000FB6911461A464FF48873084611461A466E
:1044F0000EF0ECFD05E000BF04E000BF02E000BFED
:1045000000E000BF7B6903F101037B61BB691B789D
:10451000012B12D1FB691A79BB695A71BB691B89DE
:10452000002B03D1BB694FF000025A81BB691B8984
:1045300003F101039AB2BB691A81BB695B7903F18C
:104540000103DAB27B685A71BB691A897B681A81E8
:10455000BB699B781A467B685A81BB694FF00002A1
:104560009A70BB691B78184607F12007BD4680BDCD
:1045700080B584B000AF396013460246FA71BB8043
:104580004FF00003FB810CE0FB893A68D3181B78DD
:10459000FA7910461946FFF7FDFCFB8903F1010388
:1045A000FB81FA89BB889A42EED307F11007BD461A
:1045B00080BD00BF80B584B000AFF860B9607A609C
:1045C000BB68002B09D1FB681A467B6810464FF088
:1045D00000011A460EF0BCFD09E0FA68BB681146FE
:1045E0001A467B68084611461A460EF06FFD07F121
:1045F0001007BD4680BD00BF80B483B000AF7860B7
:104600000B46FB707B6803F10802FB78D3181B880C
:104610001BB2184607F10C07BD4680BC704700BFAF
:1046200080B483B000AF78600B46FB707B6803F109
:104630000802FB78D3181B68184607F10C07BD4623
:1046400080BC704780B483B000AF78600B46FB70CD
:104650007B6803F10802FB78D3181B68184607F142
:104660000C07BD4680BC704780B483B000AF786053
:104670000B46FB707B6803F10802FB78D3181B68BC
:10468000184607F10C07BD4680BC704780B483B064
:1046900000AF78607B6803F1080303F105031B7822
:1046A000184607F10C07BD4680BC704780B582B044
:1046B00000AF786078684FF00001FFF7B1FF034664
:1046C000184607F10807BD4680BD00BF80B58EB013
:1046D00002AFB9607A600246FA73BB737B687B6194
:1046E0003B8F3B83BB8F7B83BB7B87F82C3007F1F1
:1046F000140303F108031846B9684FF01002FFF7DE
:1047000059FFFA7B07F114034FF0DC0100911046CA
:104710004FF016011A464FF01903FFF70DFD07F190
:104720003007BD4680BD00BF80B582B000AF786065
:1047300039607B6803F108033A6811461A464FF066
:104740001703084611461A460EF0C0FC07F1080789
:10475000BD4680BD80B582B000AF786078684FF00C
:104760000001FFF749FF0346184607F10807BD4659
:1047700080BD00BF80B582B000AF786078684FF030
:104780000201FFF739FF0346184607F10807BD4647
:1047900080BD00BF80B582B000AF786078684FF010
:1047A0000401FFF729FF0346184607F10807BD4635
:1047B00080BD00BF80B582B000AF786078684FF0F0
:1047C0000601FFF719FF0346184607F10807BD4623
:1047D00080BD00BF80B586B002AF13460246FA71B5
:1047E0000A46BA80BB71BB88BB81BB79BB73FA79BF
:1047F00007F10C034FF08F01009110464FF04D016F
:104800001A464FF00303FFF797FC07F11007BD4668
:1048100080BD00BF80B582B000AF786078684FF08F
:104820000801FFF721FF0346184607F10807BD46B8
:1048300080BD00BF80B582B000AF786078684FF06F
:104840000C01FFF711FF0346184607F10807BD46A4
:1048500080BD00BF80B582B000AF786078684FF04F
:104860001001FFF701FF0346184607F10807BD4690
:1048700080BD00BF80B582B000AF786078684FF02F
:104880001401FFF7F1FE0346184607F10807BD467D
:1048900080BD00BF80B582B000AF786078684FF00F
:1048A0001801FFF7E1FE0346184607F10807BD4669
:1048B00080BD00BF80B582B000AF786078684FF0EF
:1048C0001C01FFF7D1FE0346184607F10807BD4655
:1048D00080BD00BF80B582B000AF786078684FF0CF
:1048E0002001FFF7AFFE0346184607F10807BD4653
:1048F00080BD00BF80B582B000AF786078684FF0AF
:104900002401FFF79FFE0346184607F10807BD463E
:1049100080BD00BF80B582B000AF786078684FF08E
:104920002801FFF78FFE0346184607F10807BD462A
:1049300080BD00BF80B582B000AF4FF00003FB71B7
:10494000FA7941F27413C1F20003C84943F8221006
:10495000FB794FEA0312C44BD21843F28823C0F20A
:10496000010311461A464FF00603084611461A463F
:104970000EF0ACFBFB794FEA830241F27413C1F2F3
:104980000003D21841F21453C1F200031A60FB79FC
:1049900003F10103FB71FA7941F27413C1F20003D0
:1049A000B34943F82210FB794FEA0312AE4BD218F9
:1049B00043F29023C0F2010311461A464FF006035A
:1049C000084611461A460EF081FBFB794FEA830236
:1049D00041F27413C1F20003D21841F24C13C1F238
:1049E00000031A60FB7903F10103FB71FA7941F2CC
:1049F0007413C1F200039F4943F82210FB794FEA78
:104A00000312994BD21843F29823C0F201031146C6
:104A10001A464FF00603084611461A460EF056FB9A
:104A2000FB794FEA830241F27413C1F20003D218FA
:104A300041F20853C1F200031A60FB7903F101034C
:104A4000FB71FA7941F27413C1F200038A4943F809
:104A50002210FB794FEA0312834BD21843F2A023B2
:104A6000C0F2010311461A464FF0070308461146EB
:104A70001A460EF02BFBFB794FEA830241F27413C6
:104A8000C1F20003D21841F26C13C1F200031A60A4
:104A9000FB7903F10103FB71FA7941F27413C1F25E
:104AA0000003734943F82210FB794FEA03126E4B5F
:104AB000D21843F2A823C0F2010311461A464FF060
:104AC0000703084611461A460EF000FBFB794FEA31
:104AD000830241F27413C1F20003D21841F254135D
:104AE000C1F200031A60FB7903F10103FB71FA794B
:104AF00041F27413C1F200035F4943F82210FB79BD
:104B00004FEA0312584BD21843F2B023C0F201030C
:104B100011461A464FF00703084611461A460EF092
:104B2000D5FAFB794FEA830241F27413C1F2000314
:104B3000D21841F2F843C1F200031A60FB7903F185
:104B40000103FB71FA7941F27413C1F200034A497F
:104B500043F82210FB794FEA0312434BD21843F279
:104B6000B823C0F2010311461A464FF00703084666
:104B700011461A460EF0AAFAFB794FEA830241F277
:104B80007413C1F20003D21841F22453C1F200039E
:104B90001A60FB7903F10103FB71FA7941F2741396
:104BA000C1F20003354943F82210FB794FEA0312A2
:104BB0002D4BD21843F2C023C0F2010311461A460E
:104BC0004FF00703084611461A460EF07FFAFB79AC
:104BD0004FEA830241F27413C1F20003D21841F28A
:104BE000F443C1F200031A60FB7903F10103FB7186
:104BF000FA7941F27413C1F200031F4943F82210FD
:104C0000FB794FEA0312184BD21843F2C823C0F2C3
:104C1000010311461A464FF00703084611461A468B
:104C20000EF054FAFB794FEA830241F27413C1F299
:104C30000003D21841F2E043C1F200031A60FB798D
:104C400003F10103FB71FA7941F27413C1F200031D
:104C5000094943F82210FB794FEA0312024BD2189C
:104C600043F2D0230CE000BF201200106F12033B70
:104C7000000000006F12033A17B7D1386F12833A61
:104C8000C0F2010311461A464FF0070308461146C9
:104C90001A460EF01BFAFB794FEA830241F27413B5
:104CA000C1F20003D21841F27013C1F200031A607E
:104CB000FB7903F10103FB71FA7941F27413C1F23C
:104CC0000003C84943F82210FB794FEA0312C44B92
:104CD000D21843F2D823C0F2010311461A464FF00E
:104CE0000703084611461A460EF0F0F9FB794FEA21
:104CF000830241F27413C1F20003D21841F210533F
:104D0000C1F200031A60FB7903F10103FB71FA7928
:104D100041F27413C1F20003B34943F82210FB7946
:104D20004FEA0312AE4BD21843F2E023C0F2010364
:104D300011461A464FF00703084611461A460EF070
:104D4000C5F9FB794FEA830241F27413C1F2000303
:104D5000D21841F2D443C1F200031A60FB7903F187
:104D60000103FB71FA7941F27413C1F200039F4908
:104D700043F82210FB794FEA0312994BD21843F201
:104D8000E823C0F2010311461A464FF00903084612
:104D900011461A460EF09AF9FB794FEA830241F266
:104DA0007413C1F20003D21841F25813C1F2000388
:104DB0001A60FB7903F10103FB71FA7941F2741374
:104DC000C1F200038A4943F82210FB794FEA03122B
:104DD000834BD21843F2F423C0F2010311461A4662
:104DE0004FF00703084611461A460EF06FF9FB799B
:104DF0004FEA830241F27413C1F20003D21841F268
:104E00004413C1F200031A60FB7903F10103FB7143
:104E1000FA7941F27413C1F20003764943F8221083
:104E2000FB794FEA03126E4BD21843F2FC23C0F217
:104E3000010311461A464FF00A03084611461A4666
:104E40000EF044F9FB794FEA830241F27413C1F288
:104E50000003D21841F24813C1F200031A60FB7933
:104E600003F10103FB71FA7941F27413C1F20003FB
:104E70005E4943F82210FB794FEA0312584BD218CF
:104E800043F20833C0F2010311461A464FF00E03F5
:104E9000084611461A460EF019F9FB794FEA8302CB
:104EA00041F27413C1F20003D21841F25013C1F25F
:104EB00000031A60FB7903F10103FB71FA7941F2F7
:104EC0007413C1F200034C4943F82210FB794FEAF6
:104ED0000312434BD21843F21833C0F201031146B8
:104EE0001A464FF00903084611461A460EF0EEF82E
:104EF000FB794FEA830241F27413C1F20003D21826
:104F000041F26013C1F200031A60FB7903F101035F
:104F1000FB71FA7941F27413C1F20003364943F888
:104F20002210FB794FEA03122D4BD21843F224339F
:104F3000C0F2010311461A464FF009030846114614
:104F40001A460EF0C3F8FB794FEA830241F274135C
:104F5000C1F20003D21841F22053C1F200031A60DB
:104F6000FB7903F10103FB71FA7941F27413C1F289
:104F70000003214943F82210FB794FEA0312184B32
:104F8000D21843F23033C0F2010311461A464FF0F3
:104F90000903084611461A460EF098F8FB794FEAC5
:104FA000830241F27413C1F20003D21841F2681374
:104FB000C1F200031A60FB7903F10103FB71FA7976
:104FC00041F27413C1F200030B4943F82210FB793C
:104FD0004FEA0312024BD21843F23C330EE000BFFB
:104FE000201200106F12833A17B7D138CDCC4C3E47
:104FF0000000C8420000004000000000C0F20103B1
:1050000011461A464FF00A03084611461A460EF09A
:105010005DF8FB794FEA830241F27413C1F2000399
:10502000D21841F21853C1F200031A60FB7903F160
:105030000103FB71FA7941F27413C1F20003C8490C
:1050400043F82210FB794FEA0312C44BD21843F203
:105050004833C0F2010311461A464FF00A030846CE
:1050600011461A460EF032F8FB794FEA830241F2FC
:105070007413C1F20003D21841F25C13C1F20003B1
:105080001A60FB7903F10103FB71FA7941F27413A1
:10509000C1F20003B24943F82210FB794FEA031230
:1050A000AE4BD21843F25433C0F2010311461A46F4
:1050B0004FF00A03084611461A460EF007F8FB792E
:1050C0004FEA830241F27413C1F20003D21841F295
:1050D000E443C1F200031A60FB7903F10103FB71A1
:1050E000FA7941F27413C1F200039D4943F822108A
:1050F000FB794FEA0312994BD21843F26033C0F2A6
:10510000010311461A464FF00903084611461A4694
:105110000DF0DCFFFB794FEA830241F27413C1F218
:105120000003D21841F2DC43C1F200031A60FB799C
:1051300003F10103FB71FA7941F27413C1F2000328
:10514000874943F82210FB794FEA0312834BD218A8
:1051500043F26C33C0F2010311461A464FF00903C3
:10516000084611461A460DF0B1FFFB794FEA83025B
:1051700041F27413C1F20003D21841F2F043C1F2BC
:1051800000031A60FB7903F10103FB71FA7941F224
:105190007413C1F20003724943F82210FB794FEAFD
:1051A00003126E4BD21843F27833C0F2010311465A
:1051B0001A464FF00903084611461A460DF086FFBD
:1051C000FB794FEA830241F27413C1F20003D21853
:1051D00041F24013C1F200031A60FB7903F10103AD
:1051E000FB71FA7941F27413C1F200035D4943F88F
:1051F0002210FB794FEA0312584BD21843F2843342
:10520000C0F2010311461A464FF009030846114641
:105210001A460DF05BFFFB794FEA830241F27413EB
:10522000C1F20003D21840F6FC53C1F200031A6029
:10523000FB7903F10103FB71FA7941F27413C1F2B6
:105240000003484943F82210FB794FEA0312434B0D
:10525000D21843F29033C0F2010311461A464FF0C0
:105260000A03084611461A460DF030FFFB794FEA53
:10527000830241F27413C1F20003D21840F6EC53DA
:10528000C1F200031A60FB7903F10103FB71FA79A3
:1052900041F27413C1F20003324943F82210FB7942
:1052A0004FEA03122D4BD21843F29C33C0F2010394
:1052B00011461A464FF00A03084611461A460DF0E9
:1052C00005FFFB794FEA830241F27413C1F2000338
:1052D000D21840F6F853C1F200031A60FB7903F1CB
:1052E0000103FB71FA7941F27413C1F200031D4905
:1052F00043F82210FB794FEA0312184BD21843F2FD
:10530000A833C0F2010311461A464FF00A030846BB
:1053100011461A460DF0DAFEFB794FEA830241F29C
:105320007413C1F20003D21840F60063C1F2000307
:105330001A60FB7903F10103FB71FA7941F27413EE
:10534000C1F20003084943F82210FB794FEA031227
:10535000024BD21843F2B43308E000BF2012001011
:10536000000000000000A04100007A44C0F20103E8
:1053700011461A464FF00D03084611461A460DF025
:10538000A5FEFB794FEA830241F27413C1F20003D8
:10539000D21841F22853C1F200031A60FB7903F1DD
:1053A0000103FB71FA7941F27413C1F20003C84999
:1053B00043F82210FB794FEA0312C44BD21843F290
:1053C000C433C0F2010311461A464FF00D030846DC
:1053D00011461A460DF07AFEFB794FEA830241F23C
:1053E0007413C1F20003D21841F21C13C1F200037E
:1053F0001A60FB7903F10103FB71FA7941F274132E
:10540000C1F20003B34943F82210FB794FEA0312BB
:10541000AE4BD21843F2D433C0F2010311461A4600
:105420004FF00E03084611461A460DF04FFEFB7969
:105430004FEA830241F27413C1F20003D21841F221
:105440000053C1F200031A60FB7903F10103FB7101
:10545000FA7941F27413C1F200039F4943F8221014
:10546000FB794FEA0312994BD21843F2E433C0F2AE
:10547000010311461A464FF00E03084611461A461C
:105480000DF024FEFB794FEA830241F27413C1F25E
:105490000003D21841F21C53C1F200031A60FB79D9
:1054A00003F10103FB71FA7941F27413C1F20003B5
:1054B0008A4943F82210FB794FEA0312834BD21832
:1054C00043F2F433C0F2010311461A464FF00E03C3
:1054D000084611461A460DF0F9FDFB794FEA8302A2
:1054E00041F27413C1F20003D21841F2D843C1F261
:1054F00000031A60FB7903F10103FB71FA7941F2B1
:105500007413C1F20003734943F82210FB794FEA88
:1055100003126E4BD21843F20443C0F2010311464A
:105520001A464FF00E03084611461A460DF0CEFDFE
:10553000FB794FEA830241F27413C1F20003D218DF
:1055400041F2FC43C1F200031A60FB7903F101034D
:10555000FB71FA7941F27413C1F200035E4943F81A
:105560002210FB794FEA0312584BD21843F214432E
:10557000C0F2010311461A464FF00E0308461146C9
:105580001A460DF0A3FDFB794FEA830241F2741332
:10559000C1F20003D21841F2E843C1F200031A60DD
:1055A000FB7903F10103FB71FA7941F27413C1F243
:1055B00000034A4943F82210FB794FEA0312434B98
:1055C000D21843F22443C0F2010311461A464FF0A9
:1055D0000E03084611461A460DF078FDFB794FEA96
:1055E000830241F27413C1F20003D21841F2045352
:1055F000C1F200031A60FB7903F10103FB71FA7930
:1056000041F27413C1F20003324943F82210FB79CE
:105610004FEA03122D4BD21843F23443C0F2010378
:1056200011461A464FF00A03084611461A460DF075
:105630004DFDFB794FEA830241F27413C1F200037E
:10564000D21841F26413C1F200031A60FB7903F12E
:105650000103FB71FA7941F27413C1F200031D4991
:1056600043F82210FB794FEA0312184BD21843F289
:105670004043C0F2010311461A464FF009030846A1
:1056800011461A460DF022FDFB794FEA830241F2E2
:105690007413C1F20003D21841F21813C1F20003CF
:1056A0001A60FB7903F10103FB71FA7941F274137B
:1056B000C1F20003074943F82210FB794FEA0312B5
:1056C000024BD21843F24C430AE000BF20120010F4
:1056D0000080ED44000000006F12833ACDCCCC3D39
:1056E000C0F2010311461A464FF00B03084611465B
:1056F0001A460DF0EBFCFB794FEA830241F274137A
:10570000C1F20003D21841F20C53C1F200031A6037
:10571000FB7903F10103FB71FA7941F27413C1F2D1
:105720000003414943F82210FB794FEA03123D4B35
:10573000D21843F25843C0F2010311461A464FF003
:105740000A03084611461A460DF0C0FCFB794FEAE1
:10575000830241F27413C1F20003D21841F2141310
:10576000C1F200031A60FB7903F10103FB71FA79BE
:1057700041F27413C1F200032B4943F82210FB7964
:105780004FEA0312274BD21843F26443C0F20103DD
:1057900011461A464FF00C03084611461A460DF002
:1057A00095FCFB794FEA830241F27413C1F20003C6
:1057B000D21841F2EC43C1F200031A60FB7903F105
:1057C0000103FB71FA7941F27413C1F20003164927
:1057D00043F82210FB794FEA0312124BD21843F21E
:1057E0007043C0F2010311461A464FF00903084600
:1057F00011461A460DF06AFCFB794FEA830241F22A
:105800007413C1F20003D21841F2D043C1F2000375
:105810001A60FB7903F10103FB7107F10807BD462C
:1058200080BD00BF201200100000000080B500AF56
:1058300040F6F053C1F200034FF00D021A7040F62B
:10584000F053C1F200034FF032025A7040F6F053A9
:10585000C1F200034FF002029A7040F6F053C1F219
:1058600000034FF040021A7140F6F053C1F20003FA
:105870004FF040025A7140F6F053C1F200034FF06E
:105880000402DA7041F22013C1F200034FF05A0211
:105890009A7741F22013C1F200034FF4FA729A8111
:1058A00041F22013C1F2000342F65C32DA8141F288
:1058B0002013C1F200034FF6FF721A82FFF73AF885
:1058C00041F27410C1F200004FF0AC0105F050FD40
:1058D00080BD00BF00000000B0B5D6B002AF4FF0F1
:1058E0000003C7F848314FF00003A7F846314FF0E6
:1058F0000003A7F8443140F26C50C1F2000003F0FD
:1059000095FA0346C7F84C31D7F84C31002B40F0DC
:10591000A482C8E240F26C53C1F20003D7F84821D8
:105920009B181B7887F84231D7F8483103F10103FF
:10593000C7F8483197F8421107F1280207F11C0314
:105940004FF00000FEF782FC0346002B00F08C8233
:1059500007F12803DB79172B00F06581172B08DC92
:105960000B2B0FD0152B00F05481002B00F0778209
:1059700070E24C2B00F075825A2B26D0452B00F09C
:10598000368267E207F128031846FEF77FFE0346DA
:105990001A4640F6F053C1F200031A7107F12803CA
:1059A0001846FEF783FE03461A4640F23453C1F20E
:1059B00000031A604FF000004FF0B0014FF00002FA
:1059C000FEF708FF03F0E2FA4EE207F1280318465B
:1059D000FEF720FF034618460CF0F2FC02460B4689
:1059E00010461946AAA3D3E900230CF03DFD024658
:1059F0000B46104619460CF0F9FF024640F6586374
:105A0000C1F200031A6007F128031846FEF712FFDF
:105A1000034618460CF0D4FC02460B4610461946C5
:105A20009BA3D3E900230CF01FFD02460B46104652
:105A300019460CF0DBFF024640F65863C1F2000342
:105A40005A6007F128031846FEF704FF034618467C
:105A50000CF0B6FC02460B46104619468CA3D3E95F
:105A600000230CF001FD02460B46104619460CF0CF
:105A7000BDFF024640F65863C1F200039A6040F64B
:105A80005863C1F200039B684FF0010214461846A8
:105A900083490DF0C5FA0346002B02D14FF00003F5
:105AA0001C46E3B2002B0FD040F65863C1F200034E
:105AB0009B6818467B490CF0EDFF03461A4640F6FA
:105AC0005863C1F200039A6007F128031846FEF7F5
:105AD000E1FE034618460CF073FC02460B461046E6
